:020000040001F9
:10B000009032002049B1010063B1010065B1010037
:10B010000000000000000000000000000000000030
:10B0200000000000000000000000000067B1010007
:10B03000000000000000000069B101006BB10100D8
:10B040006DB101006DB1010091BB01006DB1010056
:10B050006DB1010000000000A9B701006DB1010051
:10B060006DB101006DB101006DB101006DB1010064
:10B070006DB101006DB101006DB101006DB1010054
:10B080006DB10100C9BA01006DB101006DB10100DF
:10B09000F1BA01006DB10100F9BA01006DB1010012
:10B0A0006DB101006DB10100000000000000000062
:10B0B0000000000000000000000000000000000090
:10B0C0000348854600F0AEFA0048004775130200B9
:10B0D00090320020056885F308884068FF2464B238
:10B0E000EFF30585002D01D1A6460047254606460B
:10B0F00021273FBAF0B40024002500260027F0B431
:10B10000F92040B200470000401E00BF00BF00BF52
:10B1100000BF00BF00BF00BF00BF00BF00BF00BF37
:10B1200000BFF1D170470000401E00BF00BF00BF4C
:10B1300000BF00BF00BF00BF00BF00BF00BF00BF17
:10B1400000BFF1D1704700000321094802680A439B
:10B150000260084802680A430260074880470748BF
:10B160000047FEE7FEE7FEE7FEE7FEE7FEE700003A
:10B1700024050040540500402DBB0100C1B0010072
:10B1800030B50B46014600202022012409E00D467F
:10B19000D5409D4205D31D469540491B2546954007
:10B1A00040191546521E002DF1DC30BD70B500244B
:10B1B0002546002801DA01244042002901DA012550
:10B1C0004942FFF7DDFFAC4200D04042002C00D0E6
:10B1D000494270BD03460B439B0703D009E008C9F1
:10B1E000121F08C0042AFAD203E00B780370401C37
:10B1F000491C521EF9D27047D2B201E00270401CC5
:10B20000491EFBD270470022F6E710B513460A46E6
:10B2100004461946FFF7F0FF204610BD30B504463E
:10B220000020034600E05B1C934203D2E05CCD5C4F
:10B23000401BF8D030BDF0B51FB40646002082B0E8
:10B2400005464024019100901BE0019922460F46DB
:10B25000304600F009FA049A059B801A994110D3F0
:10B2600010461946224600F0EFF9361A8F41019731
:10B27000224601200021009F00F0E6F938184D41D8
:10B2800000902046641E0028DFDC019B00982946C0
:10B29000324607B0F0BD0000F0B5074608465840FA
:10B2A00087B0C00F049048000E4659004008490876
:10B2B000BC1A884105D2384631461E4617460B4611
:10B2C00002465800400810434CD0300D0390400512
:10B2D0005900400D490D0590401A0290402872DA3D
:10B2E00018030121000B09050843019004980092FE
:10B2F000002805D001995242002088410092019017
:10B30000029840210A1A0199009800F09DF905461B
:10B310000C466B4607CB00F0B8F9C0197141039A8F
:10B320000E0D0023D71756401A467A40164344D0D4
:10B33000049A002A2DD0029A012A039A15DC1205DC
:10B34000C01A914101263605001C7141D20F059E9D
:10B35000D2070093019202962A46234600F0B5F9DF
:10B3600007B0F0BD38463146FAE71605224A0F46C7
:10B37000B218C01AB74101210905001C4F4100183D
:10B380007F41114618187941E20F10436D1964414D
:10B3900013E0E2076D0815436408C2071443039ADB
:10B3A00001261205C01A91413605001C7141CE07D5
:10B3B000400830434908C01851412A46234600F04E
:10B3C00077F9CDE7FFE7049801224000C117121A70
:10B3D00000238B4104983146C417381AA141EEE787
:10B3E00030B40124E407634030BC55E730B4012495
:10B3F000E407614030BC4FE70000E0FFF0B51FB448
:10B4000088B00B990998002448400999C00F490059
:10B4100049080991C0070B990090490049080B9110
:10B4200009990898A64608431CD00B990A98084326
:10B4300018D0099801244000420D4800410D099898
:10B4400024050003000B204309900B980003000B18
:10B4500020430B9050181C494018002201901446BC
:10B46000104605E0002001460DB0F0BD032801DACA
:10B47000034600E003239C46C11A0AAE0AE05F00BF
:10B4800008ADED5B4F00F75B7D430027AA187C41B8
:10B49000491C5B1E6145F2DD410004AB5A52210498
:10B4A000120C0A43240C401C0828DFDB0198029090
:10B4B0000099704601910090059B049A079906989F
:10B4C00000F003F9D0E700000DFCFFFFF0B50C46DB
:10B4D0005C4085B0E40FE40703944C000026640848
:10B4E00059009446490802460296224321D06246FA
:10B4F0000A431ED06200570D4A000E032303550D68
:10B50000012402462C492405781B1B0B360B4018DE
:10B5100023432643614600901C46501AB44103D38E
:10B520000098401C009002E0921800985B410028AF
:10B5300003DA0020014605B0F0BD00200121090515
:10B540000746864611E064461D46141BB54106D3E6
:10B550006546521BB341744607430C43A646CD07CC
:10B5600040084908284392185B4105460D43EAD13B
:10B570001046184313D060461946504071400843A6
:10B5800006D06046101AB34106D20122002306E01D
:10B5900000220123DB0702E00122D243531000986E
:10B5A00074460105381C6141029C039D00196941E4
:10B5B00000F07EF8BFE70000FD0300004A00090329
:10B5C0000123090B1B0519430A4B10B5520D9A4272
:10B5D00002DA0020014610BD064B34339A4203DCE8
:10B5E0009A1A00F041F810BD034BD21800F02CF865
:10B5F00010BD0000FF030000CDFBFFFF10B50029C8
:10B6000004DB0124E40740428C412146002B04DB8B
:10B610001C460123DB075242A341994200D19042CC
:10B6200010BD0000064C0125064E05E0E36807CC7E
:10B630002B430C3C98471034B442F7D3FFF744FD3A
:10B64000383A0200583A020010B5202A04DB0146BD
:10B65000203A9140002010BD914020239C1A0346BF
:10B66000E3401943904010BD10B5202A04DB084682
:10B67000203AD040002110BD0B46D340D0402024BA
:10B68000A21A91400843194610BD10B5202A06DBC6
:10B69000CB170846203A1041C1170B4306E00B4672
:10B6A0001341D0402024A21A91400843194610BDEE
:10B6B00010B5002B08DA0024401C614192185B4150
:10B6C0001A4301D14008400010BDF0B51FB482B04C
:10B6D00005460C0003D0084600F074FA02E000F0C2
:10B6E00071FA20300246009021462846FFF7ACFF51
:10B6F000049B059A04460F4618431143084314D08F
:10B70000184610431BD0009840210A1A1846059984
:10B71000FFF7AAFF05460E46009A05990498FFF721
:10B7200093FF084305D0012004E02046394607B0C6
:10B73000F0BD0020C11705430E432C433743009949
:10B740000E986305401A7905E40A00220C43FD0AAD
:10B750000A3002D500200146E9E7010510196941C8
:10B760000C9C0D9D00196941FFF7A2FFDFE730B582
:10B770008C180278401C13071B0F01D10378401C62
:10B78000120906D10278401C03E005780D70401CB8
:10B79000491C5B1EF9D101E00B70491C521EFBD104
:10B7A000A142E6D3002030BDF0B58BB000270020C9
:10B7B0000A90FF20013009900125002416E0099825
:10B7C00006F06AF800280BD000BF70484068284097
:10B7D000002805D0099806F057F838462843074650
:10B7E0006D000998001D80B20990641C042CE6D3FA
:10B7F000FF207D3006F050F800280AD0FF207D3071
:10B8000006F042F80120C007074300BF6048006906
:10B810000A903807000F00282AD00125002425E0CF
:10B820002846384000281FD000BF5A48512109013E
:10B830004018A10040581F2109020840000A089042
:10B8400000BF5448512109014018A100405803216C
:10B8500009040840000C0790204602F03FFF06460E
:10B8600007990898B04700BF6D00641C042CD7D31B
:10B87000F80FC00700287DD0002008900790401ED8
:10B88000069000BF00200890002464E04248005D5C
:10B890000590C0210598884306463F480057401C44
:10B8A000002857D00120B04006990840002851D008
:10B8B000C0210598084080110490304602F052FFE4
:10B8C000029002F00BFF03900398002802D1049825
:10B8D00003283ED10120B04005460498032802D138
:10B8E00007982843079000BF052000070721090299
:10B8F0004018B1004058032109040840000C029090
:10B900000A982840002802D00298022806D00A98F7
:10B91000284000281CD10298032819D10498032834
:10B920000FD10298022801D1032000E002200190EB
:10B930003046019905F07FFF0898401CC0B208907E
:10B9400000BF0398002803D03046039A049990471B
:10B9500000BF00BF641C042C98D3089800280ED0A8
:10B9600000BF0B49096908460A99884203D10021A2
:10B97000089103E008E00A900799069100BF089833
:10B98000002800D07EE700BF0BB0F0BD0063004090
:10B9900000050050006000400C290020C206D20EB5
:10B9A00001219140014A11607047000080E200E0EF
:10B9B000C206D20E01219140014A11607047000079
:10B9C00000E100E0C206D20E01219140014A11605F
:10B9D0007047000000E200E010B5002819DA1A4AAA
:10B9E00003071B0F083B9B089B00D2588307DC0E04
:10B9F000FF23A3409A438B071B0E8407E40EA3404A
:10BA00001A43114B0407240F083CA408A4001A5140
:10BA100018E00E4A03231B02D21883089B00D25859
:10BA20008307DC0EFF23A3409A438B071B0E84077A
:10BA3000E40EA3401A43054B032424021B19840877
:10BA4000A4001A5110BD00001CED00E000E100E070
:10BA500010B5002819DA1A4A03071B0F083B9B0888
:10BA60009B00D2588307DC0EFF23A3409A438B0729
:10BA70001B0E8407E40EA3401A43114B0407240F46
:10BA8000083CA408A4001A5118E00E4A03231B0224
:10BA9000D21883089B00D2588307DC0EFF23A340F3
:10BAA0009A438B071B0E8407E40EA3401A43054BF1
:10BAB000032424021B198408A4001A5110BD00009D
:10BAC0001CED00E000E100E010B50020074908602F
:10BAD0000021064841608160C1600020034940396F
:10BAE0000860486007F0D6FB10BD0000401101401F
:10BAF00010B507F0E3FA10BD70B50B4800680028D8
:10BB00000ED0094800688047044600BF2546002D36
:10BB100004D000BF284600F0D5FE00BF00BF01E002
:10BB200005F08CF970BD00006021002010B505F013
:10BB30004BFA002805D0104810494860C813104936
:10BB4000886105F025FA002802D001200D4988609F
:10BB500005F09CFA00280ED00B480068012807D099
:10BB60000A480949086000BF074800680128FBD15E
:10BB7000C0200549486110BDDFFF07C00005004037
:10BB8000006C00400006004000EC06407593000089
:10BB900010B507F0F7FC10BD0FB41CB50A46521ED5
:10BBA0000192009007A9064B6A46069800F0EAF851
:10BBB000009A002111701CBC08BC04B0184700009A
:10BBC000BDC401002021020C01D010211046020A40
:10BBD00001D010460839020901D01046091F820819
:10BBE00001D01046891E420801D0881E7047081AED
:10BBF000704730B47446641E2578641CAB4204D38D
:10BC0000635D5B00E31830BC18471D46F8E702E0AF
:10BC100008C8121F08C1002AFAD1704770470020D7
:10BC200001E001C1121F002AFBD17047F0B51FB41B
:10BC300084B007980699020D014314D04A484B4935
:10BC40001018484305140F9801280E981CD0281A84
:10BC5000401C0024464E4749009401910290002860
:10BC600014DA474227E00F98012443A3012808D0A3
:10BC7000002104980F9A84600360C260416009B09B
:10BC8000F0BD0E98C143F4E74042E2E7074612E0F8
:10BC9000F80707D02246334601990098FFF7AEFB1C
:10BCA000019100902246334610461946FFF7A6FB45
:10BCB00004460E467F10002FEAD10298019B00280F
:10BCC000009A0799069802DAFFF798FB01E0FFF760
:10BCD000FDFB04460E460022284BFFF78FFC03D8DD
:10BCE0000020C043014607E00022254B2046314694
:10BCF000FFF7D2FAFFF762FC102409E0002C0ADB00
:10BD00000A220023FFF797FA059B30321A55641E6A
:10BD100002460A43F2D11122641C059B121B1C1916
:10BD20000F9B012B03D0012308430ED10AE00843E7
:10BD300004D011200E9000200F9084E70E98151A61
:10BD40006D1E0BE00E98824202DD00236D1C03E0A5
:10BD5000824201DA00236D1E002BEED004980F9969
:10BD60008260C16030C08AE701FCFFFF104D000017
:10BD7000000024400000F03F300000000000F043CD
:10BD80000000E03FFFB597B00646002518E22528E1
:10BD900077D100242746FD49049400E00443761C33
:10BDA00032780120203A90400842F7D130782A2892
:10BDB0000ED00222307801463039092916D804996C
:10BDC0000A235943303940181443761C0490F1E794
:10BDD000189802C804911890002904DA0120400341
:10BDE00004434842049002200443761C30782E28F5
:10BDF00014D1042004437078761C2A2809D118989D
:10BE0000761C80C8189009E00A214F43303FC719BB
:10BE1000761C3078014630390929F5D930786C28FC
:10BE200010D006DC4C281AD068280ED06A2817D10A
:10BE300004E0742813D07A2812D110E001204005C4
:10BE400004430CE00121090501E0032109050C432D
:10BE50007178814203D1012000052418761C761CDC
:10BE60003078119066280BD013DC58287DD009DC7F
:10BE700000287BD04528F6D04628F4D047281AD190
:10BE8000A5E118E0632835D0642870D0652812D168
:10BE90009DE170286CD008DC6728F1D069287BD040
:10BEA0006E280DD06F2806D1BAE073282ED07528E1
:10BEB00071D0782859D01A9A199990476D1C7EE153
:10BEC0006002400F022809D003280DD004281898DA
:10BED00001680DD00D60001D189070E11898EA17E8
:10BEE00001680D604A60F6E7189801680D80F2E776
:10BEF0000D70F0E718986A4601781172001D1890CD
:10BF00000020507202A80090012005E0189802C895
:10BF1000189000200091C04361070DD5002101E079
:10BF20000199491C0191B94212DA8142F8DB009A69
:10BF3000515C0029F4D10BE0002101E00199491C7A
:10BF400001918142FADB019A0099895C0029F5D1BF
:10BF5000019904981A9B471A21463846199A00F00D
:10BF600097FA0199401945180BE04FE02CE113E0D6
:10BF70004EE0009800990078491C00911A9A19998E
:10BF800090470198401E0190401CF2D1214638464E
:10BF90001A9B199A10E137E00A20002100900191C4
:10BFA0006002410F022907D0189A01CA1892C217DD
:10BFB0009446032908D00AE01898C01DC108C9009A
:10BFC00005C91891944607E000B2C21794460429A7
:10BFD00002D140B2C1178C4600226146944506DA70
:10BFE0000A460021404291418C462D2102E0210564
:10BFF00004D52B216A461173012103E0E10701D02A
:10C000002021F7E7029155E00A200AE0102008E01D
:10C01000102000900021042004430191082703E030
:10C0200008200021019100906002410F022907D0F1
:10C03000189A01CA189200229446032908D008E0F1
:10C040001898C01DC108C90005C91891944603E09D
:10C0500080B2042900D1C0B200210291210729D564
:10C060001199702906D0009A1021019B4A401A4369
:10C0700005D00EE040216A461173012108E06146B7
:10C08000014306D030216A46117311995173022180
:10C090000291009A0821019B4A401A430AD1614645
:10C0A000014301D1610705D530216A461173012191
:10C0B0007F1E02911199582904D035A10E910DA926
:10C0C0000D910DE037A1F9E76146019B009AFFF75A
:10C0D000B2F80E9B8C469B5C0D9A521E0D9213700B
:10C0E00061460143F0D10D9805A9081A203001904E
:10C0F000600703D501200004844300E00127019874
:10C10000874201DD381A00E00020019900904118B3
:10C11000029809180498401A0490E00306D42146B6
:10C120001A9B199A049800F0B3F94519002706E004
:10C1300003A81A9AC05D199990476D1C7F1C02983C
:10C140008742F5DBE0030CD521461A9B199A049827
:10C1500000F09EF9451904E01A9A30201999904789
:10C160006D1C0099481E00900029F5DC08E00D9830
:10C170000D990078491C0D911A9A199990476D1CD8
:10C180000199481E01900029F1DC63E109280100B2
:10C19000303132333435363738396162636465663D
:10C1A00000000000303132333435363738394142FF
:10C1B000434445460000000000F05AF94519761C3A
:10C1C0003078002800D0E2E528461BB0F0BD6007BB
:10C1D00000D406271898C01DC108C90048680A681D
:10C1E0000831C30FDB071891190001D09CA108E0AA
:10C1F000210501D59BA104E0E10701D09AA100E04F
:10C200009AA1430011985B08109165280CD006DCB8
:10C21000452809D046281DD0472841D141E066284D
:10C2200018D067283CD13CE00021112F01DB112000
:10C2300000E0781C0191009008A911A8FFF7F6FC16
:10C24000139905910021119A15927F1C129801975C
:10C25000009150E00120C00703900120019008A93F
:10C26000009711A8FFF7E2FC139A14990592002297
:10C27000119B009212981593059A0192002901D002
:10C28000104602E0791C40180190381A01D5019837
:10C2900004E04042401E0090781C0190C01B0290B8
:10C2A00043E0012F00DA01270021112F01DD1120C9
:10C2B00000E038460191009008A911A8FFF7B6FCEC
:10C2C00013990591119A00211298159200910197E6
:10C2D00021070CD40599B94201DB019900E00191D5
:10C2E000012904DD159A491E515C302906D0B84257
:10C2F00001DA011D05DA0121029115E00199491EBB
:10C30000EDE7002805DC0099411800910199091A10
:10C3100003E0019A411C914200DD01910099401A0D
:10C32000401C02900120C0070390200706D4029908
:10C330000198814202DB0020C04302900020694640
:10C34000C87707AF012103980337C907884224D073
:10C35000022011902B201290039800280CDA404202
:10C3600003902D20129007E00A210398FEF708FFA2
:10C3700030317F1E039039701199481E11900029A9
:10C38000F2DC03980028EFD1791E129808703078FB
:10C39000202108404530BF1E387006A8C01BC01DB4
:10C3A000039010980078002800D0012001994118CE
:10C3B0000298C0170918039809180498401A401EDB
:10C3C0000490E00306D421461A9B199A049800F0C1
:10C3D0005FF8451910980078002803D01A9A199927
:10C3E00090476D1CE00324D521461A9B199A0498A6
:10C3F00000F04EF845191CE00098002807DB009972
:10C400000598884203DD1598405C199901E0199957
:10C4100030201A9A904700986D1C401C009002989A
:10C42000401E0290002804D11A9A2E201999904794
:10C430006D1C0199481E01900029DDDC05E038786B
:10C440001A9A7F1C199990476D1C0399481E0390F6
:10C450000029F4DC21461A9B199A0498ACE60000E6
:10C460002D0000002B000000200000000000000054
:10C47000F8B5044600251E461746880404D405E096
:10C4800039462020B0476D1C641EF9D52846F8BDFA
:10C49000FFB50446002581B01E46C80301D53027EC
:10C4A00000E02027880404D505E038460399B0470A
:10C4B0006D1C641EF9D5284605B0F0BD4A68002AF7
:10C4C00006D00A68531C0B6010704868401E486014
:10C4D0007047F7B582B0044616460025378800201D
:10C4E0003080606B00280ED0616B08783B46324686
:10C4F000039906F095F9054600BF002D02D02846A5
:10C5000005B0F0BD00BF206B00280CD03B46324682
:10C51000206B039906F04EFF054600BF002D01D0A9
:10C520002846EDE700BF2E20005D00280DD02E210B
:10C53000085D3B463246039904F003FE054600BF02
:10C54000002D01D02846DBE700BF2D20005D00282C
:10C550000BD03A463146039801F04AF9054600BF30
:10C56000002D01D02846CBE700BFA07800280BD0D3
:10C570003A463146039800F0B7FA054600BF002D51
:10C5800001D02846BCE700BFE07800280DD0E17854
:10C5900048B23B463246039904F060F9054600BFB5
:10C5A000002D01D02846ABE700BF606800280ED000
:10C5B0000020616808563B463246039906F0C6FFE4
:10C5C000054600BF002D01D0284699E700BF20890D
:10C5D00000280FDD01970096062202212046083030
:10C5E000039B07F01FF9054600BF002D01D0284628
:10C5F00086E700BF208A00280FDD019700960722FA
:10C60000032120461030039B07F00CF9054600BFBC
:10C61000002D01D0284673E700BF208B00280FDDD6
:10C62000019700961522142120461830039B07F02D
:10C63000F9F8054600BF002D01D0284660E700BF8D
:10C64000206A00280CD03B463246206A039902F04B
:10C6500069FA054600BF002D01D0284650E700BF0B
:10C66000606A00280CD03B463246606A039904F0A9
:10C67000C1FE054600BF002D01D0284640E700BF9F
:10C680002C20005D00280CDD3B46324620460399F5
:10C6900006F0E1F8054600BF002D01D028462FE73F
:10C6A00000BF207800280CD03B4632462046039934
:10C6B00004F0F8FE054600BF002D01D028461FE714
:10C6C00000BF28461CE70146C87804221040002815
:10C6D00001D1072070470020FCE7002070470000D0
:10C6E00030B5A7B000200A901E48017808A88172D2
:10C6F000382119A8FEF787FD012110A881860AA913
:10C700001E91002118A881710621C17138210BA842
:10C71000FEF779FD022108A80173242101A8FEF784
:10C7200072FD01216846017404F0D8FA05900020DA
:10C7300006900D4B01AA0BA9009019A800F092FBDE
:10C74000044600BF2546002D04D000BF284600F057
:10C75000B9F800BF00BF0549897848B277DF27B034
:10C7600030BD0000902100200F190200402200205F
:10C7700070B574DF044600BF2546002D04D000BF0D
:10C78000284600F09FF800BF00BF002001F0E4FB46
:10C79000044600BF2546002D04D000BF284600F007
:10C7A00091F800BF00BF70BD014600BF064A506847
:10C7B000012252068243044B9A6001225206024033
:10C7C000DA6000BF704700000005005010B500247B
:10C7D00007E0E100064A1268505C012104F0F8FE0F
:10C7E000641C044800788442F3D3002010BD00008C
:10C7F0002021002024210020FEB506460C461746C5
:10C80000052F01D20720FEBD04F0F8FF002808D153
:10C8100004F0CCFF054600BF002D01D02846F2E70A
:10C8200000BF1748066017480470174807600020CB
:10C83000164908601649086017E0E0008019019069
:10C840001448006800900198807869464870019902
:10C850000878114A694604F01FFF054600BF002D05
:10C8600001D02846CFE700BF00BF2046611ECCB2F2
:10C870000028E2D1094A0021094800F06BF8C2E71C
:10C880002021002024210020282100202C2100200C
:10C8900030210020343A0200090D0200E5F10100C8
:10C8A000303A020000BFBFF34F8F04480449C8600C
:10C8B000BFF34F8F00BF00BFFEE700000400FA0582
:10C8C00000ED00E03EB5044600200090019002908B
:10C8D00002946A4600210248FFF7E4FF3EBD0000D3
:10C8E00001400000F8B504460D46164603480768A7
:10C8F000324629462046B847F8BD0000A828002047
:10C90000F8B505460C4627780C21A068484306492F
:10C910000E580648006800902A46394620460830DE
:10C920002369B047F8BD0000FC2900201821002031
:10C9300010B504460648007814225043044A121DDC
:10C9400081182046FFF7DCFF042006F059F810BDDF
:10C950003029002010B503460C4600BF0D48006882
:10C96000002801D1082010BD00BF002A01D10720F6
:10C97000F9E7002B01D10720F5E71868007C0028B3
:10C9800001D00820EFE71968002008744C744A6150
:10C9900000BFE8E738210020FFB581B00E461446FD
:10C9A0001F4620468107890F002901D1012100E09F
:10C9B0000021002902D1072005B0F0BD002C04D1D0
:10C9C00000201C4908600720F6E705F03BFE1A48E6
:10C9D00007600320194908701648046018340025C0
:10C9E0000CE0E900134A12688818002101704170B8
:10C9F00086704460182171430C196D1C032DF0DB07
:10CA000000200F4908600F4908700F490870142072
:10CA1000FEF7C4FF03211420FFF71AF81420FEF7D5
:10CA2000C7FF019805F0E4FD05F0DCFD074908604B
:10CA30000020C1E7382100205021002034210020AF
:10CA40003C2100204C2100204D21002040210020CD
:10CA5000FEB504460D461746264600BF124800683C
:10CA6000002801D10820FEBD00BF002C01D1082004
:10CA7000F9E7052D01D20720F5E77069002801D1FB
:10CA80000820F0E7707C012801D1284600E0002052
:10CA9000029006F09DFE009701902A463146029BC7
:10CAA00006F0ACFBDFE700003821002070B504463B
:10CAB000254600BF0B480068002801D1082070BD42
:10CAC00000BF002C02D06869002801D10820F6E7D9
:10CAD0000020287406F07CFE0646294606F0BAFBC4
:10CAE000EDE7000038210020F8B505460C46174652
:10CAF0002088001DB84201D90C20F8BD684679DFB6
:10CB0000064600BF002E01D03046F6E700BF0320E6
:10CB1000218868542088401C20801920218868546E
:10CB20002088401C2080208841196846008806F033
:10CB3000E9FD2188401820800020DEE770B5002242
:10CB40000121C90307480068FFF782FF044600BFC0
:10CB50002546002D04D000BF2846FFF7B3FE00BFD6
:10CB600000BF70BD8039020030B585B01421684621
:10CB7000FEF749FB0020009002906420694608738C
:10CB800000BF6846807B00090001401C887368462E
:10CB9000807BF021884310306946887300BF0848C5
:10CBA00000F0BEFC044600BF2546002D04D000BFA7
:10CBB0002846FFF787FE00BF00BF05B030BD00006C
:10CBC00078210020F0B591B004460D46207D002864
:10CBD00019D00020099000BF08A8007901090901B7
:10CBE000491C08A801710079F0218843103008A978
:10CBF000087100BF697B08A84171807906218843CC
:10CC0000801C08A988711C210AA8FEF7FCFA08A854
:10CC1000007A02218843811C08A80172007A102141
:10CC20008843217D002901D0012100E00021090174
:10CC300010221140084308A9087200200B900D90A3
:10CC40000E90207D002801D009A800E000200F9060
:10CC50000020109000BF01216846817349498181FD
:10CC600000BF00200290A97B68460172E97B4172F7
:10CC7000807A06218843811C68468172807A082167
:10CC80008843014668468172807A102188430146B4
:10CC900068468172807A4108490068468172297B22
:10CCA0000191142104A8FEF7AEFA03A8049002A88B
:10CCB0000590012168460183002141830121818380
:10CCC00001A80890A088A31D04AA0AA9A2DF06460D
:10CCD000002E02D0304611B0F0BDA86800284DD01B
:10CCE00000BF0121684681732749818100BF002070
:10CCF0000290287C6946087200BF6846407A0109A4
:10CD0000090168464172407AF021884369464872B9
:10CD100000BF6846807A06218843811C684681727C
:10CD2000807A08218843014668468172807A102102
:10CD30008843014668468172807A41084900684606
:10CD40008172A96800F086FE0746142104A8FEF748
:10CD50005AFA03A8049002A80590684607830021A8
:10CD60004183018B81830890E08822460E3204A91A
:10CD7000A3DF0646002E03D03046ACE70020E0815A
:10CD80000020A8E7192A00000829000070B56421D6
:10CD90000B480068FEF7F4F90D462946094800F0F3
:10CDA00079FB0446002C09D0082C07D006488442A1
:10CDB00004D000BF2046FFF785FD00BF70BD000016
:10CDC000502000207821002001340000F3B593B0FA
:10CDD0000D461F21129111911398002818D0139815
:10CDE000FFF771FC044600BF002C02D0204615B0AE
:10CDF000F0BD00BF12AA09A91398FFF76AFB044609
:10CE000000BF002C01D02046F1E700BF09AE02E0D0
:10CE1000002600201290002D17D0284605F07CFE39
:10CE2000044600BF002C01D02046E0E700BF11AA55
:10CE300001A92846FFF74DFB044600BF002C01D096
:10CE40002046D4E700BF01AF02E000270020119088
:10CE500010A88088C3B210A80089C1B23A463046F3
:10CE600072DFC4E7F8B504460F4615461E4600BFFC
:10CE7000002C01D10E20F8BD00BF00BF002D01D154
:10CE80000E20F8E700BF00204849087048480660B7
:10CE9000484906980860242229464748FEF79AF92F
:10CEA00000F050F9454846490860464888603821F6
:10CEB0004548FEF7A8F9207843490870A0788870A3
:10CEC000E078C87060784870626920694A610861DA
:10CED0000846E268A168C2608160E269A169C26136
:10CEE0008161606A00281BD0384837494862384958
:10CEF0008160606A00883449496A0880606A808875
:10CF00003149496A8880002005E0616A8968095CC6
:10CF10002F4A1154401C2C49496A89888142F4D80F
:10CF2000A06A002824D02B492B48816026498862BA
:10CF300028492548806A8160A06A80882249896AD8
:10CF40008880A06A00882049896A0880002005E05E
:10CF5000A16A8968095C1F4A1154401C1A49896AF0
:10CF600089888142F4D82C20015D17482030017354
:10CF7000206A00280BD0194813490862206A4088AB
:10CF8000096A4880206A00880F49096A0880606839
:10CF9000002804D012480C4948606068486039464F
:10CFA0000948FFF713FF0090009864E7C0200020B5
:10CFB000B8200020BC20002074260020A8260020D5
:10CFC00098260020C82600203C260020E8260020C5
:10CFD000F42600202027002014270020C420002051
:10CFE000C820002070B504462088102804D01128DD
:10CFF00009D01B286CD11DE0A07D012802D1A0889A
:10D000003549088065E0002034490870A08832491D
:10D01000098888420DD1012000F0DEF80546002D78
:10D0200007D02F480068002803D028462C490968FB
:10D0300088474EE0207A002849D12A480078012804
:10D0400006D0022813D0032820D004283DD12FE099
:10D05000022000F0C1F80546002D07D020480068E6
:10D06000002803D028461E49096888472EE003207F
:10D0700000F0B2F80546002D07D0194800680028D6
:10D0800003D028461649096888471FE0032016493F
:10D090000870042000F0A0F80546002D07D01048C5
:10D0A0000068002803D028460D49096888470DE02C
:10D0B00000200D4908700D480068002804D008467B
:10D0C00000780A490968884700E000BF00BF00E017
:10D0D00000BF00BF70BD0000CA200020C12000209A
:10D0E000BC200020C0200020B4200020B820002058
:10D0F00070B504460025022C02D0032C18D100E0A4
:10D1000000BF0D480078002811D000200A4908709F
:10D110000A48007800F060F80546002D07D008485E
:10D120000068002803D0284605490968884700E0C0
:10D1300000BF00BF70BD0000AC200020C020002058
:10D14000BC20002010B507210148FEF75CF810BD97
:10D15000AD20002010B51B48007801282FD11A48B7
:10D16000007800282BD119480078002807D074DFF8
:10D17000044600BF002C01D0204610BD00BF012096
:10D180001149087006201249C87000211048FFF7A5
:10D190001DFE044600BF002C01D02046EDE700BF75
:10D1A0000A48007800F018F80446002C07D0094817
:10D1B0000068002803D020460649096888470020F7
:10D1C000DBE7000074260020C1200020C0200020E2
:10D1D0003C260020BC20002030B587B00546A24880
:10D1E000057003F056FB002805D001209F49087008
:10D1F000002007B030BDFFF7A5FF9D48407800280C
:10D2000003D09948007801280FD0994880780028E9
:10D2100003D095480078012807D0954880780028E9
:10D2200012D09148007802280ED192480068002858
:10D2300007D001209049087008208E490968884766
:10D2400002E000208C4908708748007801280BD143
:10D2500087484078002804D0884804F081FD0028E1
:10D2600002D10220804908707F48007802280BD143
:10D270007F488078002804D0804804F071FD0028A1
:10D2800002D10320784908707948007B002806D134
:10D2900075480078032802D1042073490870744847
:10D2A000007E002808D170480078042804D10020AE
:10D2B0006D490870724908706E480068002817D0E0
:10D2C00069480078032803D06748007804280FD104
:10D2D0006748007800280BD06A480078002807D1FA
:10D2E000012069490870072062490968884702E0FF
:10D2F000002065490870182101A8FDF784FF00216E
:10D300006846017100200290684601730020049075
:10D3100055480078012806D0022811D0032823D0D0
:10D3200004287CD152E05548401E029001216846F5
:10D3300001710021C182818201205149087079E088
:10D340004E48401E029001216846017148480089FC
:10D3500081B26846C1824648808881B2684681822F
:10D3600002204749087065E04148808A81B26846DA
:10D37000C1823F48008A81B268468182434806F0F4
:10D38000F3FA00281ED03A48007800281AD03D4809
:10D390000078002816D10220694608733B480490A3
:10D3A00004203B49C87000213948FFF70FFD0446AF
:10D3B00000BF002C01D020461BE700BF05203049EC
:10D3C000087002E003202E49087033E02848808B63
:10D3D00081B2684681822648008C81B26846C1824B
:10D3E0002A4806F0C1FA00281FD0214800780028FA
:10D3F0001BD024480078002817D102206946087302
:10D400002248049004202249C87000212048FFF7D8
:10D41000DDFC044600BF002C02D02046E9E608E00F
:10D4200000BF06201649087002E004201449087065
:10D4300000E000BF00BF0C480078002808D001A819
:10D4400073DF044600BF002C01D02046D1E600BFA8
:10D4500008480068002804D0094800780549096890
:10D4600088470020C5E60000C0200020AC20002036
:10D4700074260020B8200020C3200020AE20002009
:10D48000B4200020C1200020C220002098260020C7
:10D490003C26002033B587B00446002C02D10E2074
:10D4A00009B030BD0025207C08A90978884233D016
:10D4B0000020059006900121684681820021C182EA
:10D4C00008A80690E188608A05AAA4DF0546002D19
:10D4D00003D108A80078207401E02846E0E7608ABC
:10D4E0000E49884217D0207D002814D000200190DA
:10D4F000029003900490E188684681800121817147
:10D50000C18A018105A8039006980490608A01A948
:10D51000A6DF054600E008252846C1E7FFFF00001A
:10D52000F8B504460D46002C01D0002D01D10E2087
:10D53000F8BD286820600020C043608228792075EB
:10D54000FF20207400BF01216846817008490180D6
:10D5500000BF221D69460120A0DF0646002E01D033
:10D560003046E5E729462046FFF72CFBE0E70000C0
:10D570000F18000070B505460C46002D01D0002C98
:10D5800000D170BD2088102804D0112807D0502861
:10D590000FD109E02146284604F043FA0AE021466B
:10D5A000284604F01FFB05E02146284604F0B0FBA6
:10D5B00000E000BF00BF00BFE3E7000070B5054614
:10D5C0001C2229461448FDF705FE00201349087067
:10D5D000286800280BD0082211482968FDF7FAFDB9
:10D5E0000F487ADF0446002C08D0204670BD0C4856
:10D5F0007BDF0446002C01D02046F7E70020C04323
:10D6000008490880002008490870084A0021084895
:10D61000FFF7A0F9EAE7000040270020E020002003
:10D62000CC200020D6200020D42000203537020056
:10D63000C039020010B504462088102806D01128F1
:10D6400008D012280ED0502810D107E0204604F050
:10D65000C7F90CE0204604F09FFA08E0204604F0E9
:10D66000FFFA04E0204604F0ABF900E000BF00BF81
:10D6700010BD000010B502480068FFF717FA10BD92
:10D68000C039020070B586B004460E46194B0FCB68
:10D6900001AD0FC5002C01D0002E02D10E2006B026
:10D6A00070BD0020C04360803068A06101202077F9
:10D6B000214601A863DF0546002D01D02846EEE78C
:10D6C00021786846817500218182221D05A90120EB
:10D6D000A0DF0546002D01D02846E0E73146204670
:10D6E00005F0A8FE0546002D01D02846D7E700200A
:10D6F000D5E70000F839020070B505460C46002D4C
:10D7000001D0002C00D170BD2088102804D0112831
:10D7100007D050280FD109E02146284604F07EF9B1
:10D720000AE02146284604F059FA05E02146284639
:10D7300004F0C4FA00E000BF00BF00BFE3E7000050
:10D7400037B584B004460D46002C02D10E2007B038
:10D7500030BD60880F49884202D0207F002801D167
:10D760000820F4E76846008B142801DD0720EEE767
:10D7700000200090019002900390E18868460180AB
:10D78000039506A802900121684681706088694669
:10D79000A6DFDCE7FFFF000037B584B004460D4686
:10D7A000002C02D10E2007B030BD60880F4988429E
:10D7B00002D0207F002801D10820F4E76846008BC2
:10D7C000142801DD0720EEE7002000900190029070
:10D7D0000390E18868460180039506A80290012124
:10D7E0006846817060886946A6DFDCE7FFFF0000BD
:10D7F000FEB505460C46174620880930B84201D9C7
:10D800000C20FEBD684671DF064600BF002E01D029
:10D810003046F6E700BF0820218868542088401C65
:10D8200020801B20218868542088401C208021886B
:10D830004819062200A90131FDF7CCFC2088801D83
:10D84000208068460078002802D12188685402E0D0
:10D850000120218868542088401C20800020D0E7C7
:10D8600070B586B004460E46002C04D0002E02D0BF
:10D870007068002802D10E2006B070BD0020C043A1
:10D880002080254B0FCB01AD0FC524486946888207
:10D89000163101A863DF054600BF002D01D02846E0
:10D8A000EAE700BF221D05A90120A0DF054600BF51
:10D8B000002D01D02846DFE700BF6846807DA071BB
:10D8C000204601F05DFF054600BF002D01D028462F
:10D8D000D2E700BF204601F0E3FE054600BF002D61
:10D8E00001D02846C8E700BF3146204601F0B2FF0C
:10D8F000054600BF002D01D02846BDE700BF706877
:10D90000A062B068002801D0B068E062012004493C
:10D9100008700020B0E700008C39020030150000CC
:10D920007020002070B505460C46002D01D0002C5B
:10D9300000D170BDA86A00281FD02088102806D00A
:10D9400011280ED0502807D0512814D10EE02146BE
:10D95000284604F041F80FE02146284604F069F912
:10D960000AE02146284604F013F905E0214628463E
:10D9700004F03CF900E000BF00BF00BFD9E70000A1
:10D9800070B586B004460D461646002C02D10E2016
:10D9900006B070BD20881A49884203D01948007823
:10D9A000002801D10820F3E70021019110216846E9
:10D9B0008288501C83B21448019381546846818840
:10D9C000481C82B210480192455468468188481C20
:10D9D00082B20D48019246540020029003900490B8
:10D9E0000590218A6846018101218172002181818F
:10D9F00001A8049004480590208802A9A6DFC7E783
:10DA0000FFFF0000702000207120002010B50446A8
:10DA1000204602F045F82046FFF70CFE204600F0B5
:10DA200043F9204603F08EFF2046FFF7DBFA21463C
:10DA30000548FFF761FE21460448FFF773FF2146C2
:10DA40000348FFF797FD10BD90210020B021002072
:10DA500078210020F8B505460E460024327821468C
:10DA6000641C6A5472782146641C6A5400BF022CFC
:10DA700001D1012000E000200746002F03D100BFA4
:10DA8000FEF720FF00BF00BF2046F8BD70B586B08E
:10DA900033480068059000BF00234822314905A89B
:10DAA00004F0F6FF054600BF2E46002E04D000BF4E
:10DAB0003046FEF707FF00BF00BF00BF6A460121E6
:10DAC000002004F0C3FF044600BF2546002D04D00B
:10DAD00000BF2846FEF7F6FE00BF00BF01216846E2
:10DAE00001730221018000BF1F4E304604F022FE68
:10DAF000044600BF2546002D04D000BF2846FEF78F
:10DB0000E1FE00BF00BF00BF684604F091FF04467D
:10DB100000BF2546002D04D000BF2846FEF7D2FEE8
:10DB200000BF00BF114804F075FF044600BF254642
:10DB3000002D04D000BF2846FEF7C4FE00BF00BF82
:10DB40000B4804F0DBFF044600BF2546002D04D03F
:10DB500000BF2846FEF7B6FE00BF00BF06B070BD8E
:10DB60008839020058250020E81F00200DDA010046
:10DB7000E92F02007CB50446A1786A460D4804F0FE
:10DB800085F90546002D13D161781C2251430A4ABC
:10DB900088181C231A46694604F0CCFA0748807A94
:10DBA000800007490A58214668469047054600BF4D
:10DBB0007CBD0000E42000205C280020A828002074
:10DBC000D4390200F8B506460820009001236A46C1
:10DBD0001E493046AADF04461D4800688047B12030
:10DBE00044DF044600BF2546002D04D000BF284670
:10DBF000FEF768FE00BF00BF11DF044600BF2546E8
:10DC0000002D04D000BF2846FEF75CFE00BF00BF19
:10DC10001049486913DF044600BF2546002D04D093
:10DC200000BF2846FEF74EFE00BF00BF304601F0A1
:10DC3000B1FC162001218140074A116000BF03F0AA
:10DC400057F90449486900F009F8F8BDD4250020C7
:10DC5000782000200010001080E200E010B504469B
:10DC60002046FDF737FA10BD70B505460C46002674
:10DC70000B480560002C09D0204604F055FF0646ED
:10DC800000BF002E01D0304670BD00BF05480068BF
:10DC9000002802D1FEF721FD06463046F4E70000D9
:10DCA000A0200020A420002070B505462888102858
:10DCB00002D0112832D118E01A48006800280ED18D
:10DCC00000F0E4FF044600BF002C07D016480068AF
:10DCD000002803D0204614490968884700BF11482E
:10DCE0000068401C0F49086019E00E480068401E9B
:10DCF0000C4908600846006800280ED1FEF7EDFCCC
:10DD0000044600BF002C07D007480068002803D055
:10DD1000204605490968884700BF00E000BF00BFF2
:10DD200070BD0000A4200020A020002010B503201A
:10DD300000F040FC044600BF002C03D0062C01D0AC
:10DD4000204610BD00BF0020FBE70000F3B581B006
:10DD500006460025002400E0641C022C04D2A0002A
:10DD600029490858B042F7D1022C42D20298002823
:10DD700025D0012802D002283AD133E060002018D3
:10DD800022490D5C600020184018407800280ED011
:10DD90001F4800681422504301461E4A1E4800686E
:10DDA000FEF756FE0746002F01D11A4806706000A4
:10DDB00020181649401880781849085518E0164868
:10DDC0000068FEF773FE1548005D610061180F4A98
:10DDD00089188978884204D16000201811464018BB
:10DDE000857805E06000201808494018457800BF94
:10DDF00000BF002D07D00A480068002803D028463D
:10DE0000074909688847FEBDA83902009420002010
:10DE1000842000209A200020A43902009B200020AA
:10DE20009020002010B50246022A0FD2094B1B6930
:10DE3000D8439300084CE45C0123A3400340002B2B
:10DE400001D0012300E000230B7001E000200870E6
:10DE5000002010BD00050050A839020070B505462D
:10DE60000A2D0AD004DC042D0AD0072D3DD119E07B
:10DE70000D2D27D00E2D38D12CE004F097FD35E084
:10DE800013211B48008876DF0446082C09D000BF08
:10DE90002646002E04D000BF3046FEF713FD00BF1B
:10DEA00000BF23E0FFF756F90446082C09D000BF55
:10DEB0002646002E04D000BF3046FEF703FD00BF0B
:10DEC00000BF13E011200B49087001220A48FFF738
:10DED00037FC0BE0022001F06DF9F12005490870D4
:10DEE00001220548FFF72CFC00E000BF00BF70BD19
:10DEF00022200020582000209021002030B5034629
:10DF00000020022B24D2012A07D1012903D11C466B
:10DF10000D34E4B200E00024224600290FD001298C
:10DF200002D0022911D104E05C001C19094D2A55C8
:10DF30000DE05C001C19074D6419627007E05C007D
:10DF40001C19044D6419A27001E0072000BF00E015
:10DF5000072030BD9420002070B5044600250648F7
:10DF60000078C007C00F002803D0204600F070F8EA
:10DF70000546284670BD000088200020F7B50546FC
:10DF80000E46002427480660274805602749029866
:10DF9000086002202840002822D0002706E0012245
:10DFA00011463846FFF7AAFF04467F1C022F01D214
:10DFB000002CF4D0002C05D1720802211C48FEF779
:10DFC0001BFC0446002C02D1FEF700FC0446002C8A
:10DFD00005D1184A00211848FEF7BCFC044600BFD2
:10DFE000E807C00F00280AD000BF0320000613492D
:10DFF00088600020C86000BF032000068861002CF4
:10E0000005D10F4A00210F48FEF7A4FC0446002C5E
:10E0100005D10D4A01210D48FEF79CFC044620461F
:10E02000FEBD0000842000208820002090200020D9
:10E03000B039020011E60100A439020000050050C9
:10E04000AD1102009C390200A9C70100A0390200ED
:10E05000F8B50446002500262300FDF7CAFD180D7B
:10E060001E1F68B1F9F8F7F6F5F4F3F2F1F0EFEEF0
:10E07000EDECEBEAE9E8E7E600BFF74801680320CA
:10E0800000068843032109060840F44988600020FF
:10E09000C86000BFF24804707EE200BF00BFEE48D7
:10E0A0000168012040068843032109060840EB4926
:10E0B00088600020C86000BF084640680321090648
:10E0C000484001210906084000280FD000BF08463B
:10E0D000E24988600020C86000BF022C02D1E12024
:10E0E000C00001E07D20400106460EE000BF012097
:10E0F0000006DA49C8600020886000BF022C01D108
:10E10000C82001E0FF2091300646D5480470642104
:10E110003046FDF735F8D3490968484307460022E1
:10E120003946D1480068FEF793FC054634E200BF4B
:10E13000C9480168012040068843032109060840B8
:10E14000C64988600020C86000BF084640680321B7
:10E150000906484001210906084000280FD000BFE9
:10E160000846BE4988600020C86000BF032C02D169
:10E170001920400101E07D20400106460EE000BF6D
:10E1800001200006B549C8600020886000BF032C4C
:10E1900001D1C82001E0FF2091300646B04804704C
:10E1A00064213046FCF7ECFFAE4909684843074656
:10E1B00000223946AC480068FEF74AFC0546EBE110
:10E1C00000BFA548016801204006884303210906D5
:10E1D0000840A24988600020C86000BF0846406827
:10E1E00003210906484001210906084000280FD0F4
:10E1F00000BF0846994988600020C86000BF042C11
:10E2000002D17D20400101E07D204001064623E04F
:10E2100000BF012000069149C8600020886000BF4F
:10E22000042C16D1FF20913015E0B4E1A8E1A6E15D
:10E2300095E182E16FE163E127E125E123E121E15D
:10E240001FE113E1F0E0D9E0C0E0A9E090E05DE07B
:10E2500014E0FF2091300646814804706421304666
:10E26000FCF78EFF7F49096848430746002239467C
:10E270007D480068FEF7ECFB05468DE100BF76485F
:10E2800001680120400688430321090608407349BC
:10E2900088600020C86000BF084640680321090666
:10E2A000484001210906084000280ED000BF08465A
:10E2B0006A4988600020C86000BF052C01D1C820D1
:10E2C00001E07D20400106460EE000BF012000066F
:10E2D0006249C8600020886000BF052C01D1C820B9
:10E2E00001E0FF20913006465D480470642130460D
:10E2F000FCF746FF5B490968484307460022394658
:10E3000059480068FEF7A4FB054645E100BF5248A6
:10E3100001680120400688430321090608404F494F
:10E3200088600020C86000BF0846406803210906D5
:10E330004840012109060840002806D000BF0846D1
:10E34000464988600020C86007E000BF0120000641
:10E350004249C8600020886000BF414804704148BD
:10E360000022016840480068FEF772FB054613E191
:10E3700000BF39480168012040068843032109068F
:10E380000840364988600020C86000BF00BF0120F7
:10E390000006C8600020886000BF31480470FBE0C0
:10E3A00000BF2E4948680121490681432B4A9160EC
:10E3B000012149060140D16000BF2A4800220168BE
:10E3C00029480068FEF744FB0546E5E000BF234905
:10E3D0004868012149068143204A9160012149068C
:10E3E0000140D16000BF1F480068820081180022F0
:10E3F0001D480068FEF72CFB0546CDE000BF17491D
:10E400004868012149068143144A91600121490667
:10E410000140D16000BF1348002201681248006823
:10E42000FEF716FB0546B7E000BF0C49486801211E
:10E4300049068143094A9160012149060140D160A2
:10E4400000BF084800688200811800220648006862
:10E45000FEF7FEFA05469FE08C20002000050050E4
:10E4600080200020842000209C39020000BF03206F
:10E4700000064B49C8600020886000BF494804700E
:10E480008AE000BF00BF00BF00BF47480068FEF73A
:10E490000DFB05461120061B002E23D0002D21D197
:10E4A0000120400641490860012E10D9C82171435E
:10E4B00008466421FCF764FE3D4909684843074665
:10E4C0000022394638480068FEF7C2FA054600BF08
:10E4D000364800680321090608403149C860002019
:10E4E00088600CE000BF314800680321090608403D
:10E4F0002B4988600020C86000BF2C4908604BE0B1
:10E5000000BF03200006264988600020C86000BFC5
:10E510002448047040E000BF012040062049886084
:10E520000020C86000BF00BF01200006C8600020B6
:10E53000886000BF1B4804702EE000BF0120000669
:10E54000174988600020C86000BF00BF0120400656
:10E55000C8600020886000BF124804701CE000BF43
:10E5600000200F498860C86000BF00BF032000067C
:10E57000C8600020886000BF0A4804700CE000BF3B
:10E5800000BF032000060649C8600020886000BF65
:10E590000448047000E000BF00BF2846F8BD00003A
:10E5A0000005005080200020A03902008C200020AF
:10E5B0008420002070B50246002021E08400124D26
:10E5C0002C59A400114D6419216801248440144081
:10E5D000002C01D0032400E00024234603252D0451
:10E5E0000C46AC4321461C0421430524240707257F
:10E5F0002D0264198500044E7559AD006151401C0F
:10E600000228DBD3002070BDA839020000070050AB
:10E6100010B5044620780221FFF798FB10BD0000DA
:10E62000F8B50546234A24490320FFF7A7FC044612
:10E6300000BF2646002E04D000BF3046FEF742F948
:10E6400000BF00BF0D2201210020FFF757FC044648
:10E6500000BF2646002E04D000BF3046FEF732F938
:10E6600000BF00BF0E2202210020FFF747FC044636
:10E6700000BF2646002E04D000BF3046FEF722F928
:10E6800000BF00BF69460020FFF7EEFA044600BF56
:10E690002646002E04D000BF3046FEF713F900BF17
:10E6A00000BF68460078022801D1012000E0002068
:10E6B0002870F8BD5DDE0100CD0C00000021C943CB
:10E6C0008200054B9950042804DB0B46011F024AC7
:10E6D0004032535470470000CC2800200146880087
:10E6E000014A105870470000CC280020F7B585B0CB
:10E6F0000B460020C0430490002A01D0002000E017
:10E7000004200390002A01D0042000E00820029099
:10E7100003991EE08800124C2058401C002817D195
:10E720000846059C0093019246B20D4D20352E55AA
:10E7300085000B4E009B7351019A002A04D166B2EA
:10E74000051F074F40377E5500BF48B2049003E0D5
:10E75000491C02988142DDD300BF049808B0F0BD87
:10E76000CC2800200146014840567047EC28002084
:10E77000F0B587B03E480078142148433C49091D54
:10E780004418E7680C21A06848433A4940180089BA
:10E7900006900C21A06848433649401840890590EE
:10E7A0000C21A0684843334940184068049003F0A6
:10E7B00077FC014602903846FCF7E2FC002901D1C3
:10E7C000012000E000200390059906984843049931
:10E7D00046186088C019A18845180020264908609D
:10E7E0000398002804D003F05BFC618888420AD0BB
:10E7F0000398002804D0B54202D1A088002802D096
:10E80000A06803280CD103F04BFC01460290384667
:10E81000FCF7B6FC19490860032004F0F1F824E085
:10E8200003F03EFC0190A188C8190199FCF7A8FCEF
:10E8300088081349086003F033FC0146019028461C
:10E84000FCF79EFC002901D1012000E0002002908D
:10E85000B54206D00298002803D1B1B2A8B204F0A4
:10E86000DDFB022004F0CCF800BF07B0F0BD0000D3
:10E8700030290020FC290020082100200C21002044
:10E880000421002010B508480078142148430649A7
:10E89000091D44182078042802D000F0A5F801E0F2
:10E8A00004F030FB10BD00003029002010B50F48E7
:10E8B0000078142148430D49091D441860880C490B
:10E8C00008602078012804D0032805D0042809D145
:10E8D00005E004F017FB06E0FFF74AFF03E004F051
:10E8E0001AFF00E000BF00BF10BD0000302900206B
:10E8F0001821002010B503484078002801D0FFF708
:10E90000D5FF10BD302900200023142141430C4ABB
:10E9100053541421414389184B800223142141434D
:10E9200089188B600023142141438918CB6014217E
:10E93000414389180B611421414389188B8070472A
:10E9400034290020FFB581B0064617461C484078A0
:10E950000A2830D01A4800781949497844180A2CF6
:10E9600000D30A3C142060431549091D0E5414209D
:10E97000604340180761142060434118029805C89D
:10E98000CA608860142161430D4A121D89180498D9
:10E9900048801421614389180A988880101F4078A4
:10E9A000401C111F487007480078002801D1FFF76C
:10E9B0007DFF002500E00425284605B0F0BD0000DD
:10E9C000302900200021002010B5002005490870E2
:10E9D0004870002403E02046FFF796FF641C0A2CD1
:10E9E000F9D310BD3029002010B508480078142252
:10E9F0005043064A121D81180020FDF781FF00F0E8
:10EA000007F8002003F0FCFF10BD000030290020B3
:10EA100010B509490878FFF777FF07484078401E8E
:10EA20000549487008460078401CC0B208700A28A2
:10EA300001D10020087010BD30290020FEB51F480C
:10EA40000068002836D01D480068056803F0CAFD3C
:10EA500001901B4804682146019804F00BFBC61C7A
:10EA600018480078002801D103F0CEFDAE4201D253
:10EA7000284600E0304604192402240A204603F008
:10EA8000ABFD03F0AFFD00900199009804F0F2FA9D
:10EA9000C71C2046019904F0EDFA874209D903F01A
:10EAA000A1FD074603F098FD2F20FCF73DFB04F085
:10EAB0003BFC01E003F0C6FDFEBD00003C21002050
:10EAC000402100205421002001460888062808DB48
:10EAD00008881922D201904205DD0888104A904228
:10EAE00001D0072070474888062808DB488819228B
:10EAF000D201904205DD4888094A904201D00720A2
:10EB0000F0E70888064A904208D04888904205D02D
:10EB100008884A88904201DD0720E3E70020E1E70A
:10EB2000FFFF0000FFB581B006460D461446208861
:10EB3000801D0499884202D90C2005B0F0BD3046F2
:10EB4000FFF7C2FF074600BF002F01D03846F4E7A9
:10EB500000BF0520218868542088401C2080122096
:10EB6000218868542088401C2080228851193088D0
:10EB700004F0C8FD2188401820802288511970882F
:10EB800004F0C0FD2188401820800020D5E710B592
:10EB9000044600BF2046FDF795FE00BF10BD0000F3
:10EBA00030B587B01C216846FCF72DFB0020009093
:10EBB0000520C00301900F20000402900321684645
:10EBC00001730021C181017409480590094806902C
:10EBD0006846FEF7F3FC044600BF2546002D04D02E
:10EBE00000BF2846FDF76EFE00BF00BF07B030BD76
:10EBF000911902008FEB010038B51F4802F0B6F9F9
:10EC0000002829D11D48007800280AD01C484069F6
:10EC1000002820D0002000901948416968468847A4
:10EC200019E018480078002802D11548456801E02D
:10EC3000134885680022294613480068FDF708FF3D
:10EC40000446002C07D00E488069002803D00C48E9
:10EC50008169204688470AE009484069002806D0B3
:10EC600001200090064841696846884700BF00209F
:10EC70000249087038BD0000D8200020E0200020A4
:10EC800040270020D4200020C03902000020704717
:10EC900070B503460C460820002115E00C254D43B5
:10ECA0000B4EAD19AD7A2540002D0CD0094DAB426D
:10ECB00005D00C254D43AD192D899D4202D111601F
:10ECC000002003E00520491C0029E7D000BF70BDEB
:10ECD0009C280020FFFF000010B5044601210C20F5
:10ECE00060430A4A80188172891E0C206043801894
:10ECF0000181FF210C2060438018C1720C21614307
:10ED000088180721FCF77FFA10BD00009C2800201E
:10ED100010B500BFEFF30580C105C90D00291FD054
:10ED20000A46103A50B200280CDA0E4B0407240FA2
:10ED3000083CA408A4001B598407E40EE3401B060A
:10ED40009B0F0BE0084B032424021B198408A4002A
:10ED50001B598407E40EE3401B069B0FD8B210BD7D
:10ED60000420FCE71CED00E000E100E070B5054682
:10ED70000C461646207831283ED00CDC12287DD077
:10ED800004DC01287BD011287AD153E0212878D0E7
:10ED90002228F9D14DE142281BD004DC322836D09C
:10EDA0004128F1D15CE151286CD05228ECD1CB48FC
:10EDB0000021016041608160C160A378E2786078E1
:10EDC000C64903F0D9FFE278C449C548FEF7E4FC20
:10EDD00082E1C2480021016041608160C16004227B
:10EDE000C049401CFCF7F6F94220BC4908700522D6
:10EDF000BB48FEF7A5FC6FE10422611CBA48FCF792
:10EE0000E9F905222146B648FEF79AFC64E1B348C9
:10EE10000021016041608160C1600422B249401C50
:10EE2000FCF7D8F93220AD4908700522AC48FEF74E
:10EE300087FC51E1AD480021016041608160C16003
:10EE4000014662780A70A0784870084640784028E9
:10EE500003DB4020487000200870A4484078002858
:10EE600008D1A2480078202804DC00209F4948707F
:10EE700020200870082304229C4904E019E010E1D6
:10EE800022E130E0F7E0002003F0DCFF93480021AE
:10EE9000016041608160C16094490A78427049789C
:10EEA000817011208D49087003228D48FEF748FCBF
:10EEB00012E18A480021016041608160C16008233D
:10EEC00004220146002003F057FF8448407883491C
:10EED0008870084600784870122008700322804825
:10EEE000FEF72EFCF8E0814800210160416081605E
:10EEF000C1600146607808700846007840B227215A
:10EF0000C943884203DCD820784908707AE0774802
:10EF1000007840B22721C94388420ADD734800784F
:10EF200040B21D21C943884203DCE2206F490870CA
:10EF300068E06E48007840B21D21C94388420ADD6E
:10EF40006A48007840B21321C943884203DCEC20B0
:10EF50006649087056E06548007840B21321C943FD
:10EF6000884209DD6148007840B2091D884203DC0F
:10EF7000F0205E49087045E05C48007840B20F21FF
:10EF8000C943884209DD5948007840B2091D8842CA
:10EF900003DCF4205549087034E05448007840B24E
:10EFA0000B21C943884209DD5048007840B2091D51
:10EFB000884203DCF8204D49087023E04B48007874
:10EFC00040B20721C943884209DD4848007840B271
:10EFD0004910884203DCFC204449087012E0434891
:10EFE000007840B20321C943884208DD3F480078D9
:10EFF00040B2002803DC00203C49087002E00420F5
:10F000003A49087004231A463849002003F01AFFD1
:10F0100032480021016041608160C1603349097854
:10F02000417021202D49087002222D48FEF788FBEF
:10F0300052E02A480021016041608160C1600423E0
:10F040001A460146002003F097FE24480078234921
:10F0500048702220087002222148FEF771FB3BE035
:10F060000422611C1F48FCF7B5F8052221461C4804
:10F07000FEF766FB30E01D480021016041608160C1
:10F08000C160E278211DFCF7A5F8A378E2786078EA
:10F09000164903F0D7FEE27814491148FEF750FBF9
:10F0A0001AE00E480021016041608160C1600322C6
:10F0B0000F49401CFCF78EF8012008490870042213
:10F0C0000748FEF73DFB07E020780A490870022256
:10F0D0000348FEF735FB00BF00BF70BD3825002098
:10F0E000902100204C2000205020002048250020A6
:10F0F000462000204920002010B51C480068082147
:10F10000084000282FD11A480068401C18490860A0
:10F1100018480068002803D0042003F05BFF24E0B7
:10F1200001F088FF002803D0022003F053FF1CE009
:10F1300011480068002813D00C480078C007C00FA1
:10F14000002809D1094800680121084307490860DF
:10F15000002003F03FFF08E0032003F03BFF04E042
:10F1600003F00CFF01E003F019FF10BD1C2100208B
:10F170000C210020042100200821002010B50C489B
:10F1800000680821084000280FD1094800680221C2
:10F190000840002805D006480068012108430449BA
:10F1A0000860022003F016FF01E003F0F7FE10BD37
:10F1B0001C21002010B50446012C08D0022C0DD1D2
:10F1C000002320220649184603F03CFE06E00023F7
:10F1D00020220349184603F007FE00BF00BF10BD00
:10F1E00000200020F8B5002535E0E8001C4909683A
:10F1F000441821780120884006461A4800683040AB
:10F20000002826D017480068B043164908602078C7
:10F2100002F0BCFA074621780120884012490968AB
:10F220000840227839469140884211D160780128FF
:10F2300000D100E000207840012148400090606843
:10F24000002804D0009BD9B220786268904700BFA4
:10F2500000BF681CC5B2054800788542C5DBF8BD13
:10F2600020210020302100202C21002024210020FA
:10F27000FEB504460E46A1786A46284802F006FE0E
:10F280000546002D49D160780C2148432449401897
:10F29000807A40210840402801D0022E01D1214F20
:10F2A00004E0012E01D1204F00E0204FA0781C2265
:10F2B00050431F4A811800231C226846B847054660
:10F2C000002D1AD1022E18D060780C214843144921
:10F2D0004018807A4021884361780C225143104ABB
:10F2E0008918887260781C225043124A81181C23A6
:10F2F0001A466846B847054600BF022E0DD0207852
:10F300000C2148430C494018807A80000B490A5868
:10F31000214668469047054600BFFEBDE420002018
:10F320009C2800207D24020051230200E12D0200D0
:10F33000982700205C280020A8280020C43902005B
:10F34000F8B505460E461B4F00242EE01C206043F6
:10F3500019494018807EFF2826D13078022814D021
:10F360001C2060434018807E022188431C21614399
:10F37000114A891888761C21614389180846103083
:10F3800007223146FBF726FF0BE01C2060430A49A9
:10F390004018807E410849001C206043064A8018BE
:10F3A00081762C70002702E0641C072CCED300BFAE
:10F3B0003846F8BD4380000098270020F8B5054680
:10F3C0000E4617460520009000241BE0002D06D1B4
:10F3D0001C2060430E494018008BB8420DD0002D10
:10F3E0000FD01C2161430A4A8918084610300722B1
:10F3F0002946FBF713FF002803D13460002000905A
:10F4000002E0641C072CE1D300BF0098F8BD0000A7
:10F41000982700207CB50546A9B26A46084802F044
:10F4200035FD0446002C09D17421684602F098FD90
:10F430000446002C02D1284602F0A0FC20467CBDE8
:10F44000E4200020F8B506460F46144600BF2546C6
:10F45000002D04D000BF2846FDF734FA00BF00BFDE
:10F460000020F8BD7FB50546039502F01FFE044657
:10F4700000BF2646002E04D000BF3046FDF722FA1A
:10F4800000BF00BF03A800F0E5FE044600BF26460B
:10F49000002E04D000BF3046FDF714FA00BF00BFB5
:10F4A000052101A80130FBF7AEFE6846407941080E
:10F4B0004900491C68464171407902218843014650
:10F4C000684641714079042188430146684641718C
:10F4D000407908218843014668464171407970218E
:10F4E0008843014630316846417140798021884324
:10F4F000014668464171072181711021C1710A4896
:10F5000000900121684601716946084801F0AAF897
:10F51000044600BF2646002E04D000BF3046FDF74B
:10F52000D1F900BF00BF7FBD45F4010020200020BD
:10F5300031B50849684600F087FA044600BF254601
:10F54000002D04D000BF2846FDF7BCF900BF00BF66
:10F5500038BD00007C200020F8B504460D46287810
:10F56000002803D12088FEF72DFB10E003220121A3
:10F570002046FEF705FA064600BF3746002F04D0A6
:10F5800000BF3846FDF79EF900BF00BF00BF00BFB7
:10F59000F8BD000070B58AB00646002003903A49D5
:10F5A000304600F013FE0446002C6BD104A9364807
:10F5B00000F098FD0446002C48D100BF2546002DE0
:10F5C00004D000BF2846FDF77DF900BF00BF0898B2
:10F5D0000146103107222D48FBF7FCFD10222B4875
:10F5E000C01D0899FBF7F6FD112228481830049930
:10F5F000FBF7F0FD0498014612310A2223482A3015
:10F60000FBF7E8FD214800DF044600BF2546002D3A
:10F6100004D000BF2846FDF755F900BF00BF012008
:10F6200003900420019003A80290002000906946F6
:10F63000154800F07BF9044600BF2546002D04D094
:10F6400000BF2846FDF73EF900BF1BE00F490E48FA
:10F6500000F084FE044600BF2546002D04D000BF04
:10F660002846FDF72FF900BF00BF084800DF044619
:10F6700000BF2546002D04D000BF2846FDF722F923
:10F6800000BF00BF0AB070BD7C200020A025002074
:10F690007047000001490860704700007820002092
:10F6A00010B58EB004461C2107A8FBF7ACFD6846D8
:10F6B000007F08218843411868460177007F1021A8
:10F6C0008843411868460177002008900A900B9003
:10F6D0000C900D90A17968468171284981800020A5
:10F6E000009000BF68460078010909016846017072
:10F6F0000078F02188436946087000BF00BF684663
:10F70000407801090901491C684641704078F021A0
:10F71000884310306946487000BF684680780621EB
:10F720008843811C6846817080780821884301469F
:10F73000684681708078102188434118684681703E
:10F74000807841084900491C68468170142102A84C
:10F75000FBF759FD01A80290684603900021018241
:10F7600041821721818200200690A0882346103311
:10F7700002AA07A9A2DF0EB010BD000031150000DB
:10F7800010B58EB004461C2107A8FBF73CFD684667
:10F79000007F04218843011D6846017700200890FE
:10F7A0000A900B900C900D90A179684681712849C0
:10F7B00081800020009000BF68460078010909019F
:10F7C000684601700078F02188436946087000BFE0
:10F7D00000BF6846407801090901491C684641702C
:10F7E0004078F021884310306946487000BF684671
:10F7F000807806218843811C6846817080780821C2
:10F80000884301466846817080781021884301460C
:10F8100068468170807841084900491C68468170BB
:10F82000142102A8FBF7EFFC01A8029068460390A0
:10F830000021018241821421818200200690A0884B
:10F840002346083302AA07A9A2DF0EB010BD0000AC
:10F850003215000030B58FB004460D461C2108A8B3
:10F86000FBF7D1FC08A8007802218843811C08A876
:10F870000170002009900B900C900D900E90A179D2
:10F8800068468172284901810020019000BF6846C6
:10F89000007901090901491C684601710079F021CC
:10F8A000884310306946087100BF00BF6846407940
:10F8B00001090901684641714079F0218843694690
:10F8C000487100BF6846807906218843811C6846DC
:10F8D0008171807908218843014668468171807969
:10F8E00010218843014668468171807941084900AA
:10F8F000491C68468171142103A8FBF784FC02A807
:10F90000039001A804900221684681820021C182EF
:10F91000022101830795A0882346203303AA08A962
:10F92000A2DF0FB030BD000034150000FEB5044664
:10F930000D4600BF3B480078002801D13A48FEBD83
:10F9400000BF002C02D13848801DF8E7002D02D1FD
:10F950003548801DF3E7A868002802D13248801D91
:10F96000EDE700BF2078012806DA20780C21484313
:10F970002E490858002801D12B48E0E700BF00BFFE
:10F98000A078072807DAA0781C21484328494018A6
:10F99000807EFF2802D124480830D0E700BF00BF96
:10F9A00060780C21484323494018807A0821084098
:10F9B000082801D01C48C2E700BF6868042801D2AB
:10F9C0000720BCE71C4FA1786A461C4802F05EFA8B
:10F9D0000646002E23D160230422694602A802F0C5
:10F9E000A9FB0646002E04D10298401C002800D036
:10F9F000134F60230422291D6846B8470646002E8F
:10FA00000DD1642310226846A96802F037FD06462E
:10FA1000002E04D1A17889000A4AA86850503046C7
:10FA20008DE70000F020002008800000A8280020BA
:10FA3000982700209C28002051230200E420002069
:10FA40007D2402007C270020024600BF1148007878
:10FA5000002801D11048704700BF002902D10E488C
:10FA6000801DF8E7002A02D10B48801DF3E700BF94
:10FA70001078012806DA10780C235843074B1858E1
:10FA8000002801D10448E6E700BF10780870002084
:10FA9000E1E70000F020002008800000A8280020F6
:10FAA000F0B591B00446FF200F9000260020099089
:10FAB00000BFF8480078002801D111B0F0BD00BFA8
:10FAC00000BFF5480068002800D1F6E700BF0EA887
:10FAD00000F0B2FB054600BF2F46002F04D000BF48
:10FAE0003846FCF7EFFE00BF00BF00200A9000255B
:10FAF000201D0C902C2168468186FF2108A8817664
:10FB000000210176002010902088102813D0A088B2
:10FB100010AA0221FFF7BCF80546002D0BD10C21DD
:10FB200010984843DD494018C17A08A8817610989A
:10FB3000C1B208A84176208819287DD008DC102899
:10FB40000DD011287ED0132878D0142877D1B7E0B3
:10FB50001A2875D01E2874D05228F7D189E210AF28
:10FB60003A460121CE48FFF793F8089008980028FC
:10FB700007D102210C2238685043C84A801881728C
:10FB800001E00420089008980546002D53D1012675
:10FB9000112108A801731098C1B208A84176A18864
:10FBA0000C2210985043BD4A8018018102210C227A
:10FBB00010985043B94A801881720C221099514311
:10FBC000B64A8818072221460831FBF703FBE07D7F
:10FBD000304000280AD0E07D4008B249085CFF2888
:10FBE0000BD0E07D4008085C0F9006E0AC4A0FA9FE
:10FBF00020460830FFF7E2FB0546002D1BD10F9889
:10FC0000C1B20C2210985043A44A8018C1720C2132
:10FC10001098484311464018807A082108430C2266
:10FC2000109951439D4A8918887208A90F988876BF
:10FC30000EA8FDF79FFF2BE2FCE003E085E026E243
:10FC4000B4E11FE20C211098484394494018807A8F
:10FC5000022188430C2210995143904A89188872D6
:10FC60000C211098484311464018807A082108401A
:10FC700008280ED10C211098484311464018807A6C
:10FC80008021084080280FD100210EA8FFF7F0FA4C
:10FC90000AE008A8807EFF2806D008A9887E02F026
:10FCA0006DF8FF2008A9887610210C221098504387
:10FCB0007A4A801881720126122008A90873E7E1A8
:10FCC0000C211098484375494018C07AFF2823D169
:10FCD000228A0FA90020FFF771FB0546002D1BD1DA
:10FCE0000F98C1B20C22109850436C4A8018C17210
:10FCF0000C211098484311464018807A0821084387
:10FD00000C2210995143654A8918887208A90F98E6
:10FD100088760EA8FDF72EFF0C21109848435F4906
:10FD20004018C07AFF2805D01C21109848435E492E
:10FD3000401809901C23109959435C4BCA18A0889D
:10FD40000023099986DF0546A2E1132008A908735C
:10FD50000C211098484351494018807A04210843E7
:10FD60000C22109951434D4A8918887201260C21A2
:10FD70001098484311464018C07AFF283ED10C2203
:10FD8000109850430A4681180FA8FFF7D9FA054684
:10FD9000002D0BD108A90F9888760F98C1B20C22BC
:10FDA000109850433D4A8018C17201E00A9501261F
:10FDB000002005900C211098484338494018C07A1B
:10FDC0001C214843394941180691002107910891A7
:10FDD0001C2110984843344940180190002002909B
:10FDE00003900490A08801AB2B4A121D00217FDFF5
:10FDF0000546002D01D00A9500261AE00C21109826
:10FE0000484326494018807A402108430C22109923
:10FE10005143224A89188872162008A90873A088BD
:10FE200000231A4685217FDF0546002D01D00A9563
:10FE300000262DE11848407A4008400016494872D3
:10FE40000C211098484315494018807A04218843B2
:10FE50000C2210995143114A89188872142008A95C
:10FE600008730126207A002822D00C2110984843DC
:10FE700011464018807A40210840402809D00C22C1
:10FE800010995143054A8918C87AFFF7C3FA207AB6
:10FE90000A908AE0F0200020A82800209C2800205A
:10FEA000FFFF0000F12000205C28002098270020A0
:10FEB000607A4007C00F002877D008A8807EFF280E
:10FEC00073D00C21109848437F494018807A08214C
:10FED00008430C22109951437B4A89188872607B31
:10FEE0008007C00F00280FD008A8807E1C2148433F
:10FEF00076494018807E4108490008A8807E1C226F
:10FF00005043724A801881760C21109848436E49FC
:10FF10004018C07AFF2848D00C21109848436A49FD
:10FF2000085C022820D00C23109A5A430B46D118A3
:10FF300008AA927E1C235A43644BD21810461030F4
:10FF40000722FBF747F908A8807E1C2148435F4938
:10FF50004018807E0221884308A9897E1C225143D3
:10FF60005A4A891888761CE01C2110984843584941
:10FF70004018418A08A8807E1C225043534A8018AA
:10FF8000018308A8807E1C21484311464018807ECA
:10FF90004108490008A8807E1C2250434B4A801823
:10FFA000817601210EA8FFF763F971E0207A00093C
:10FFB00001283DD1207A0007000F012838D10C21FB
:10FFC0001098484340494018807A08210840082882
:10FFD0002ED12422109951433E4A891808181A211B
:10FFE000FBF711F9162008A908730C211098484353
:10FFF00035494018807A202108430C22109951433A
:020000040002F8
:10000000314A891888720C211098484311464018CB
:10001000807A402108430C22109951432A4A8918BA
:1000200088722D48407A022108432B4948721CE00F
:100030000C211098484324494018807A80210843B5
:100040000C2210995143204A89188872152008A95A
:1000500008732148807A8000204A11580EA88847EA
:100060000546002D01D01E480A9000200A90012666
:100070000EE01948807A8000184A11580EA8884767
:100080000A9005E0132008A90873012600E000BFCC
:1000900000BF002E16D00BA90EA80A9AFCF722FC6E
:1000A00008A8007B12280DD100BF0C2110984843EE
:1000B00005494018807A012802D01098FEF70CFEFE
:1000C00000BF00BF00BFF8E49C2800209827002054
:1000D0005C28002078280020A8280020E4390200AD
:1000E0004180000070B58AB005460C4600BF31481B
:1000F0000078002802D130480AB070BD00BF002D42
:1001000002D12D48801DF7E7002C02D12A48801D1E
:10011000F2E700BF2878012806DA28780C21484346
:1001200026490858002801D12348E5E700BF00BF51
:10013000A878072807DAA8781C21484320494018E6
:10014000807EFF2802D11C480830D5E700BF00BFE1
:100150000020E060A8781C2148431949411821611A
:1001600000216161174860600020A06003A8206042
:10017000A97801AA144801F089FE0646002E17D17D
:100180001C231A4601A903A801F0D4FF0646002E3D
:100190000ED1E060A8781C2148430949411821612B
:1001A00000216161074860600020A06003A8206012
:1001B0003046A1E7F020002008800000A828002099
:1001C00098270020B4280020E420002030B5044601
:1001D000002901D1154830BD00BF0878012806DA92
:1001E00008780C256843124D2858002802D10F4882
:1001F000801FF0E700BFFF208870052300220FE07A
:100200000C2050430B4D40190089A04207D14A7081
:100210000C2050434019C07A8870002302E0521C21
:10022000002AEDD000BF1846D5E700000E80000080
:10023000A82800209C2800200146002901D104485C
:100240007047FF20087048708870C8700020F7E77A
:100250000E8000007FB50646002E02D1374804B05C
:1002600070BD00240FE000BF00210C206043344A21
:1002700011500C206043801841720C20604380189C
:10028000817200BF641C002CEDD0002403E02046E6
:10029000FEF722FD641C002CF9D024212948FAF72E
:1002A000B2FF002406E0204601F068FDFF20264949
:1002B0000855641C072CF6D37421684681810721F8
:1002C000C18122480290224902A801F0B1FF0546EF
:1002D000002D30D101201F4908703078002821D12D
:1002E00000241CE0A1B26A46194801F0CFFD054682
:1002F000002D0FD11C216143174A881800231C22AE
:10030000694601F017FF0546002D07D0002011496E
:10031000087006E000200F49087002E0641C072CFA
:10032000E0D308E06A469089D289504381B20848F8
:1003300001F016FE0546284691E700000E800000F9
:10034000A828002078280020F120002021040200A5
:10035000E4200020F02000209827002070B50446FB
:100360000E4600BF29480078002801D1284870BDFA
:1003700000BF002C02D12648801DF8E7002E02D1D4
:100380002348801DF3E700BF2078012806DA207893
:100390000C2148431F490858002801D11C48E6E7B2
:1003A00000BF1B4DED1EA078FF2817D16078FF28F5
:1003B0002AD060780C21484317494018807A0221DE
:1003C0000840022820D160780C225043124A81183C
:1003D00007223046FAF7FEFE002515E0A0781C2122
:1003E00048430E494018807E0221084000280BD166
:1003F000A0781C225043094A801801461031072278
:100400003046FAF7E7FE00252846B0E7F020002046
:1004100008800000A82800209C28002098270020A1
:10042000FFB593B01D4600BF84480068002801D185
:1004300017B0F0BD00BF1C98742800D9F8E7012060
:1004400009900FA8FFF7F8FE064600BF3746002FB9
:1004500004D000BF3846FCF735FA00BF00BF0021CA
:1004600008A8017710A801700E951C980D90002720
:1004700012E0B9B20AAA724801F008FD0646002E41
:1004800009D108220AA91398FAF7C8FE002802D158
:1004900008A98F7702E07F1C072FEAD300BF08A8C6
:1004A000807FFF2879D0149803280AD11C987428DB
:1004B00003D1202010A908709AE0402010A90870EC
:1004C00096E06049681A1C21FAF75AFE0446072C88
:1004D0001DD20CA811901598002810D108A9887F6A
:1004E00001218140584A12681140002901D00121A0
:1004F00000E00021002902D10020099078E008A93D
:10050000887F03F00DF9202010A9087070E04F4992
:10051000681A1C21FAF734FE0446002C1BD10CA8E3
:100520001190202110A8017008A8447700200590A0
:10053000474906911C20604344494018019008A88F
:10054000807F1C2148433F494018029001A80E902B
:1005500020200D904CE03F49681A2421FAF710FE44
:100560000446002C1AD1302110A8017008A8447745
:100570000121C1770C20604337494018807A02215D
:100580000840022834D008A9497F24225143314A27
:1005900088182421FAF737FE2AE04DE00020099060
:1005A000402010A908702D48854204D103201490E2
:1005B000012009901CE008A8807F80002849085885
:1005C000A84215D1012009900CA8119000200CE040
:1005D00008A98A7F0C2141431F4BC918C97A8A4256
:1005E00002D108AA507702E0401C0028F0D000BFDA
:1005F0000998012820D11498032806D110A9087859
:100600000321084310A908700FE01498022806D1AE
:1006100010A908780121084310A9087005E010A965
:1006200008780221084310A908700CA8119010A99D
:100630000FA8159AFCF756F900BFF9E6A828002084
:10064000E420002098270020EC2000205C280020D7
:10065000B4280020782800209C280020F4390200CB
:100660007C27002070B505460C4600BF294800785D
:10067000002801D1284870BD00BF002D02D12648B6
:10068000801DF8E7002C02D12348801DF3E7206885
:10069000002802D12048801DEDE72048006800288E
:1006A00034D11E49206808600522611D1B48001DC9
:1006B000FAF790FD2079194988720846007A4008B7
:1006C000400008720846007A02218843801C1349C2
:1006D00008720846007A04218843104908720846C7
:1006E000C07940084000401CC8710846C07902210A
:1006F0008843801C0949C8710846C0790421884391
:100700000649C87100202870002601E0024E361FFD
:100710003046B0E7F020002008800000A828002024
:10072000014614480078144A127890421DD01148AE
:100730000078401C0F4A107010460078022801D142
:10074000002010700B48007880000C4A1058086098
:100750000B4A086812688018094A10601046006841
:100760000002000A1060012070470020086000BFEE
:10077000FAE700004C2100204D21002044210020F8
:100780004021002010B50D480068082108400028CD
:1007900010D10B480068401C0949086000F04AFC71
:1007A000002802D1FEF76EF806E00648007802F055
:1007B00027F901E000F00EFE10BD00001C21002012
:1007C0000C21002000210020F0B50346002420E089
:1007D000134E306806689E4203D90668F61A066012
:1007E0001BE006689B1B06683419002606600C4E49
:1007F00035680B4FC6693E60C668002E08D00E19DA
:100800003602360A4660C66886601668C66115609C
:1008100000BF034800680028DAD100BFF0BD000027
:100820003C21002008B5002304226946184602F046
:10083000A3FA68460078FF2803D101200649087012
:1008400002E000200449087003480078002801D025
:10085000012008BD0020FCE74B20002030B50446F5
:100860001088C01C984201D90C2030BD0220158888
:1008700048551088401C1080012015884855108864
:10088000401C108015884C551088401C108000209A
:10089000EBE738B500200090684601F0DFFA044627
:1008A000082C03D0002C01D0012038BD082C07D122
:1008B000684600F071F80446002C01D00020F4E7EF
:1008C0000098002801D00120EFE70020EDE70000AC
:1008D00010B50446002C02D0112C08D100E00AE02B
:1008E00006480068082108430449086003E02046E0
:1008F000FCF71EF800BF00BF10BD00001C21002047
:1009000010B50C480068401C0A49086003280DD047
:1009100009480078022804D00748007802F070F8EF
:1009200007E00648007802F055FB02E00D20FBF7D7
:10093000FFFF10BD10210020002100200121002018
:1009400010B50A480078012804D0022808D00328EE
:1009500009D102E002F0DCFA06E0FFF713FF03E042
:1009600002F02CFB00E000BF00BF10BD0021002002
:1009700070B50446204628DF0546FFF7A9FF70BD85
:10098000F8B504460D46164632462946204629DF6C
:100990000746FFF79DFFF8BD0146002901D103205E
:1009A00070470248406D08600020F9E7342A0020B3
:1009B00030B585B000BF6846007A01090901491CBD
:1009C00002916846007AF02188431030029000BFFF
:1009D000684671DF684683781CA203211D48FBF737
:1009E000DBF86846437819A203211A48801CFBF7FC
:1009F000D3F80B221749C91F02A87CDF044600BFA9
:100A00002546002D04D000BF2846FBF75BFF00BF42
:100A100000BF002003900490502168468181A021EE
:100A2000C18100210182FF219131418203A87ADF37
:100A3000044600BF2546002D04D000BF2846FBF722
:100A400041FF00BF00BF05B030BD00002530325867
:100A500000000000422000200146002070470246AE
:100A6000002070470246002070470000F8B5054698
:100A7000002700200090002668782421484333494D
:100A800040184068002827D068780C214843304936
:100A90004018807A8021084080281DD168780C2178
:100AA00048432B494018807A40210840402813D001
:100AB0006878242148432549401807460837687854
:100AC0002421484321494018808880B200906878EA
:100AD000242148431D490E5869780C2251431C4A71
:100AE0008918088933463946009AA9DF04460B2C39
:100AF0000BD1012669780C225143154A89180889BF
:100B000033463946009AA9DF0446002C00D0114C28
:100B1000012E18D169780C2251430D4A8918088991
:100B20000D4A0C21A7DF0446002C0CD00B48844250
:100B300008D0082C06D0801C844203D0112C01D090
:100B4000002400E0034C2046F8BD00007828002077
:100B50009C28002041800000FFFF000002300000C0
:100B600070B505460C466178242251430D4A881819
:100B700038232422294601F0DDFA0646002E0FD143
:100B8000607824214843074940184068401C0028E9
:100B900006D10021607824225043024A8018416027
:100BA000304670BD78280020F3B589B00C46032785
:100BB0001A20089061780C2251432E4A891808891E
:100BC0003B4608AA01A9AADF0646002E4FD161784C
:100BD00024225143284A89180846083069460A8C5D
:100BE00001A9FAF71BFB002812D160780C214843B9
:100BF00020494018807A02210840022837D06178C5
:100C0000242251431C4A88182421FAF7FCFA2EE0CA
:100C1000607824214843184940184068002801D0D2
:100C2000164D00E0164D60782421484312490F50BC
:100C30006946098C6078242250430F4A801841602D
:100C40006178242251430C4A8918084608306946C5
:100C50000A8C01A9FAF7BEFA607824225043064AAA
:100C60008118382324220998A847064600BF00208F
:100C70000BB0F0BD9C280020782800207D240200C5
:100C80005123020070B505462846FFF7EFFE0446E3
:100C9000002C02D100BF00BF0446204670BD70B5D5
:100CA00005460E4631462846FFF75AFF0446002CFB
:100CB00002D100BF00BF0446204670BD70B5054696
:100CC0000E4631462846FFF76FFF0446002C02D13E
:100CD00000BF00BF0446204670BD000010B501F003
:100CE0004BFE08484478007800020443202C01DCC5
:100CF000202404E001208003844200DB04462046D7
:100D000010BD000040220020F8B505460F46012026
:100D1000A840044618480068FBF7C8FE0646002EA7
:100D200000D0F8BD15480068204000281DD1284695
:100D300000F02CFD002805D0114800682043104920
:100D4000086004E00E480068A0430D4908600B48A5
:100D5000006820430949086000220A4801680648E3
:100D60000068FBF775FE064604E004480068A043EF
:100D70000249086000BFD4E7303A02003021002069
:100D80002C2100202821002010B5184800680821D7
:100D90000840002826D100F0A3F900280CD000203C
:100DA0001349086011480068012108430F49086091
:100DB000002002F00FF917E000F03CF9002806D0FF
:100DC00000200B490860022002F004F90CE00948F9
:100DD0000068002803D0032002F0FCF804E002F0D1
:100DE000CDF801E002F0DAF810BD00001C2100206F
:100DF000042100200821002010B5FFF713FD002872
:100E000002D00120FEF7D6F920210A48FAF7FBF9B3
:100E1000002320220749184601F0AEFF054800795B
:100E2000054988700348007A48700248407A087083
:100E300010BD00002022002040220020F8B52748E5
:100E40000078002800D1F8BD25480068002801D1AD
:100E5000012000E00020054622480068002801D15A
:100E6000012000E00020064600BF002D12D1684698
:100E700052DF0446052C01D101250AE0002C04D0E4
:100E800000BF2046FBF71EFD03E0154900980968E6
:100E9000884700BF002E18D113480088009069468B
:100EA0001248006861DF0446052C01D101260BE0E1
:100EB000002C04D000BF2046FBF704FD04E00B48E3
:100EC000006808490968884700BF002D02D0002E3D
:100ED00000D000E0C9E700BF00BFB4E764210020F4
:100EE00074210020702100206C2100206821002046
:100EF00010B50B490A6800200FE001218140114024
:100F0000002909D041B2CC06E40E0123A340044CD1
:100F10008034236000BF00BF401C2028EDD310BDEB
:100F200000E100E0FEB5044600200090019002219F
:100F3000684601800021418002A80190A18A208892
:100F40006A46A5DF0546002D07D0E06A002802D0DA
:100F50002846E16A88470020FEBD02AE304602F016
:100F6000CBFB0746F807C00F00BFF5E701464888EE
:100F7000064A1288904206DB4888044A528890420A
:100F800001DC012070470020FCE70000CC2000209D
:100F90000C48008CC0B2012812D10A48808C00078E
:100FA000000F00280CD10748806AF0210840402833
:100FB00006D10448C06A0840002801D101207047CA
:100FC0000020FCE7C00F00F01948008CC0B20128D7
:100FD0002CD11748808C0007000F002826D1144818
:100FE000806AF0210840002806D11148C06A0840F4
:100FF000002801D1012070470D48806AF021084087
:10100000102806D10A48C06A0840002801D10120F2
:10101000F1E70748806AF0210840302806D10448EB
:10102000C06A0840002801D10120E4E70020E2E77F
:10103000C00F00F0F8B51248007814214843104959
:10104000091D4518EF6801F02BF800906988C9194F
:10105000AA888918481E0099FAF792F806460948A6
:101060000068B04207D307480068B04205D106487F
:101070000068002801D1012400E000242046F8BDCA
:10108000302900200C210020082100201348008C6A
:10109000C0B201281FD11148808C0007000F002822
:1010A00019D10E48806AF0210840A02806D10B48CB
:1010B000C06A0840002801D1012070470748806AB3
:1010C000F0210840D02806D10448C06A0840002812
:1010D00001D10120F1E70020EFE70000C00F00F090
:1010E000F8B510480078142148430E49091D4518E9
:1010F000EE6800F0D5FF009069888919AA888918E0
:10110000481E0099FAF73CF807460748006800288F
:1011100005D006480068B84201D1012400E000244F
:101120002046F8BD30290020082100200C21002095
:1011300001468807800F002801D101207047002058
:10114000FCE730B504461088C01C984201D90C2039
:1011500030BD0220158848551088401C10801C2086
:10116000158848551088401C1080012C06D0022C90
:1011700008D0032C0AD0042C10D10BE000201588D5
:1011800048550DE001201588485509E002201588D2
:10119000485505E003201588485501E00720D7E7AA
:1011A00000BF1088401C10800020D1E710B5044615
:1011B00005480078C007C00F002803D00348007816
:1011C000FCF746FF10BD0000882000208020002092
:1011D000F8B5214800680090204806782EE0F0001D
:1011E0001F4909684418257824E01820684361687D
:1011F0000F18681CC5B2A078A84200D10025387825
:10120000022802D0032812D103E0786801F0BEFF63
:101210000EE007E010490868002101740E4AC16918
:10122000116000BF0C4800680028F3D100E000BF47
:1012300000BF00BF6078A842D7D100BF3046711E02
:10124000CEB20028CBD1044801680098814201D079
:101250000120F8BD0020FCE73C21002034210020C3
:1012600038210020FEB506463C48006801903C4805
:101270000078009063E00098C0003A49096845187A
:1012800056E0002E02D03446E66924E0297818237F
:1012900059436A6850182978491C29702978AA7816
:1012A000914201D10021297044680178012902D1BD
:1012B000217C002900D03BE081686160C168A160A9
:1012C0000169E1604169A16127490978002901D0DC
:1012D0000021616000BF254960680968401A00026A
:1012E000000A2349884208D220496068096801F051
:1012F000C1FEA168401820600FE01C4861680068CA
:1013000001F0B8FE0746A068B84203D9A068C01B28
:10131000206001E00020206000BF00206060A0602D
:10132000012020740020E061204601F0F9FE00BF9A
:10133000002EA6D1287869788842A2D100BF0098F3
:10134000411EC9B20091002895D104480168019856
:10135000814201D00120FEBD0020FCE73C2100209D
:101360003421002038210020552100204021002078
:10137000FFFF7F0008B500F061FD01F0DBFF68466C
:10138000FDF74EF9FCF782FB68460078FEF76AF835
:101390000A21202000F06AF8FFF72EFDFFF708FB76
:1013A00001F0A4FAFBF79CF9FDF7FAFBFBF7C6FB8B
:1013B0000320FBF711FF044600BF2546002D04D093
:1013C00000BF2846FBF77EFA00BF00BF00BF00F059
:1013D00036FDFCE710B5054800680821884303493D
:1013E00008600348007801F00BFB10BD1C210020B1
:1013F00000210020FFB581B005460E461446A8889E
:10140000871C2088801CC1190498814202D90C20B5
:1014100005B0F0BDFE2F01D90C20F9E7781C21881A
:1014200070542088401C2080FF2021887054208820
:10143000401C208022889119288802F063F92188B5
:1014400040182080A88800280EDDA868002801D157
:101450000720DDE7AA8823889819A968F9F7BAFE5A
:101460002088A988401820800020D1E7FEB50446D6
:101470000D4668468480C580084800900849684643
:1014800000F0D6FE064600BF3746002F04D000BF4E
:101490003846FBF717FA00BF00BFFEBD311F020040
:1014A0005C200020FFB583B005460F46144628781F
:1014B000012805D16878002802D1072007B0F0BDC7
:1014C0002088801C0699884209D82878012808D1EC
:1014D0002088801C697841180698814201D90C2027
:1014E000ECE721880698401A801E86B20196218872
:1014F000891CC81901A97DDF029000BF029800284D
:1015000001D00298DAE700BF2878022806D16846A1
:101510008088B04202DC092000900BE00820009097
:101520002878012805D16878B04202DC68780190FB
:1015300000E0019668468088FE2801D90C20BDE7AE
:1015400068468088401C218878542088401C208070
:101550002188009878542088401C20802188684683
:101560008088081820800020A8E7014600207047E6
:1015700002460020704702460020704701B505E092
:101580000098401E00900348F9F7BEFD009800281F
:10159000F6D108BDE703000070B504460D462946A4
:1015A0002046FAF719FA00BFE106C90E012088406B
:1015B0000549086000BF00BFE106C90E0120884050
:1015C0000249086000BF70BD80E200E000E100E079
:1015D000FEB505460E46284600F00CFC002820D03B
:1015E0002846FDF7BFF8001F28490F5CBC11032CEB
:1015F0000CD100BF264800690121A94008400028FD
:1016000001D0032000E00220019005E0012C01D16F
:10161000022000E0032001902846019900F00BF918
:1016200032E0284600F0F2FB00282DD02846FDF7D6
:1016300099F80446A000FF30013080B201902046A6
:10164000144951221201891882008958012211433C
:10165000104A51231B01D2188300D15000BF0198BA
:1016600000F012F9002E0ED02846FDF77BF800900E
:10167000FDF734F80746002F04D00121A1400846A9
:1016800000F016F900BF00BFFEBD00000C290020CD
:101690000005005000600040F7B584B004460E46D7
:1016A00000200390204600F097FB002802D008207D
:1016B000039060E0F27820460699FDF717F805469A
:1016C000681C002854D0B078002810D000BFA100BA
:1016D0002A4A891809680222914308460521090708
:1016E000072212028918A200885000BF0BE0777809
:1016F000002000903B46024601460190204600F043
:1017000087F800BF00BFF078002826D037781C4843
:10171000512109014018A90040581A4908401849A8
:10172000512212018918AA00885015485121090137
:101730004018A900415820021F22120210403A040A
:1017400003231B041A40104301430D485122120188
:101750008018AA00815000BF0CE0281F0A49085CCD
:1017600031788901084342B2281F07490A5401E031
:101770000420039000BF039807B0F0BD000700509D
:1017800000600040FFE0FCFF0C290020014600BF84
:1017900005480069C840C007C00F002801D00120DB
:1017A00070470020FCE700000005005010B512480B
:1017B0000079002801D0082010BD002404E0204654
:1017C00000F034FB601CC4B2202CF8DB002404E0E1
:1017D0002046FCF773FF601CC4B2082CF8DB032121
:1017E0000620FFF7D9FE0120C00700F061F80121B3
:1017F000014801710020DFE70C290020034800792F
:10180000002801D0012070470020FCE70C290020AF
:10181000F0B5059C55000D439E0035432602354327
:10182000069E360435430526360707273F02F6197C
:101830008700F551F0BD10B50522120707231B02E2
:10184000D2188300D25803231B049A4305231B0795
:10185000072424021B1984001A51052212070723AA
:101860001B02D2188300D2580B041A4305231B070E
:10187000072424021B1984001A5110BD0146014897
:10188000081870470060004010B504462046FFF776
:10189000F5FF0021016010BD10B504462046FFF79A
:1018A000EDFF0068012800D110BD0020FCE700001A
:1018B000014948607047000000630040014609226A
:1018C000D2018A1810680922D2018A181060704764
:1018D00002465058002801D0012070470020FCE744
:1018E0000022425070470322120282189160704712
:1018F000024603200002101840680840002801D06A
:10190000012070470020FCE701224250704770B56B
:101910000546002D10D0032D11D10220FCF71CFB31
:10192000044600BF2646002E04D000BF3046FAF71A
:10193000C9FF00BF00BF03E001F038F800E000BFBE
:1019400000BF70BD70B505462888102802D0112848
:1019500019D111E00720FCF7FFFA044600BF264624
:10196000002E04D000BF3046FAF7ACFF00BF00BF26
:10197000A8880649088007E00020C0430349088082
:10198000FAF7AEFE00E000BF00BF70BD22200020CD
:1019900070B50546287800280ED13B2107480088FD
:1019A00076DF044600BF2646002E04D000BF304636
:1019B000FAF788FF00BF00BF70BD000022200020A2
:1019C00010B504460822A1180248F9F703FCFDF7F8
:1019D00013F910BDD82000208A88028070470000CB
:1019E00010B50446A088094908800822214618310C
:1019F0000748F9F7EFFB0020064908700648C08940
:101A0000002801D1FDF7F8F810BD0000D620002015
:101A1000D8200020D4200020402700208A8842803F
:101A200070478A884282704770B588B005460C4678
:101A30000221684601740174012104A88171218981
:101A400001816189418120460C3007902846FFF7CB
:101A500069FA002808D1FF20FE306946888228886C
:101A600004A9A8DF08B070BD0020694688822888D4
:101A700004A9A8DF064600BF002E01D03046F1E7DA
:101A800000BF00BF207B0300FAF7B3F80979061DF9
:101A9000343C444C715479000020694608716089D7
:101AA000022805DA217B06222846FBF769FFD9E7E1
:101AB000012101A8017220460D30029001A928469B
:101AC000AA6A904761E0012069460871608902288E
:101AD00005DA217B06222846FBF752FFC2E70121E7
:101AE00001A8017220460D30029001A92846AA6A79
:101AF00090474AE002206946087101A92846AA6A6F
:101B0000904742E003206946087101A92846AA6A65
:101B100090473AE004206946087101A92846AA6A5C
:101B2000904732E005206946087101A92846AA6A53
:101B300090472AE06089032805DA03220821284615
:101B4000FBF71EFF8EE720460D3001F0D5FD6946FC
:101B500008810889002802D10720087102E00620C8
:101B60006946087101A92846AA6A90470DE0092034
:101B70006946087101A92846AA6A904705E0217BB9
:101B800003222846FBF7FCFE6CE700BF002069E754
:101B90000022D2430280704770B505460020C04342
:101BA0000A49088000200A4908700A480068FAF7C4
:101BB0007DFF0446002C07D007488069002803D029
:101BC000054881692046884770BD0000D620002066
:101BD000D4200020C0390200402700200022D24338
:101BE000428070470022D24342827047F8B50546D2
:101BF0000C46A61D307802281AD17088298A88429E
:101C000016D1A07B042813D0A07B062810D0A07B7F
:101C100005280DD0B11C2846FFF706FF0746002F08
:101C200005D0E86A002802D03846E96A884700BF34
:101C3000F8BD3EB505460C46E088298988420DD19D
:101C4000082069460870217C6846017220461230DF
:101C5000019069462846AA6A904700BF3EBD000031
:101C600070B50546AC1D20881249C989884220D12B
:101C7000608902281DD100BF00BF217B627B120258
:101C800011430846C107C90F002902D0FCF7B4FF71
:101C90000FE009480068FAF709FF0646002E07D052
:101CA00004488069002803D002488169304688478B
:101CB00000BF70BD40270020C039020070B5044647
:101CC0000E46B51D2988608A814213D16889022891
:101CD00010D100BF00BF297B6A7B12021143084666
:101CE000C107C90F002902D0012020770FE0002092
:101CF00020770CE02888E188884208D1A069002874
:101D000005D06A8929460C312046A369984770BDE1
:101D1000F8B504460E46207D002820D0B51D298840
:101D2000608981421AD16889022817D12068002869
:101D300014D000BF00BF297B6A7B12021143084602
:101D4000C107C90F002902D00020009001E0012046
:101D50000090694620462268904700BF00BFF8BD4A
:101D60000246002105E0505C002801D001207047A8
:101D7000491C0629F7D30020F9E7000010B50446F6
:101D80001C216143124A8918084611300621F9F7CF
:101D90003AFA1C2161430E4A88181021F9F733FAE8
:101DA000FF211C2060430A4A801801741C206043F4
:101DB000801881760021C9431C206043801801836C
:101DC000204601F0ADFC0020A100024A505010BD99
:101DD000982700207C270020014605484056C01760
:101DE000401C002801D0012070470020FCE70000C3
:101DF000EC280020014604484056042801DB01205D
:101E000070470020FCE70000EC280020014606484F
:101E10004056002805DB04484056042801DA01201A
:101E200070470020FCE70000EC2800200022D2438D
:101E300001490A5470470000EC280020704770B533
:101E400048DF044600BF2546002D04D000BF2846C9
:101E5000FAF738FD00BF00BF70BD0000014600BFAB
:101E60000848006804221040002801D1082070476B
:101E700000BF002901D10E20F9E70348407808602F
:101E80000020F4E71C210020302900203CB5034647
:101E900000BF2548006804242040002801D1082004
:101EA0003CBD00BF002B01D10E20F9E7002A01D173
:101EB0000E20F5E71868022806D20C241868604343
:101EC0001A4C2058002801D10720E9E75C681868FF
:101ED00001940090019C0C2518686843134D40192B
:101EE00000894843201801900C24009860432C4638
:101EF000001940890C25009C6C430C4D6419248901
:101F000060430C25009C6C43084D641964680019FB
:101F1000019CA04201D80720C2E7019C00985460B0
:101F200010600020BCE700001C210020FC290020DC
:101F300070B5049C0025094E3560012906D00229A0
:101F400005D0032904D0042904D102E003E002E013
:101F500001E000E000BF00BF70BD00006C20002069
:101F6000FEB504460D4600BF414800680421084004
:101F7000002801D10820FEBD00BF002C01D10E2099
:101F8000F9E72068022806D20C2120684843394925
:101F90000858002801D10720EDE70C2120684843AC
:101FA0003449401840890C2221685143314A89182C
:101FB000098948430C22216851432E4A89184968EF
:101FC00040186168884201D80720D4E76068FFF7AD
:101FD000AFF8002801D11020CDE70C23206858432A
:101FE000244BC01862684068101A00900C222068C8
:101FF00050431A46801801890098F9F7C1F8002962
:1020000001D00720B7E70C2220685043194A8018F6
:1020100001892846F9F7CAF8002901D1002D01D11C
:102020000720A8E70C212068484312494018068978
:102030000C22216851430F4A891849894E43606830
:1020400047190C2120684843114640184068801900
:1020500001900198874201D907208CE700202B4688
:102060000246214600900320FCF76CFC83E7000049
:102070001C210020FC29002070B508484469601C20
:10208000002807D000F00CF8054629462046F9F74D
:1020900077F870BD012000074069FAE700100010D2
:1020A00001200007006980B27047000010B5FCF7FE
:1020B0008BFC002017490880FFF7DEFFC41EFFF7E6
:1020C000EFFF44431448046000201449086000BF37
:1020D0000DE000220C214143114B5A500C21414389
:1020E000C9180A810C214143C9184A81401C0228A1
:1020F000EFD300200B4908700B4908600B490860BA
:102100000B49086009480068042108430749086032
:10211000002010BDF8200020FC2000200C21002011
:10212000FC29002000210020102100201C2100207B
:1021300014210020FFB581B00C4615461E4600BF95
:102140003948006804210840002802D1082005B061
:10215000F0BD00BF002C01D10E20F8E70198002847
:1021600001D10E20F3E72068022806D20C21206856
:1021700048432E490858002801D10720E7E70C21E1
:10218000206848432949401840890C22216851435E
:10219000264A8918098948430C2221685143234A59
:1021A0008918496840186168884201D80720CEE73D
:1021B000002D07D00C21206848431C494018008995
:1021C000A84201DA0720C2E7A9190C22206850436F
:1021D000164A80180089814201DD0720B7E701987F
:1021E000FEF7A6FF002809D03046FEF7A1FF002821
:1021F00004D06068FEF79CFF002801D11020A6E7FC
:10220000606881192A460198F8F7E4FF00950C21CF
:102210002068484305490F58002202212046019BAF
:10222000B847002093E700001C210020FC29002073
:10223000F8B504460D4600BF414800680421084037
:10224000002801D10820F8BD00BF002C01D10E20CC
:10225000F9E7002D01D10E20F5E72068002801D113
:102260000E20F0E7FFF71CFFA188884202DBA08860
:10227000102801DA0720E6E7E08800280DD0FFF7F4
:10228000FBFE471EFFF70CFF4743E088A188484349
:102290002C4909684018874201D20720D3E72079EA
:1022A0008007800F002801D00720CCE7264800884F
:1022B000022801D10420C6E723480088286021486D
:1022C00000686860204800880C2250431F4A80182C
:1022D000696841601C4800880C2250431B4A2168F1
:1022E0001150A188184800880C225043174A8018C2
:1022F0000181E188144800880C225043134A801859
:102300004181FFF7CDFE0090FFF7CAFEA188E28869
:1023100051434018471E38460099F8F747FF0646D4
:10232000FFF7BEFE70430749096840180549086079
:1023300005480088401C04490880002083E700000D
:102340001C210020FC200020F8200020FC29002077
:10235000F8B504460E4615461F4600BF32480068D1
:1023600004210840002801D10820F8BD00BF002E3C
:1023700001D10E20F9E7002C01D10E20F5E72068ED
:10238000022806D20C212068484328490858002812
:1023900001D10720E9E70C21206848432349401870
:1023A00040890C2221685143204A891809894843F1
:1023B0000C22216851431D4A8918496840186168F8
:1023C000884201D80720D0E7002D07D00C212068D3
:1023D0004843164940180089A84201DA0720C4E79B
:1023E000E9190C2220685043104A80180089814264
:1023F00001DD0720B9E73046FEF79AFE002809D034
:102400003846FEF795FE002804D06068FEF790FE7F
:10241000002801D11020A8E72B4632462146012092
:102420000097FCF78FFAA0E71C210020FC29002070
:1024300010B504460F480078002819D00D480078E0
:10244000042815D0022C02D0032C0FD102E0FEF795
:1024500077FA0CE00848006808210840002802D1FB
:10246000FEF74EFA01E0FEF76BFA00E000BF00BF96
:1024700010BD0000002100201C210020F8B50446FA
:102480000E4615461F4600BF32480068042108402A
:10249000002801D10820F8BD00BF002E01D10E2078
:1024A000F9E7002C01D10E20F5E72068022806D2BA
:1024B0000C212068484328490858002801D10720EA
:1024C000E9E70C21206848432349401840890C2241
:1024D00021685143204A8918098948430C22216800
:1024E00051431D4A8918496840186168884201D8DB
:1024F0000720D0E7002D07D00C212068484316495B
:1025000040180089A84201DA0720C4E7E9190C2223
:1025100020685043104A80180089814201DD07205D
:10252000B9E73046FEF704FE002809D03846FEF72A
:10253000FFFD002804D06068FEF7FAFD002801D1F5
:102540001020A8E72B463246214604200097FCF7CE
:10255000F9F9A0E71C210020FC29002070B51B48D8
:1025600000881B4988421CD013211848008876DF58
:10257000044600BF2546002D04D000BF2846FAF7C8
:10258000A1F900BF00BF0020FBF7E6FC044600BF36
:102590002546002D04D000BF2846FAF793F900BF66
:1025A00001E0FAF7E5F8FBF765F8044600BF2546B9
:1025B000002D04D000BF2846FAF784F900BF00BF01
:1025C000FF20F530FEF7DAFF70BD0000222000206A
:1025D000FFFF0000704700000149086070470000DD
:1025E0004015014001484068704700000015014057
:1025F00010B504460348846003211120F9F728FA36
:1026000010BD00000015014010B5012000040A496A
:1026100048600949403948601120F9F7BFF9112095
:10262000F9F7C6F90120054908602F20F8F77CFD6D
:1026300001200349087010BD401301400010014003
:102640005421002010B51120012181400E4A116053
:1026500000BF012000040D4988600C4940398860A2
:1026600001200B4948602F20F8F75EFD0120084942
:1026700088600020074908602F20F8F755FD0020EA
:102680000549087010BD000080E100E040130140E2
:1026900000100140402100205421002010B50446C4
:1026A00003480068401C02490860FAF76FFB10BD40
:1026B0005020002010B51448C07D00280BD1FF2108
:1026C00009311248FFF70CF900BF10480521090233
:1026D0004018806910BDFF2109310C48FFF700F94F
:1026E00000BF0A480521090240188069C0B20649A6
:1026F000C968054A527E88540348407E401C0249FE
:10270000487600BFE6E700001429002000200040C2
:102710007FB504460D46012069460870684604727C
:102720000195034801684268684690477FBD0000F4
:102730001429002008B501460448009000988842FA
:1027400001D0002008BD0020FCE700000020002090
:1027500010B501460846202809DA012282402B4B99
:102760001A40002A01D0012202E0002200E00122EA
:10277000002A01D1264810BD084600280CDA254B56
:102780000407240F083CA408A4001B598407E40E86
:10279000E3401B069B0F0BE01F4B032424021B1975
:1027A0008408A4001B598407E40EE3401B069B0F1A
:1027B0001A46042A01D3002006E0002A01D0022A8A
:1027C00001D1002000E00120002802D11048401C67
:1027D000D1E71248406800280DD0480980000F4A10
:1027E0001058CB06DB0E01229A4010434A09920092
:1027F0000A4B985008E000BFCA06D20E0120904054
:10280000054A106000BF00BF0020B4E7FC06FFBC13
:10281000012000001CED00E000E100E05821002054
:1028200030B504461088C01C984201D90C2030BD38
:102830000220158848551088401C108011201588EA
:1028400048551088401C108010880C541088401C7B
:1028500010800020EBE7FEB507460E461446B86A26
:10286000002801D10720FEBD0020019037E0B96AA1
:102870000C22019850430D18A888801C00900098E5
:10288000FE2801D90C20EEE70098401C21887054E6
:102890002088401C20801620218870542088401CED
:1028A000208022889119288800F02CFF2188401868
:1028B0002080A88800280EDDA868002801D1072004
:1028C000D1E7AA8823889819A968F8F783FC20889B
:1028D000A988401820800198401CC0B201902C208B
:1028E000C15D01988142C2DC0020BCE77FB5FAF7E8
:1028F0003BF9002003901A48039003A91948FAF7FE
:10290000C1FE044600BF2546002D04D000BF284666
:10291000F9F7D8FF00BF00BF00200090019002909F
:1029200011480190002002900F4801900120694653
:1029300008800E48FAF794FF044600BF2546002D94
:1029400004D000BF2846F9F7BDFF00BF00BF08480C
:10295000FCF7A0FE07480078FCF7EAFD7FBD000009
:102960006DED01009021002059F50100B0210020FB
:102970005D2502002020002010B520210948F8F72D
:1029800042FC002320220749184600F0F5F90548CB
:102990000079054988700348007A48700148407AF8
:1029A000087010BD202200204022002070B50020B9
:1029B000FBF7D2FA044600BF2546002D04D000BF25
:1029C0002846F9F77FFF00BF00BFFBF7AFF90446C9
:1029D00000BF2546002D04D000BF2846F9F772FF3E
:1029E00000BF00BF3CDF044600BF2546002D04D0D9
:1029F00000BF2846F9F766FF00BF00BF70BD0000AA
:102A000010B504460248047000F00CF910BD000037
:102A100000210020014600BF002901D10E2070478F
:102A200000BF024801600020F9E70000702100208B
:102A30007CB50446044800900098019001A9204606
:102A400060DF054628467CBD0020002070B50546A5
:102A50000E46144614212046F8F7D5FB01202080AD
:102A6000002121610020207326726572607A00289F
:102A700001D00121A172002070BD70B504460D4641
:102A80001646324629462046F9F70CFF70BD000075
:102A9000FFB581B00C4616461F46002C02D1072018
:102AA00005B0F0BD20468107890F002901D1012121
:102AB00000E00021002901D10720F1E70A48046065
:102AC0000A4806800A4807600A49019810DF05464F
:102AD000002D01D02846E3E70120074908701620A1
:102AE000FFF736FEDCE70000682100206C210020A3
:102AF000602100207B2A020064210020014600BFE3
:102B0000002901D10E20704700BF0248016000205B
:102B1000F9E70000742100200146C878002801D0A0
:102B2000072070470020FCE77CB5044601A900207F
:102B3000FBF778F9054600BF002D01D028467CBD83
:102B400000BF69460120FBF76DF9054600BF002D67
:102B500001D02846F3E700BF68460078002802D07D
:102B60000220207008E068460079002802D00B207F
:102B7000207001E0002020700020E0E710B502483E
:102B80000068FDF7F5FE10BD0C210020F8B52148C6
:102B90000068400840001F4908601F480078142161
:102BA00048431D49091D4418E568FFF779FA0146B5
:102BB00000902846F8F7E4FA064618480660FFF742
:102BC0006FFA009061884919481E0099F8F7D8FA01
:102BD0000746BE4206D10F480068022108430D494E
:102BE000086005E00B480068022188430949086035
:102BF0000B480068002809D10648006802210840F7
:102C0000002803D1022000F0E5F902E0002000F0E6
:102C1000E1F9F8BD1C210020302900200C21002002
:102C20000421002010B50D480078002806D00128A6
:102C300007D0022808D003280CD108E000F018F8CB
:102C400009E000F067F806E0FFF7A0FF03E0FFF7F8
:102C500095FF00E000BF00BF10BD00000021002074
:102C600010B502480068FDF783FE10BD0C2100205E
:102C700010B500200349086003490860FBF73AFEDD
:102C800010BD0000102100201421002070B5FFF7B6
:102C9000F3F9461EFFF704FA46433446FFF700FAFD
:102CA00005490968491E484305460448214602680B
:102CB0002846FDF765FE70BD0C2100200421002090
:102CC000F8B512480078142148431049091D4418EA
:102CD000E568FFF7E5F9064661884919A288881872
:102CE0003146F8F74DFA0091FFF7C6F9471EFFF796
:102CF000D7F9474300983E1861884919A288881877
:102D000003490A683146FDF73BFEF8BD3029002033
:102D10000821002010B500F0C3F810BDF8B5FFF78A
:102D2000BFF90646FFF7A8F9471EFFF7B9F9474371
:102D30003D4631462846F8F723FA0446FDF718FECB
:102D4000F8BD0000F8B5FFF7ABF98408FFF7A8F964
:102D50000849096848430546FFF78EF9471EFFF703
:102D60009FF947433E46224629463046FDF708FE76
:102D7000F8BD00000C210020FFB581B005461646C5
:102D8000A9B2144A1448FFF781F8044600BF274649
:102D9000002F04D000BF3846F9F794FD00BF00BFF4
:102DA00001200E490860049883B2B2B20949029822
:102DB000FFF7C0F9044600BF2746002F04D000BF2C
:102DC0003846F9F77FFD00BF00BF00F0C1FD05B038
:102DD000F0BD0000642000205C2000206C2000205A
:102DE00010B50446002010BDFFB581B0054616465B
:102DF000A9B2124A1248FFF749F8044600BF274615
:102E0000002F04D000BF3846F9F75CFD00BF00BFBB
:102E1000049883B2B2B209480299FFF799FA0446BE
:102E200000BF2746002F04D000BF3846F9F74AFDFF
:102E300000BF00BF00F08CFD05B0F0BD6420002095
:102E40005C200020FFB581B005461E46124A294687
:102E50001248FFF71BF8044600BF2746002F04D096
:102E600000BF3846F9F72EFD00BF00BFB3B203988C
:102E700082B209480299FFF701FB044600BF2746CA
:102E8000002F04D000BF3846F9F71CFD00BF00BF7B
:102E900000F05EFD05B0F0BD642000205C20002045
:102EA00070B516480078142148431449091D441888
:102EB000FFF7F6F86188884214DAFFF7F1F86188C5
:102EC0000D1AFFF7EDF88608A388E268D2185019AA
:102ED000226951193246FDF753FDFFF7E1F8084921
:102EE00008600AE0A588E368581963889A08216990
:102EF000FDF746FD60880249086070BD302900205A
:102F00001421002010B50120FFF77AFD10BD00004C
:102F100010B50F48006808210840002814D10D485A
:102F20000078142148430B49091D441860880A4958
:102F30000988401A60806088002802D1FBF754FDA0
:102F400001E0FFF7ADFF01E0FEF744FA10BD00001D
:102F50001C210020302900201421002010B5064833
:102F6000006808210840002803D1012000F032F851
:102F700001E000F013F810BD1C21002010B5FBF794
:102F800081FC10BD10B5034909788900024A5058E8
:102F9000804710BD01210020083A020010B5054805
:102FA000006808218843034908600348007800F05E
:102FB00011F810BD1C2100200121002010B503498B
:102FC00009788900024A5058804710BD012100202D
:102FD0001C3A020010B5044602480470FFF7D2FF05
:102FE00010BD00000121002010B504462046FFF767
:102FF0001FFA2046FAF77CF810BD000010B506480D
:10300000006808210840002802D1FFF7B7FF01E05F
:10301000FFF7C4FF10BD00001C210020FEB50546CF
:103020000C46FFF73DF8074639462046F8F7BEF84C
:103030000646FFF735F8074639462846F8F7B6F84A
:1030400001900198864204D1601B800808490860FD
:103050000DE0FFF725F80746FFF722F8014600903C
:103060002846F8F7A3F8781A800801490860FEBDE1
:10307000082100200246501A0002000A7047000092
:1030800070B504460C480068002810D00A4AA169AF
:10309000606912689047054600BF2E46002E04D096
:1030A00000BF3046F9F70EFC00BF00BF02E06169C7
:1030B000A069884770BD000050210020FEB50020A7
:1030C000019011480468114807686846FDF728FB1D
:1030D0000546FEF77DF80646002D05D001AA2146DB
:1030E0000098FDF771FB01260198FEF7BBF8002858
:1030F00000D00126002E02D03846FBF79FFC0020AE
:1031000003490870FEBD0000402100203C21002042
:103110005521002010B51420F8F754FC10BD000014
:1031200010B519490968002902D1174908602AE039
:10313000154A01681268126891420DD8124909684F
:1031400009680268891A104A126811600E490968F4
:10315000C1610D49086016E002680B4C23682168C4
:1031600003E00C68121B0B46C969002902D00C68E9
:103170009442F6D3002902D00C68A41A0C600260B5
:10318000C161D86100BF10BD3C21002030B50246AE
:10319000164C2168084604E0904200D103E0014645
:1031A000C0690028F8D100BF002800D130BD81429D
:1031B00011D10E4C2468E4690C4D2C602C46246817
:1031C000002C08D101240A4DAC600024094D2C606C
:1031D0000124094D2C700368C469CC61C8690028BA
:1031E00002D00468E418046000BFDFE73C2100203F
:1031F000001001404021002055210020FFB581B082
:1032000005460E461746E900114A126888186946B5
:1032100000F0EFFA0446002C02D1042005B0F0BD06
:10322000012020706660FFF7DDF9A060E760049878
:1032300020610A986061E900054A126888186946A9
:10324000097800F0EDFAFFF765FF0020E6E70000DF
:1032500038210020F8B504460E46E1000C4A1268F9
:103260008818694600F0C5FA0546002D01D10420F2
:10327000F8BD022028706E60E100054A12688818C7
:103280006946097800F0CCFAFFF744FF0020EFE729
:1032900038210020F8B51F480068002839D00027E1
:1032A000FFF7A0F900901C4801680098FFF7E2FEC4
:1032B00006461848056811E02868B04200D90FE0BA
:1032C0002868361A2868C7192C46ED69207C002822
:1032D00004D0002020742046FFF7D2FE002DEBD151
:1032E00000BF0E4800780E490978884209D10C4881
:1032F0000078401CC0B20A490870022801D10020A1
:10330000087007480078800006490F50FFF702FF59
:1033100000BFF8BD3C210020402100204C210020AE
:103320004D2100204421002010B51120F8F74AFB60
:1033300010BD000070B500BF0023194A09211846CE
:10334000F9F72AFB054600BF2E46002E04D000BF29
:103350003046F9F7B7FA00BF00BF00BF114A01219C
:103360001148F9F7F7FA044600BF2546002D04D0AE
:1033700000BF2846F9F7A6FA00BF00BF0B4A00219C
:103380000B48F9F7E7FA044600BF2546002D04D0A4
:1033900000BF2846F9F796FA00BF00BF70BD0000D5
:1033A000502200209D26020080390200D52502000F
:1033B0008439020070B504461D4610881230A842B8
:1033C00001D90C2070BD1120168888551088401C2A
:1033D00010801020168888551088401C10800F23FC
:1033E00007E0E05C16888855581E43B21088401CE0
:1033F0001080002BF5DA0020E4E7000010B5FF2173
:103400001D310A48FEF76CFA094880680849898A24
:10341000445C0748808A401C05498882204603494D
:10342000052212028918C86100BF10BD00200040AB
:103430001429002030B58FB004460D461C2108A881
:10344000F7F7E1FE08A8007808218843411808A88A
:103450000170007810218843411808A80170007895
:1034600002218843811C08A80170002009900B905C
:103470000C900D900E902178684681720121018197
:103480000020019000BF6846007901090901491C2C
:10349000684601710079F02188431030694608714F
:1034A00000BF00BF6846407901090901491C684610
:1034B00041714079F021884310306946487100BF5E
:1034C0006846807906218843811C6846817180792D
:1034D000082188430146684681718079102188431C
:1034E000014668468171807941084900491C684657
:1034F0008171142103A8F7F786FE02A8039001A8A2
:1035000004900121684681820021C1821421018337
:10351000A088A31D03AA08A9A2DF0FB030BD000038
:103520001FB50446002069460870684604720648C4
:103530008068019000200449887508460168426847
:10354000684690471FBD00001429002030B504468E
:103550001088C01C984201D90C2030BD022015886B
:1035600048551088401C10800A201588485510883E
:10357000401C108015884C551088401C108000207D
:10358000EBE700007FB5012149025948FEF7B0F989
:10359000002830D0FF2125315548FEF799F9002841
:1035A00029D0FF2125315248FEF79AF9812189005F
:1035B0004F48FEF798F94F48807E002803D1042138
:1035C0004B48FEF7A1F90220694608704848FEF70B
:1035D00075F903904748C17D684601724548C06847
:1035E000019000204349C875087608460168426882
:1035F000684690473EE004213D48FEF779F90028EF
:1036000038D0FF2109313A48FEF762F9002831D05D
:10361000FFF750F83748C07D3649497E884229D1A6
:103620003448007E002810D03248C468457E007EB1
:103630003049C87508460069C86000200876487699
:1036400021462846FFF764F814E02A48807E0028C7
:1036500003D104212648FEF757F981218900244827
:10366000FEF741F900202349C8750A46D168507E0B
:10367000FFF74EF8FF211D311D48FEF729F90028FC
:1036800015D01C48808A1B49897D884202DAFFF7E1
:10369000B5FE0CE0FF211D311548FEF721F9154854
:1036A000807D002803D01349887DFFF739FFFF2173
:1036B00045310F48FEF70CF9002818D0FF2145319D
:1036C0000B48FEF70DF90B48807E002803D000213F
:1036D0000748FEF719F90748C07D002807D00020E9
:1036E0000449C8750A46D168507EFFF711F87FBDBE
:1036F0000020004014290020014608784A78120270
:103700001043704702460A70FF200002104000126A
:1037100048700220704710B5FBF72AF810BD000072
:1037200001218140024A12688A4301490A607047B8
:10373000EC20002038B50546204800882049884202
:103740003BD020480078401C1E4908701E48007B72
:10375000097888420FDB1D491848008875DF044648
:10376000002C07D018488069002803D016488169CA
:103770002046884721E00020124908701248007C4A
:1037800000280FD03B210D48008876DF0446002C2E
:1037900007D00D488069002803D00B488169204676
:1037A000884700BF08484069002806D000200090E4
:1037B000054841696846884700BF38BDD6200020CB
:1037C000FFFF0000D420002040270020CC20002054
:1037D00010B5FBF79DFA012802D0032804D101E0BF
:1037E000002403E0012401E0022400BF00BF2046C2
:1037F00010BD70B502460B465078401CC1B290789F
:10380000884200D100211078884201D1002070BD8B
:10381000197050781826704355682C182046F6E722
:1038200041707047FFB583B015460D9F0C9E019700
:1038300000960222069B0499039800F019F80446AA
:1038400000BF002C02D0204607B0F0BD00BF01979A
:10385000009610222946069B039800F009F80446BA
:1038600000BF002C01D02046EEE700BF0020EBE7B0
:10387000FFB587B006461D46109C002006902088A4
:10388000059000274DE0B900706841180A88684625
:1038900082804988C180002202A901A865DF0390C7
:1038A00000BF0398002802D003980BB0F0BD00BF02
:1038B0006846017A0998814232D10698002801D0E1
:1038C000002000E00220009020886946097A411813
:1038D000009809181198814201DD0C20E5E706984F
:1038E00000280AD12088401C20802188089868542C
:1038F0002088401C2080012006902088421902A9BF
:1039000001A865DF039000BF0398002801D0039849
:10391000CBE700BF21886846007A0818208000BFE6
:103920007F1C3088B842AEDC069800280ED0218873
:103930000598401C081A80B204900498FF2801DD05
:103940000C20B2E70498C1B2059829540020ACE7D6
:1039500010B501E0FEF773FA024800680028F9D1BB
:1039600010BD00006C20002001460879002802D11B
:10397000087B002801D0012070470020FCE70000F0
:10398000E0210020002200200028010023D1BCEA11
:103990005F782315DEEF121200000000DC25002006
:1039A000FC2500201C2600200A0000000B0000005F
:1039B0000A0000004DDD01000B0000004DDD01009C
:1039C0005C27002077150200A90B0200650A02009F
:1039D000BD0C020071150200610B02005F0A0200BB
:1039E0009F0C02006B1502006D0A0200590A0200CA
:1039F000850C0200FFFFFFFF4C756D692D4223818E
:103A0000DEAF0821000000001D2D0200452D020040
:103A1000612C0200C12C02008D2C02005D2F0200DF
:103A20007DF10100F9F00100FD2F0200890D020077
:103A3000142A002003000000583A02000020002051
:103A4000780100006EB70100843A0200782100205E
:103A5000181100001EBC0100653132333402190414
:103A60000311FFFF340A18016A01004C756D692DBE
:103A7000422D3201022EFE042F91F601032024F480
:043A800003ADFFFF94
:040000050001B0C185
:00000001FF
