Component: ARM Compiler 5.06 update 4 (build 422) Tool: armlink [4d35d2]

==============================================================================

Section Cross References

    main.o(i.adc_timeout_handler) refers to nrf_drv_adc.o(i.nrf_drv_adc_sample_convert) for nrf_drv_adc_sample_convert
    main.o(i.adc_timeout_handler) refers to main.o(i.nrf_gpio_pin_clear) for nrf_gpio_pin_clear
    main.o(i.adc_timeout_handler) refers to main.o(i.nrf_gpio_pin_set) for nrf_gpio_pin_set
    main.o(i.adc_timeout_handler) refers to main.o(.data) for .data
    main.o(i.advertising_init) refers to memseta.o(.text) for __aeabi_memclr4
    main.o(i.advertising_init) refers to ble_advertising.o(i.ble_advertising_init) for ble_advertising_init
    main.o(i.advertising_init) refers to app_error.o(i.app_error_handler_bare) for app_error_handler_bare
    main.o(i.advertising_init) refers to main.o(.bss) for .bss
    main.o(i.advertising_init) refers to main.o(i.on_adv_evt) for on_adv_evt
    main.o(i.advertising_stop) refers to app_error.o(i.app_error_handler_bare) for app_error_handler_bare
    main.o(i.assert_nrf_callback) refers to app_error.o(i.app_error_handler) for app_error_handler
    main.o(i.bas_init) refers to memseta.o(.text) for __aeabi_memclr4
    main.o(i.bas_init) refers to ble_bas.o(i.ble_bas_init) for ble_bas_init
    main.o(i.bas_init) refers to app_error.o(i.app_error_handler_bare) for app_error_handler_bare
    main.o(i.bas_init) refers to main.o(.bss) for .bss
    main.o(i.ble_evt_dispatch) refers to device_manager_peripheral_1.o(i.dm_ble_evt_handler) for dm_ble_evt_handler
    main.o(i.ble_evt_dispatch) refers to ble_conn_params.o(i.ble_conn_params_on_ble_evt) for ble_conn_params_on_ble_evt
    main.o(i.ble_evt_dispatch) refers to bsp_btn_ble.o(i.bsp_btn_ble_on_ble_evt) for bsp_btn_ble_on_ble_evt
==============================================================================

Removing Unused input sections from the image.

    Removing main.o(.rev16_text), (4 bytes).
    Removing main.o(.revsh_text), (4 bytes).
    Removing main.o(.emb_text), (30 bytes).
    Removing main.o(i.assert_nrf_callback), (20 bytes).
    Removing main.o(.data), (16 bytes).
    Removing my_p_storage_handler.o(.rev16_text), (4 bytes).
    Removing my_p_storage_handler.o(.revsh_text), (4 bytes).
    Removing my_p_storage_handler.o(i.my_p_storage_init), (40 bytes).
    Removing my_p_storage_handler.o(i.pstorage_cb_handler), (12 bytes).
    Removing my_p_storage_handler.o(i.storage_clear), (32 bytes).
    Removing my_p_storage_handler.o(i.storage_load), (68 bytes).
    Removing my_p_storage_handler.o(i.storage_save), (60 bytes).
    Removing my_p_storage_handler.o(i.storage_update), (60 bytes).
    Removing my_p_storage_handler.o(i.wait_till_op), (24 bytes).
    Removing my_p_storage_handler.o(.data), (20 bytes).
    Removing device_manager_peripheral_1.o(.rev16_text), (4 bytes).
    Removing device_manager_peripheral_1.o(.revsh_text), (4 bytes).
    Removing device_manager_peripheral_1.o(i.dm_application_context_delete), (156 bytes).
==============================================================================

Image Symbol Table

    Local Symbols

    Symbol Name                              Value     Ov Type        Size  Object(Section)

    ../clib/../cmprslib/zerorunl.c           0x00000000   Number         0  __dczerorl.o ABSOLUTE
    ../clib/microlib/division.c              0x00000000   Number         0  idiv.o ABSOLUTE
    ../clib/microlib/division.c              0x00000000   Number         0  uidiv.o ABSOLUTE
    ../clib/microlib/division.c              0x00000000   Number         0  uldiv.o ABSOLUTE
    ../clib/microlib/init/entry.s            0x00000000   Number         0  entry10b.o ABSOLUTE
    ../clib/microlib/init/entry.s            0x00000000   Number         0  entry11a.o ABSOLUTE
    ../clib/microlib/init/entry.s            0x00000000   Number         0  entry7b.o ABSOLUTE
    ../clib/microlib/init/entry.s            0x00000000   Number         0  entry7a.o ABSOLUTE
    ../clib/microlib/init/entry.s            0x00000000   Number         0  entry2.o ABSOLUTE
    ../clib/microlib/init/entry.s            0x00000000   Number         0  entry5.o ABSOLUTE
    ../clib/microlib/init/entry.s            0x00000000   Number         0  entry10a.o ABSOLUTE
    ../clib/microlib/init/entry.s            0x00000000   Number         0  entry11b.o ABSOLUTE
    ../clib/microlib/init/entry.s            0x00000000   Number         0  entry.o ABSOLUTE
    ../clib/microlib/init/entry.s            0x00000000   Number         0  entry9b.o ABSOLUTE
    ../clib/microlib/init/entry.s            0x00000000   Number         0  entry8a.o ABSOLUTE
    ../clib/microlib/init/entry.s            0x00000000   Number         0  entry9a.o ABSOLUTE
    ../clib/microlib/init/entry.s            0x00000000   Number         0  entry8b.o ABSOLUTE
    ../clib/microlib/longlong.c              0x00000000   Number         0  llsshr.o ABSOLUTE
    ../clib/microlib/longlong.c              0x00000000   Number         0  llushr.o ABSOLUTE
    ../clib/microlib/longlong.c              0x00000000   Number         0  llshl.o ABSOLUTE
    ../clib/microlib/printf/printf.c         0x00000000   Number         0  printfa.o ABSOLUTE
    ../clib/microlib/printf/printf.c         0x00000000   Number         0  printf8.o ABSOLUTE
    ../clib/microlib/printf/printf.c         0x00000000   Number         0  printf7.o ABSOLUTE
    ../clib/microlib/printf/printf.c         0x00000000   Number         0  printf3.o ABSOLUTE
    ../clib/microlib/printf/printf.c         0x00000000   Number         0  printfb.o ABSOLUTE
    ../clib/microlib/printf/printf.c         0x00000000   Number         0  printf2.o ABSOLUTE
    ../clib/microlib/printf/printf.c         0x00000000   Number         0  printf1.o ABSOLUTE
    ../clib/microlib/printf/printf.c         0x00000000   Number         0  printf6.o ABSOLUTE
    ../clib/microlib/printf/printf.c         0x00000000   Number         0  printf5.o ABSOLUTE
    ../clib/microlib/printf/printf.c         0x00000000   Number         0  printf4.o ABSOLUTE
    ../clib/microlib/printf/printf.c         0x00000000   Number         0  printf0.o ABSOLUTE
    ../clib/microlib/printf/stubs.s          0x00000000   Number         0  stubs.o ABSOLUTE
    ../clib/microlib/string/memcmp.c         0x00000000   Number         0  memcmp.o ABSOLUTE
    ../clib/microlib/string/memcpy.c         0x00000000   Number         0  memcpyb.o ABSOLUTE
    ../clib/microlib/string/memcpy.c         0x00000000   Number         0  memcpya.o ABSOLUTE
    ../clib/microlib/string/memset.c         0x00000000   Number         0  memseta.o ABSOLUTE
    ../clib/microlib/string/strcpy.c         0x00000000   Number         0  strcpy.o ABSOLUTE
    ../clib/microlib/string/strlen.c         0x00000000   Number         0  strlen.o ABSOLUTE
    ../clib/microlib/stubs.s                 0x00000000   Number         0  iusefp.o ABSOLUTE
    ../fplib/microlib/fpadd.c                0x00000000   Number         0  dadd.o ABSOLUTE
    ../fplib/microlib/fpdiv.c                0x00000000   Number         0  ddiv.o ABSOLUTE
    ../fplib/microlib/fpepilogue.c           0x00000000   Number         0  depilogue.o ABSOLUTE
    ../fplib/microlib/fpfix.c                0x00000000   Number         0  dfixul.o ABSOLUTE
    ../fplib/microlib/fpmul.c                0x00000000   Number         0  dmul.o ABSOLUTE
    ..\..\..\..\..\..\components\ble\ble_advertising\ble_advertising.c 0x00000000   Number         0  ble_advertising.o ABSOLUTE
    ..\..\..\..\..\..\components\ble\ble_services\ble_bas\ble_bas.c 0x00000000   Number         0  ble_bas.o ABSOLUTE
    ..\..\..\..\..\..\components\ble\common\ble_advdata.c 0x00000000   Number         0  ble_advdata.o ABSOLUTE
    ..\..\..\..\..\..\components\ble\common\ble_conn_params.c 0x00000000   Number         0  ble_conn_params.o ABSOLUTE
    ..\..\..\..\..\..\components\ble\common\ble_srv_common.c 0x00000000   Number         0  ble_srv_common.o ABSOLUTE
    ..\..\..\..\..\..\components\ble\device_manager\device_manager_peripheral.c 0x00000000   Number         0  device_manager_peripheral_1.o ABSOLUTE
    ..\..\..\..\..\..\components\drivers_nrf\adc\nrf_drv_adc.c 0x00000000   Number         0  nrf_drv_adc.o ABSOLUTE
    ..\..\..\..\..\..\components\drivers_nrf\clock\nrf_drv_clock.c 0x00000000   Number         0  nrf_drv_clock.o ABSOLUTE
    ..\..\..\..\..\..\components\drivers_nrf\common\nrf_drv_common.c 0x00000000   Number         0  nrf_drv_common.o ABSOLUTE
    ..\..\..\..\..\..\components\drivers_nrf\delay\nrf_delay.c 0x00000000   Number         0  nrf_delay.o ABSOLUTE
    ..\..\..\..\..\..\components\drivers_nrf\gpiote\nrf_drv_gpiote.c 0x00000000   Number         0  nrf_drv_gpiote.o ABSOLUTE
    ..\..\..\..\..\..\components\drivers_nrf\ppi\nrf_drv_ppi.c 0x00000000   Number         0  nrf_drv_ppi.o ABSOLUTE
    ..\..\..\..\..\..\components\drivers_nrf\pstorage\pstorage.c 0x00000000   Number         0  pstorage.o ABSOLUTE
    ..\..\..\..\..\..\components\drivers_nrf\timer\nrf_drv_timer.c 0x00000000   Number         0  nrf_drv_timer.o ABSOLUTE
    ..\..\..\..\..\..\components\drivers_nrf\twi_master\nrf_drv_twi.c 0x00000000   Number         0  nrf_drv_twi.o ABSOLUTE
    ..\..\..\..\..\..\components\drivers_nrf\uart\nrf_drv_uart.c 0x00000000   Number         0  nrf_drv_uart.o ABSOLUTE
    ..\..\..\..\..\..\components\libraries\button\app_button.c 0x00000000   Number         0  app_button.o ABSOLUTE
    ..\..\..\..\..\..\components\libraries\fstorage\fstorage.c 0x00000000   Number         0  fstorage.o ABSOLUTE
    ..\..\..\..\..\..\components\libraries\led_softblink\led_softblink.c 0x00000000   Number         0  led_softblink.o ABSOLUTE
    ..\..\..\..\..\..\components\libraries\low_power_pwm\low_power_pwm.c 0x00000000   Number         0  low_power_pwm.o ABSOLUTE
    ..\..\..\..\..\..\components\libraries\pwm\app_pwm.c 0x00000000   Number         0  app_pwm.o ABSOLUTE
    ..\..\..\..\..\..\components\libraries\sensorsim\sensorsim.c 0x00000000   Number         0  sensorsim.o ABSOLUTE
    ..\..\..\..\..\..\components\libraries\timer\app_timer.c 0x00000000   Number         0  app_timer.o ABSOLUTE
    ..\..\..\..\..\..\components\libraries\trace\app_trace.c 0x00000000   Number         0  app_trace.o ABSOLUTE
    ..\..\..\..\..\..\components\libraries\twi\app_twi.c 0x00000000   Number         0  app_twi.o ABSOLUTE
    ..\..\..\..\..\..\components\libraries\uart\app_uart.c 0x00000000   Number         0  app_uart.o ABSOLUTE
    ..\..\..\..\..\..\components\libraries\uart\retarget.c 0x00000000   Number         0  retarget.o ABSOLUTE
    ..\..\..\..\..\..\components\libraries\util\app_error.c 0x00000000   Number         0  app_error.o ABSOLUTE
    ..\..\..\..\..\..\components\libraries\util\app_error_weak.c 0x00000000   Number         0  app_error_weak.o ABSOLUTE
    ..\..\..\..\..\..\components\libraries\util\app_util_platform.c 0x00000000   Number         0  app_util_platform.o ABSOLUTE
    ..\..\..\..\..\..\components\libraries\util\nrf_assert.c 0x00000000   Number         0  nrf_assert.o ABSOLUTE
    ..\..\..\..\..\..\components\libraries\util\nrf_log.c 0x00000000   Number         0  nrf_log.o ABSOLUTE
    ..\..\..\..\..\..\components\softdevice\common\softdevice_handler\softdevice_handler.c 0x00000000   Number         0  softdevice_handler.o ABSOLUTE
    ..\..\..\..\..\..\components\toolchain\arm\arm_startup_nrf51.s 0x00000000   Number         0  arm_startup_nrf51.o ABSOLUTE
    ..\..\..\..\..\..\components\toolchain\system_nrf51.c 0x00000000   Number         0  system_nrf51.o ABSOLUTE
    ..\..\..\..\..\..\external\segger_rtt\SEGGER_RTT.c 0x00000000   Number         0  segger_rtt.o ABSOLUTE
    ..\..\..\..\..\..\external\segger_rtt\SEGGER_RTT_printf.c 0x00000000   Number         0  segger_rtt_printf.o ABSOLUTE
    ..\..\..\..\..\bsp\bsp.c                 0x00000000   Number         0  bsp.o ABSOLUTE
    ..\..\..\..\..\bsp\bsp_btn_ble.c         0x00000000   Number         0  bsp_btn_ble.o ABSOLUTE
    ..\..\..\App\ble_custom_service.c        0x00000000   Number         0  ble_custom_service.o ABSOLUTE
    ..\..\..\App\main.c                      0x00000000   Number         0  main.o ABSOLUTE
    ..\..\..\App\my_p_storage_handler.c      0x00000000   Number         0  my_p_storage_handler.o ABSOLUTE
    ..\..\..\Dfu\ble_dfu.c                   0x00000000   Number         0  ble_dfu.o ABSOLUTE
    ..\..\..\Dfu\bootloader_util.c           0x00000000   Number         0  bootloader_util.o ABSOLUTE
    ..\..\..\Dfu\dfu_app_handler.c           0x00000000   Number         0  dfu_app_handler.o ABSOLUTE
    ..\..\..\Drv\adc.c                       0x00000000   Number         0  adc.o ABSOLUTE
    ..\\..\\..\\..\\..\\..\\components\\ble\\ble_advertising\\ble_advertising.c 0x00000000   Number         0  ble_advertising.o ABSOLUTE
    ..\\..\\..\\..\\..\\..\\components\\ble\\ble_services\\ble_bas\\ble_bas.c 0x00000000   Number         0  ble_bas.o ABSOLUTE
    ..\\..\\..\\..\\..\\..\\components\\ble\\common\\ble_advdata.c 0x00000000   Number         0  ble_advdata.o ABSOLUTE
    ..\\..\\..\\..\\..\\..\\components\\ble\\common\\ble_conn_params.c 0x00000000   Number         0  ble_conn_params.o ABSOLUTE
    ..\\..\\..\\..\\..\\..\\components\\ble\\common\\ble_srv_common.c 0x00000000   Number         0  ble_srv_common.o ABSOLUTE
    ..\\..\\..\\..\\..\\..\\components\\ble\\device_manager\\device_manager_peripheral.c 0x00000000   Number         0  device_manager_peripheral_1.o ABSOLUTE
    ..\\..\\..\\..\\..\\..\\components\\drivers_nrf\\adc\\nrf_drv_adc.c 0x00000000   Number         0  nrf_drv_adc.o ABSOLUTE
    ..\\..\\..\\..\\..\\..\\components\\drivers_nrf\\clock\\nrf_drv_clock.c 0x00000000   Number         0  nrf_drv_clock.o ABSOLUTE
    ..\\..\\..\\..\\..\\..\\components\\drivers_nrf\\common\\nrf_drv_common.c 0x00000000   Number         0  nrf_drv_common.o ABSOLUTE
    ..\\..\\..\\..\\..\\..\\components\\drivers_nrf\\delay\\nrf_delay.c 0x00000000   Number         0  nrf_delay.o ABSOLUTE
    ..\\..\\..\\..\\..\\..\\components\\drivers_nrf\\gpiote\\nrf_drv_gpiote.c 0x00000000   Number         0  nrf_drv_gpiote.o ABSOLUTE
    ..\\..\\..\\..\\..\\..\\components\\drivers_nrf\\ppi\\nrf_drv_ppi.c 0x00000000   Number         0  nrf_drv_ppi.o ABSOLUTE
    ..\\..\\..\\..\\..\\..\\components\\drivers_nrf\\pstorage\\pstorage.c 0x00000000   Number         0  pstorage.o ABSOLUTE
    ..\\..\\..\\..\\..\\..\\components\\drivers_nrf\\timer\\nrf_drv_timer.c 0x00000000   Number         0  nrf_drv_timer.o ABSOLUTE
    ..\\..\\..\\..\\..\\..\\components\\drivers_nrf\\twi_master\\nrf_drv_twi.c 0x00000000   Number         0  nrf_drv_twi.o ABSOLUTE
    ..\\..\\..\\..\\..\\..\\components\\drivers_nrf\\uart\\nrf_drv_uart.c 0x00000000   Number         0  nrf_drv_uart.o ABSOLUTE
    ..\\..\\..\\..\\..\\..\\components\\libraries\\button\\app_button.c 0x00000000   Number         0  app_button.o ABSOLUTE
    ..\\..\\..\\..\\..\\..\\components\\libraries\\fstorage\\fstorage.c 0x00000000   Number         0  fstorage.o ABSOLUTE
    ..\\..\\..\\..\\..\\..\\components\\libraries\\led_softblink\\led_softblink.c 0x00000000   Number         0  led_softblink.o ABSOLUTE
    ..\\..\\..\\..\\..\\..\\components\\libraries\\low_power_pwm\\low_power_pwm.c 0x00000000   Number         0  low_power_pwm.o ABSOLUTE
    ..\\..\\..\\..\\..\\..\\components\\libraries\\pwm\\app_pwm.c 0x00000000   Number         0  app_pwm.o ABSOLUTE
    ..\\..\\..\\..\\..\\..\\components\\libraries\\timer\\app_timer.c 0x00000000   Number         0  app_timer.o ABSOLUTE
    ..\\..\\..\\..\\..\\..\\components\\libraries\\twi\\app_twi.c 0x00000000   Number         0  app_twi.o ABSOLUTE
    ..\\..\\..\\..\\..\\..\\components\\libraries\\uart\\app_uart.c 0x00000000   Number         0  app_uart.o ABSOLUTE
    ..\\..\\..\\..\\..\\..\\components\\libraries\\uart\\retarget.c 0x00000000   Number         0  retarget.o ABSOLUTE
    ..\\..\\..\\..\\..\\..\\components\\libraries\\util\\app_error.c 0x00000000   Number         0  app_error.o ABSOLUTE
    ..\\..\\..\\..\\..\\..\\components\\libraries\\util\\app_error_weak.c 0x00000000   Number         0  app_error_weak.o ABSOLUTE
    ..\\..\\..\\..\\..\\..\\components\\libraries\\util\\app_util_platform.c 0x00000000   Number         0  app_util_platform.o ABSOLUTE
    ..\\..\\..\\..\\..\\..\\components\\libraries\\util\\nrf_assert.c 0x00000000   Number         0  nrf_assert.o ABSOLUTE
    ..\\..\\..\\..\\..\\..\\components\\libraries\\util\\nrf_log.c 0x00000000   Number         0  nrf_log.o ABSOLUTE
    ..\\..\\..\\..\\..\\..\\components\\softdevice\\common\\softdevice_handler\\softdevice_handler.c 0x00000000   Number         0  softdevice_handler.o ABSOLUTE
    ..\\..\\..\\..\\..\\..\\components\\toolchain\\system_nrf51.c 0x00000000   Number         0  system_nrf51.o ABSOLUTE
    ..\\..\\..\\..\\..\\bsp\\bsp.c           0x00000000   Number         0  bsp.o ABSOLUTE
    ..\\..\\..\\..\\..\\bsp\\bsp_btn_ble.c   0x00000000   Number         0  bsp_btn_ble.o ABSOLUTE
    ..\\..\\..\\App\\ble_custom_service.c    0x00000000   Number         0  ble_custom_service.o ABSOLUTE
    ..\\..\\..\\App\\main.c                  0x00000000   Number         0  main.o ABSOLUTE
    ..\\..\\..\\App\\my_p_storage_handler.c  0x00000000   Number         0  my_p_storage_handler.o ABSOLUTE
    ..\\..\\..\\Dfu\\ble_dfu.c               0x00000000   Number         0  ble_dfu.o ABSOLUTE
    ..\\..\\..\\Dfu\\bootloader_util.c       0x00000000   Number         0  bootloader_util.o ABSOLUTE
    ..\\..\\..\\Dfu\\dfu_app_handler.c       0x00000000   Number         0  dfu_app_handler.o ABSOLUTE
    ..\\..\\..\\Drv\\adc.c                   0x00000000   Number         0  adc.o ABSOLUTE
    cdrcmple.s                               0x00000000   Number         0  cdrcmple.o ABSOLUTE
    dc.s                                     0x00000000   Number         0  dc.o ABSOLUTE
    handlers.s                               0x00000000   Number         0  handlers.o ABSOLUTE
    init.s                                   0x00000000   Number         0  init.o ABSOLUTE
    RESET                                    0x0001b000   Section      192  arm_startup_nrf51.o(RESET)
    .ARM.Collect$$$$00000000                 0x0001b0c0   Section        0  entry.o(.ARM.Collect$$$$00000000)
    .ARM.Collect$$$$00000001                 0x0001b0c0   Section        4  entry2.o(.ARM.Collect$$$$00000001)
    .ARM.Collect$$$$00000004                 0x0001b0c4   Section        4  entry5.o(.ARM.Collect$$$$00000004)
    .ARM.Collect$$$$00000008                 0x0001b0c8   Section        0  entry7b.o(.ARM.Collect$$$$00000008)
    .ARM.Collect$$$$0000000A                 0x0001b0c8   Section        0  entry8b.o(.ARM.Collect$$$$0000000A)
    .ARM.Collect$$$$0000000B                 0x0001b0c8   Section        8  entry9a.o(.ARM.Collect$$$$0000000B)
    .ARM.Collect$$$$0000000D                 0x0001b0d0   Section        0  entry10a.o(.ARM.Collect$$$$0000000D)
    .ARM.Collect$$$$0000000F                 0x0001b0d0   Section        0  entry11a.o(.ARM.Collect$$$$0000000F)
    .ARM.Collect$$$$00002712                 0x0001b0d0   Section        4  entry2.o(.ARM.Collect$$$$00002712)
    __lit__00000000                          0x0001b0d0   Data           4  entry2.o(.ARM.Collect$$$$00002712)
    .emb_text                                0x0001b0d4   Section       52  bootloader_util.o(.emb_text)
    .emb_text                                0x0001b108   Section       30  nrf_delay.o(.emb_text)
    .emb_text                                0x0001b128   Section       30  app_timer.o(.emb_text)
    .text                                    0x0001b148   Section       56  arm_startup_nrf51.o(.text)
    .text                                    0x0001b180   Section        0  uidiv.o(.text)
    .text                                    0x0001b1ac   Section        0  idiv.o(.text)
    .text                                    0x0001b1d4   Section        0  memcpya.o(.text)
    .text                                    0x0001b1f8   Section        0  memseta.o(.text)
    .text                                    0x0001b21c   Section        0  memcmp.o(.text)
    .text                                    0x0001b236   Section        0  uldiv.o(.text)
    .text                                    0x0001b296   Section        0  iusefp.o(.text)
    .text                                    0x0001b298   Section        0  dadd.o(.text)
    .text                                    0x0001b3fc   Section        0  dmul.o(.text)
    .text                                    0x0001b4cc   Section        0  ddiv.o(.text)
    .text                                    0x0001b5bc   Section        0  dfixul.o(.text)
    .text                                    0x0001b5fc   Section       40  cdrcmple.o(.text)
    .text                                    0x0001b624   Section       36  init.o(.text)
    .text                                    0x0001b648   Section        0  llshl.o(.text)
    .text                                    0x0001b668   Section        0  llushr.o(.text)
    .text                                    0x0001b68a   Section        0  llsshr.o(.text)
    .text                                    0x0001b6b0   Section        0  depilogue.o(.text)
    .text                                    0x0001b76e   Section        0  __dczerorl.o(.text)
    i.ADC_IRQHandler                         0x0001b7a8   Section        0  nrf_drv_adc.o(i.ADC_IRQHandler)
    i.GPIOTE_IRQHandler                      0x0001b808   Section        0  nrf_drv_gpiote.o(i.GPIOTE_IRQHandler)
    i.NVIC_SystemReset                       0x0001b964   Section        0  main.o(i.NVIC_SystemReset)
    NVIC_SystemReset                         0x0001b965   Thumb Code    18  main.o(i.NVIC_SystemReset)
    i.RTC1_IRQHandler                        0x0001b980   Section        0  app_timer.o(i.RTC1_IRQHandler)
    i.SPI0_TWI0_IRQHandler                   0x0001b9a0   Section        0  nrf_drv_twi.o(i.SPI0_TWI0_IRQHandler)
    i.SWI0_IRQHandler                        0x0001b9b4   Section        0  app_timer.o(i.SWI0_IRQHandler)
    i.SWI2_IRQHandler                        0x0001b9bc   Section        0  softdevice_handler.o(i.SWI2_IRQHandler)
    i.SystemInit                             0x0001b9dc   Section        0  system_nrf51.o(i.SystemInit)
    i.TIMER0_IRQHandler                      0x0001ba38   Section        0  nrf_drv_timer.o(i.TIMER0_IRQHandler)
    i.TIMER1_IRQHandler                      0x0001ba50   Section        0  nrf_drv_timer.o(i.TIMER1_IRQHandler)
    i.TIMER2_IRQHandler                      0x0001ba68   Section        0  nrf_drv_timer.o(i.TIMER2_IRQHandler)
    i.UART0_IRQHandler                       0x0001ba80   Section        0  nrf_drv_uart.o(i.UART0_IRQHandler)
    i.__0snprintf                            0x0001ba88   Section        0  printfa.o(i.__0snprintf)
    i.__ARM_clz                              0x0001babc   Section        0  depilogue.o(i.__ARM_clz)
    i.__ARM_common_switch8                   0x0001baea   Section        0  ble_dfu.o(i.__ARM_common_switch8)
    i.__NVIC_ClearPendingIRQ                 0x0001bb04   Section        0  app_timer.o(i.__NVIC_ClearPendingIRQ)
    __NVIC_ClearPendingIRQ                   0x0001bb05   Thumb Code    18  app_timer.o(i.__NVIC_ClearPendingIRQ)
    i.__NVIC_EnableIRQ                       0x0001bb1c   Section        0  app_timer.o(i.__NVIC_EnableIRQ)
    __NVIC_EnableIRQ                         0x0001bb1d   Thumb Code    18  app_timer.o(i.__NVIC_EnableIRQ)
    i.__NVIC_SetPendingIRQ                   0x0001bb34   Section        0  app_timer.o(i.__NVIC_SetPendingIRQ)
    __NVIC_SetPendingIRQ                     0x0001bb35   Thumb Code    18  app_timer.o(i.__NVIC_SetPendingIRQ)
    i.__NVIC_SetPriority                     0x0001bb4c   Section        0  app_timer.o(i.__NVIC_SetPriority)
    __NVIC_SetPriority                       0x0001bb4d   Thumb Code    60  app_timer.o(i.__NVIC_SetPriority)
    i.__scatterload_copy                     0x0001bb90   Section       14  handlers.o(i.__scatterload_copy)
    i.__scatterload_null                     0x0001bb9e   Section        2  handlers.o(i.__scatterload_null)
    i.__scatterload_zeroinit                 0x0001bba0   Section       14  handlers.o(i.__scatterload_zeroinit)
    i._fp_digits                             0x0001bbb0   Section        0  printfa.o(i._fp_digits)
    _fp_digits                               0x0001bbb1   Thumb Code   344  printfa.o(i._fp_digits)
    i._printf_core                           0x0001bd24   Section        0  printfa.o(i._printf_core)
    _printf_core                             0x0001bd25   Thumb Code  1754  printfa.o(i._printf_core)
    i._printf_post_padding                   0x0001c410   Section        0  printfa.o(i._printf_post_padding)
    _printf_post_padding                     0x0001c411   Thumb Code    32  printfa.o(i._printf_post_padding)
    i._printf_pre_padding                    0x0001c430   Section        0  printfa.o(i._printf_pre_padding)
    _printf_pre_padding                      0x0001c431   Thumb Code    44  printfa.o(i._printf_pre_padding)
    i._snputc                                0x0001c45c   Section        0  printfa.o(i._snputc)
    _snputc                                  0x0001c45d   Thumb Code    22  printfa.o(i._snputc)
    i.adc_sample_process                     0x0001c474   Section        0  nrf_drv_adc.o(i.adc_sample_process)
    adc_sample_process                       0x0001c475   Thumb Code    82  nrf_drv_adc.o(i.adc_sample_process)
    i.adc_timeout_handler                    0x0001c4d8   Section        0  main.o(i.adc_timeout_handler)
    adc_timeout_handler                      0x0001c4d9   Thumb Code    58  main.o(i.adc_timeout_handler)
    i.adv_data_encode                        0x0001c518   Section        0  ble_advdata.o(i.adv_data_encode)
    i.advdata_check                          0x0001c6a8   Section        0  ble_advdata.o(i.advdata_check)
    advdata_check                            0x0001c6a9   Thumb Code    14  ble_advdata.o(i.advdata_check)
    i.advertising_init                       0x0001c6b8   Section        0  main.o(i.advertising_init)
    advertising_init                         0x0001c6b9   Thumb Code   110  main.o(i.advertising_init)
    i.advertising_stop                       0x0001c730   Section        0  main.o(i.advertising_stop)
    advertising_stop                         0x0001c731   Thumb Code    14  main.o(i.advertising_stop)
    i.app_button_enable                      0x0001c740   Section        0  app_button.o(i.app_button_enable)
    i.app_button_init                        0x0001c764   Section        0  app_button.o(i.app_button_init)
    i.app_error_fault_handler                0x0001c7d8   Section        0  app_error_weak.o(i.app_error_fault_handler)
    i.app_error_handler_bare                 0x0001c7f4   Section        0  app_error.o(i.app_error_handler_bare)
    i.app_evt_notify                         0x0001c80c   Section        0  device_manager_peripheral_1.o(i.app_evt_notify)
    app_evt_notify                           0x0001c80d   Thumb Code     6  device_manager_peripheral_1.o(i.app_evt_notify)
    i.app_notify                             0x0001c818   Section        0  pstorage.o(i.app_notify)
    app_notify                               0x0001c819   Thumb Code    34  pstorage.o(i.app_notify)
    i.app_notify_error_state_transit         0x0001c844   Section        0  pstorage.o(i.app_notify_error_state_transit)
    app_notify_error_state_transit           0x0001c845   Thumb Code    26  pstorage.o(i.app_notify_error_state_transit)
    i.app_timer_create                       0x0001c864   Section        0  app_timer.o(i.app_timer_create)
    i.app_timer_init                         0x0001c898   Section        0  app_timer.o(i.app_timer_init)
    i.app_timer_start                        0x0001c928   Section        0  app_timer.o(i.app_timer_start)
    i.app_timer_stop                         0x0001c978   Section        0  app_timer.o(i.app_timer_stop)
    i.appearance_encode                      0x0001c9ac   Section        0  ble_advdata.o(i.appearance_encode)
    appearance_encode                        0x0001c9ad   Thumb Code    72  ble_advdata.o(i.appearance_encode)
    i.bas_init                               0x0001c9f4   Section        0  main.o(i.bas_init)
    bas_init                                 0x0001c9f5   Thumb Code    52  main.o(i.bas_init)
    i.battery_level_char_add                 0x0001ca2c   Section        0  ble_bas.o(i.battery_level_char_add)
    battery_level_char_add                   0x0001ca2d   Thumb Code   308  ble_bas.o(i.battery_level_char_add)
    i.ble_advdata_set                        0x0001cb68   Section        0  ble_advdata.o(i.ble_advdata_set)
    i.ble_advertising_init                   0x0001cbd4   Section        0  ble_advertising.o(i.ble_advertising_init)
    i.ble_advertising_on_ble_evt             0x0001ccfc   Section        0  ble_advertising.o(i.ble_advertising_on_ble_evt)
    i.ble_advertising_on_sys_evt             0x0001cda4   Section        0  ble_advertising.o(i.ble_advertising_on_sys_evt)
    i.ble_advertising_peer_address_clear     0x0001cdd4   Section        0  ble_advertising.o(i.ble_advertising_peer_address_clear)
    ble_advertising_peer_address_clear       0x0001cdd5   Thumb Code    12  ble_advertising.o(i.ble_advertising_peer_address_clear)
    i.ble_advertising_restart_without_whitelist 0x0001cde4   Section        0  ble_advertising.o(i.ble_advertising_restart_without_whitelist)
    i.ble_advertising_start                  0x0001ce3c   Section        0  ble_advertising.o(i.ble_advertising_start)
    i.ble_bas_init                           0x0001d01c   Section        0  ble_bas.o(i.ble_bas_init)
    i.ble_bas_on_ble_evt                     0x0001d064   Section        0  ble_bas.o(i.ble_bas_on_ble_evt)
    i.ble_conn_params_init                   0x0001d090   Section        0  ble_conn_params.o(i.ble_conn_params_init)
    i.ble_conn_params_on_ble_evt             0x0001d0ec   Section        0  ble_conn_params.o(i.ble_conn_params_on_ble_evt)
    i.ble_conn_params_stop                   0x0001d118   Section        0  ble_conn_params.o(i.ble_conn_params_stop)
    i.ble_custom_service_init                0x0001d128   Section        0  ble_custom_service.o(i.ble_custom_service_init)
    i.ble_custom_service_on_ble_evt          0x0001d190   Section        0  ble_custom_service.o(i.ble_custom_service_on_ble_evt)
    i.ble_custom_service_send_string_1       0x0001d1bc   Section        0  ble_custom_service.o(i.ble_custom_service_send_string_1)
    i.ble_device_addr_encode                 0x0001d210   Section        0  ble_advdata.o(i.ble_device_addr_encode)
    ble_device_addr_encode                   0x0001d211   Thumb Code   100  ble_advdata.o(i.ble_device_addr_encode)
    i.ble_dfu_init                           0x0001d274   Section        0  ble_dfu.o(i.ble_dfu_init)
    i.ble_dfu_on_ble_evt                     0x0001d30c   Section        0  ble_dfu.o(i.ble_dfu_on_ble_evt)
    i.ble_dfu_response_send                  0x0001d348   Section        0  ble_dfu.o(i.ble_dfu_response_send)
    i.ble_evt_dispatch                       0x0001d3a8   Section        0  main.o(i.ble_evt_dispatch)
    ble_evt_dispatch                         0x0001d3a9   Thumb Code    64  main.o(i.ble_evt_dispatch)
    i.ble_srv_report_ref_encode              0x0001d3ec   Section        0  ble_srv_common.o(i.ble_srv_report_ref_encode)
    i.ble_stack_init                         0x0001d3fc   Section        0  main.o(i.ble_stack_init)
    ble_stack_init                           0x0001d3fd   Thumb Code   118  main.o(i.ble_stack_init)
    i.bond_data_load                         0x0001d488   Section        0  device_manager_peripheral_1.o(i.bond_data_load)
    i.bootloader_start                       0x0001d4d0   Section        0  dfu_app_handler.o(i.bootloader_start)
    bootloader_start                         0x0001d4d1   Thumb Code    86  dfu_app_handler.o(i.bootloader_start)
    i.bootloader_util_app_start              0x0001d538   Section        0  bootloader_util.o(i.bootloader_util_app_start)
    i.bsp_btn_ble_on_ble_evt                 0x0001d540   Section        0  bsp_btn_ble.o(i.bsp_btn_ble_on_ble_evt)
    i.bsp_button_event_handler               0x0001d560   Section        0  bsp.o(i.bsp_button_event_handler)
    bsp_button_event_handler                 0x0001d561   Thumb Code   132  bsp.o(i.bsp_button_event_handler)
    i.bsp_event_handler                      0x0001d5ec   Section        0  main.o(i.bsp_event_handler)
    i.bsp_event_to_button_action_assign      0x0001d684   Section        0  bsp.o(i.bsp_event_to_button_action_assign)
    i.bsp_init                               0x0001d6c0   Section        0  bsp.o(i.bsp_init)
    i.button_timeout_coil_handler            0x0001d720   Section        0  main.o(i.button_timeout_coil_handler)
    i.button_timeout_pwr_handler             0x0001d7b8   Section        0  main.o(i.button_timeout_pwr_handler)
    button_timeout_pwr_handler               0x0001d7b9   Thumb Code   226  main.o(i.button_timeout_pwr_handler)
    i.button_timer_handler                   0x0001d8b0   Section        0  bsp.o(i.button_timer_handler)
    button_timer_handler                     0x0001d8b1   Thumb Code    12  bsp.o(i.button_timer_handler)
    i.buttons_leds_init                      0x0001d8bc   Section        0  main.o(i.buttons_leds_init)
    buttons_leds_init                        0x0001d8bd   Thumb Code    58  main.o(i.buttons_leds_init)
    i.channel_free                           0x0001d900   Section        0  nrf_drv_gpiote.o(i.channel_free)
    channel_free                             0x0001d901   Thumb Code    22  nrf_drv_gpiote.o(i.channel_free)
    i.channel_port_alloc                     0x0001d91c   Section        0  nrf_drv_gpiote.o(i.channel_port_alloc)
    channel_port_alloc                       0x0001d91d   Thumb Code    72  nrf_drv_gpiote.o(i.channel_port_alloc)
    i.channel_port_get                       0x0001d968   Section        0  nrf_drv_gpiote.o(i.channel_port_get)
    channel_port_get                         0x0001d969   Thumb Code    10  nrf_drv_gpiote.o(i.channel_port_get)
    i.clear_operation_execute                0x0001d978   Section        0  pstorage.o(i.clear_operation_execute)
    clear_operation_execute                  0x0001d979   Thumb Code   210  pstorage.o(i.clear_operation_execute)
    i.clear_post_processing_run              0x0001da54   Section        0  pstorage.o(i.clear_post_processing_run)
    clear_post_processing_run                0x0001da55   Thumb Code    30  pstorage.o(i.clear_post_processing_run)
    i.cmd_process                            0x0001da78   Section        0  pstorage.o(i.cmd_process)
    cmd_process                              0x0001da79   Thumb Code    50  pstorage.o(i.cmd_process)
    i.cmd_queue_dequeue                      0x0001dab4   Section        0  pstorage.o(i.cmd_queue_dequeue)
    cmd_queue_dequeue                        0x0001dab5   Thumb Code    16  pstorage.o(i.cmd_queue_dequeue)
    i.cmd_queue_element_init                 0x0001dac8   Section        0  pstorage.o(i.cmd_queue_element_init)
    cmd_queue_element_init                   0x0001dac9   Thumb Code    26  pstorage.o(i.cmd_queue_element_init)
    i.cmd_queue_enqueue                      0x0001dae8   Section        0  pstorage.o(i.cmd_queue_enqueue)
    cmd_queue_enqueue                        0x0001dae9   Thumb Code    68  pstorage.o(i.cmd_queue_enqueue)
    i.cmd_queue_init                         0x0001db34   Section        0  pstorage.o(i.cmd_queue_init)
    cmd_queue_init                           0x0001db35   Thumb Code    26  pstorage.o(i.cmd_queue_init)
    i.command_end_procedure_run              0x0001db54   Section        0  pstorage.o(i.command_end_procedure_run)
    command_end_procedure_run                0x0001db55   Thumb Code    32  pstorage.o(i.command_end_procedure_run)
    i.command_queue_element_consume          0x0001db78   Section        0  pstorage.o(i.command_queue_element_consume)
    command_queue_element_consume            0x0001db79   Thumb Code    34  pstorage.o(i.command_queue_element_consume)
    i.compare_reg_update                     0x0001dba0   Section        0  app_timer.o(i.compare_reg_update)
    compare_reg_update                       0x0001dba1   Thumb Code    98  app_timer.o(i.compare_reg_update)
    i.conn_int_check                         0x0001dc0c   Section        0  ble_advdata.o(i.conn_int_check)
    conn_int_check                           0x0001dc0d   Thumb Code    62  ble_advdata.o(i.conn_int_check)
    i.conn_int_encode                        0x0001dc50   Section        0  ble_advdata.o(i.conn_int_encode)
    conn_int_encode                          0x0001dc51   Thumb Code    90  ble_advdata.o(i.conn_int_encode)
    i.conn_params_error_handler              0x0001dcaa   Section        0  main.o(i.conn_params_error_handler)
    conn_params_error_handler                0x0001dcab   Thumb Code     8  main.o(i.conn_params_error_handler)
    i.conn_params_init                       0x0001dcb4   Section        0  main.o(i.conn_params_init)
    conn_params_init                         0x0001dcb5   Thumb Code    64  main.o(i.conn_params_init)
    i.conn_params_negotiation                0x0001dcfc   Section        0  ble_conn_params.o(i.conn_params_negotiation)
    conn_params_negotiation                  0x0001dcfd   Thumb Code    94  ble_conn_params.o(i.conn_params_negotiation)
    i.connection_instance_find               0x0001dd68   Section        0  device_manager_peripheral_1.o(i.connection_instance_find)
    connection_instance_find                 0x0001dd69   Thumb Code    54  device_manager_peripheral_1.o(i.connection_instance_find)
    i.connection_instance_init               0x0001dda8   Section        0  device_manager_peripheral_1.o(i.connection_instance_init)
    connection_instance_init                 0x0001dda9   Thumb Code    30  device_manager_peripheral_1.o(i.connection_instance_init)
    i.custom_service_data_handler            0x0001ddcc   Section        0  main.o(i.custom_service_data_handler)
    i.data_page_erase_state_run              0x0001ddec   Section        0  pstorage.o(i.data_page_erase_state_run)
    data_page_erase_state_run                0x0001dded   Thumb Code    92  pstorage.o(i.data_page_erase_state_run)
    i.data_to_swap_write_state_run           0x0001de4c   Section        0  pstorage.o(i.data_to_swap_write_state_run)
    data_to_swap_write_state_run             0x0001de4d   Thumb Code    34  pstorage.o(i.data_to_swap_write_state_run)
    i.detection_delay_timeout_handler        0x0001de74   Section        0  app_button.o(i.detection_delay_timeout_handler)
    detection_delay_timeout_handler          0x0001de75   Thumb Code    90  app_button.o(i.detection_delay_timeout_handler)
    i.device_context_store                   0x0001ded4   Section        0  device_manager_peripheral_1.o(i.device_context_store)
    device_context_store                     0x0001ded5   Thumb Code   150  device_manager_peripheral_1.o(i.device_context_store)
    i.device_instance_allocate               0x0001df88   Section        0  device_manager_peripheral_1.o(i.device_instance_allocate)
    device_instance_allocate                 0x0001df89   Thumb Code    72  device_manager_peripheral_1.o(i.device_instance_allocate)
    i.device_instance_find                   0x0001dfd8   Section        0  device_manager_peripheral_1.o(i.device_instance_find)
    device_instance_find                     0x0001dfd9   Thumb Code    70  device_manager_peripheral_1.o(i.device_instance_find)
    i.device_instance_free                   0x0001e024   Section        0  device_manager_peripheral_1.o(i.device_instance_free)
    device_instance_free                     0x0001e025   Thumb Code    44  device_manager_peripheral_1.o(i.device_instance_free)
    i.device_manager_evt_handler             0x0001e054   Section        0  main.o(i.device_manager_evt_handler)
    device_manager_evt_handler               0x0001e055   Thumb Code    16  main.o(i.device_manager_evt_handler)
    i.device_manager_init                    0x0001e064   Section        0  main.o(i.device_manager_init)
    device_manager_init                      0x0001e065   Thumb Code   108  main.o(i.device_manager_init)
    i.dfu_app_dm_appl_instance_set           0x0001e0d8   Section        0  dfu_app_handler.o(i.dfu_app_dm_appl_instance_set)
    i.dfu_app_on_dfu_evt                     0x0001e0f0   Section        0  dfu_app_handler.o(i.dfu_app_on_dfu_evt)
    i.dfu_app_peer_data_set                  0x0001e114   Section        0  dfu_app_handler.o(i.dfu_app_peer_data_set)
    dfu_app_peer_data_set                    0x0001e115   Thumb Code   156  dfu_app_handler.o(i.dfu_app_peer_data_set)
    i.dfu_app_reset_prepare                  0x0001e1b8   Section        0  dfu_app_handler.o(i.dfu_app_reset_prepare)
    dfu_app_reset_prepare                    0x0001e1b9   Thumb Code     2  dfu_app_handler.o(i.dfu_app_reset_prepare)
    i.dfu_app_reset_prepare_set              0x0001e1bc   Section        0  dfu_app_handler.o(i.dfu_app_reset_prepare_set)
    i.dfu_ctrl_pt_add                        0x0001e1c8   Section        0  ble_dfu.o(i.dfu_ctrl_pt_add)
    dfu_ctrl_pt_add                          0x0001e1c9   Thumb Code   136  ble_dfu.o(i.dfu_ctrl_pt_add)
    i.dfu_pkt_char_add                       0x0001e254   Section        0  ble_dfu.o(i.dfu_pkt_char_add)
    dfu_pkt_char_add                         0x0001e255   Thumb Code   136  ble_dfu.o(i.dfu_pkt_char_add)
    i.dfu_rev_char_add                       0x0001e2e0   Section        0  ble_dfu.o(i.dfu_rev_char_add)
    dfu_rev_char_add                         0x0001e2e1   Thumb Code   134  ble_dfu.o(i.dfu_rev_char_add)
    i.dm_application_context_set             0x0001e36c   Section        0  device_manager_peripheral_1.o(i.dm_application_context_set)
    i.dm_application_instance_set            0x0001e448   Section        0  device_manager_peripheral_1.o(i.dm_application_instance_set)
    i.dm_ble_evt_handler                     0x0001e490   Section        0  device_manager_peripheral_1.o(i.dm_ble_evt_handler)
    i.dm_distributed_keys_get                0x0001e8b0   Section        0  device_manager_peripheral_1.o(i.dm_distributed_keys_get)
    i.dm_handle_get                          0x0001e968   Section        0  device_manager_peripheral_1.o(i.dm_handle_get)
    i.dm_handle_initialize                   0x0001e9c4   Section        0  device_manager_peripheral_1.o(i.dm_handle_initialize)
    i.dm_init                                0x0001e9e0   Section        0  device_manager_peripheral_1.o(i.dm_init)
    i.dm_peer_addr_get                       0x0001eac0   Section        0  device_manager_peripheral_1.o(i.dm_peer_addr_get)
    i.dm_pstorage_cb_handler                 0x0001eb54   Section        0  device_manager_peripheral_1.o(i.dm_pstorage_cb_handler)
    dm_pstorage_cb_handler                   0x0001eb55   Thumb Code   444  device_manager_peripheral_1.o(i.dm_pstorage_cb_handler)
    i.dm_register                            0x0001ed20   Section        0  device_manager_peripheral_1.o(i.dm_register)
    i.double_push_timeout_handler            0x0001ed9c   Section        0  main.o(i.double_push_timeout_handler)
    double_push_timeout_handler              0x0001ed9d   Thumb Code    96  main.o(i.double_push_timeout_handler)
    i.elapsed_ticks_acquire                  0x0001ee08   Section        0  app_timer.o(i.elapsed_ticks_acquire)
    elapsed_ticks_acquire                    0x0001ee09   Thumb Code    58  app_timer.o(i.elapsed_ticks_acquire)
    i.expired_timers_handler                 0x0001ee48   Section        0  app_timer.o(i.expired_timers_handler)
    expired_timers_handler                   0x0001ee49   Thumb Code    66  app_timer.o(i.expired_timers_handler)
    i.flags_encode                           0x0001ee90   Section        0  ble_advdata.o(i.flags_encode)
    flags_encode                             0x0001ee91   Thumb Code    50  ble_advdata.o(i.flags_encode)
    i.flash_access_in_progress               0x0001eec2   Section        0  ble_advertising.o(i.flash_access_in_progress)
    flash_access_in_progress                 0x0001eec3   Thumb Code    56  ble_advertising.o(i.flash_access_in_progress)
    i.flash_api_err_code_process             0x0001eefc   Section        0  pstorage.o(i.flash_api_err_code_process)
    flash_api_err_code_process               0x0001eefd   Thumb Code    28  pstorage.o(i.flash_api_err_code_process)
    i.flash_page_erase                       0x0001ef1c   Section        0  pstorage.o(i.flash_page_erase)
    flash_page_erase                         0x0001ef1d   Thumb Code    10  pstorage.o(i.flash_page_erase)
    i.flash_write                            0x0001ef26   Section        0  pstorage.o(i.flash_write)
    flash_write                              0x0001ef27   Thumb Code    10  pstorage.o(i.flash_write)
    i.fs_queued_op_count_get                 0x0001ef30   Section        0  fstorage.o(i.fs_queued_op_count_get)
    i.gap_params_init                        0x0001ef48   Section        0  main.o(i.gap_params_init)
    gap_params_init                          0x0001ef49   Thumb Code   102  main.o(i.gap_params_init)
    i.gattc_context_apply                    0x0001efbc   Section        0  device_manager_peripheral_1.o(i.gattc_context_apply)
    gattc_context_apply                      0x0001efbd   Thumb Code     4  device_manager_peripheral_1.o(i.gattc_context_apply)
    i.gattc_context_load                     0x0001efc0   Section        0  device_manager_peripheral_1.o(i.gattc_context_load)
    gattc_context_load                       0x0001efc1   Thumb Code     4  device_manager_peripheral_1.o(i.gattc_context_load)
    i.gattc_context_store                    0x0001efc4   Section        0  device_manager_peripheral_1.o(i.gattc_context_store)
    gattc_context_store                      0x0001efc5   Thumb Code     4  device_manager_peripheral_1.o(i.gattc_context_store)
    i.gatts_context_apply                    0x0001efc8   Section        0  device_manager_peripheral_1.o(i.gatts_context_apply)
    gatts_context_apply                      0x0001efc9   Thumb Code   164  device_manager_peripheral_1.o(i.gatts_context_apply)
    i.gatts_context_load                     0x0001f07c   Section        0  device_manager_peripheral_1.o(i.gatts_context_load)
    gatts_context_load                       0x0001f07d   Thumb Code    48  device_manager_peripheral_1.o(i.gatts_context_load)
    i.gatts_context_store                    0x0001f0b0   Section        0  device_manager_peripheral_1.o(i.gatts_context_store)
    gatts_context_store                      0x0001f0b1   Thumb Code   160  device_manager_peripheral_1.o(i.gatts_context_store)
    i.gattsc_context_apply                   0x0001f15c   Section        0  device_manager_peripheral_1.o(i.gattsc_context_apply)
    gattsc_context_apply                     0x0001f15d   Thumb Code     8  device_manager_peripheral_1.o(i.gattsc_context_apply)
    i.gattsc_context_load                    0x0001f164   Section        0  device_manager_peripheral_1.o(i.gattsc_context_load)
    gattsc_context_load                      0x0001f165   Thumb Code     8  device_manager_peripheral_1.o(i.gattsc_context_load)
    i.gattsc_context_store                   0x0001f16c   Section        0  device_manager_peripheral_1.o(i.gattsc_context_store)
    gattsc_context_store                     0x0001f16d   Thumb Code     8  device_manager_peripheral_1.o(i.gattsc_context_store)
    i.gpiote_event_handler                   0x0001f174   Section        0  app_button.o(i.gpiote_event_handler)
    gpiote_event_handler                     0x0001f175   Thumb Code    76  app_button.o(i.gpiote_event_handler)
    i.head_restore_state_run                 0x0001f1c8   Section        0  pstorage.o(i.head_restore_state_run)
    head_restore_state_run                   0x0001f1c9   Thumb Code    82  pstorage.o(i.head_restore_state_run)
    i.intern_softdevice_events_execute       0x0001f220   Section        0  softdevice_handler.o(i.intern_softdevice_events_execute)
    i.interrupts_disable                     0x0001f298   Section        0  dfu_app_handler.o(i.interrupts_disable)
    interrupts_disable                       0x0001f299   Thumb Code    54  dfu_app_handler.o(i.interrupts_disable)
    i.irq_handler                            0x0001f2d4   Section        0  nrf_drv_timer.o(i.irq_handler)
    irq_handler                              0x0001f2d5   Thumb Code    76  nrf_drv_timer.o(i.irq_handler)
    i.irq_handler_twi                        0x0001f320   Section        0  nrf_drv_twi.o(i.irq_handler_twi)
    irq_handler_twi                          0x0001f321   Thumb Code   176  nrf_drv_twi.o(i.irq_handler_twi)
    i.is_cccd_configured                     0x0001f3d0   Section        0  ble_dfu.o(i.is_cccd_configured)
    is_cccd_configured                       0x0001f3d1   Thumb Code    58  ble_dfu.o(i.is_cccd_configured)
    i.is_conn_params_ok                      0x0001f40c   Section        0  ble_conn_params.o(i.is_conn_params_ok)
    is_conn_params_ok                        0x0001f40d   Thumb Code    24  ble_conn_params.o(i.is_conn_params_ok)
    i.is_disabled_in_debug_needed            0x0001f428   Section        0  system_nrf51.o(i.is_disabled_in_debug_needed)
    is_disabled_in_debug_needed              0x0001f429   Thumb Code    42  system_nrf51.o(i.is_disabled_in_debug_needed)
    i.is_manual_peripheral_setup_needed      0x0001f458   Section        0  system_nrf51.o(i.is_manual_peripheral_setup_needed)
    is_manual_peripheral_setup_needed        0x0001f459   Thumb Code    78  system_nrf51.o(i.is_manual_peripheral_setup_needed)
    i.is_page_erase_required                 0x0001f4ac   Section        0  pstorage.o(i.is_page_erase_required)
    is_page_erase_required                   0x0001f4ad   Thumb Code    60  pstorage.o(i.is_page_erase_required)
    i.is_peripheral_domain_setup_needed      0x0001f4f0   Section        0  system_nrf51.o(i.is_peripheral_domain_setup_needed)
    is_peripheral_domain_setup_needed        0x0001f4f1   Thumb Code    60  system_nrf51.o(i.is_peripheral_domain_setup_needed)
    i.is_tail_data_page_swap_required        0x0001f530   Section        0  pstorage.o(i.is_tail_data_page_swap_required)
    is_tail_data_page_swap_required          0x0001f531   Thumb Code    56  pstorage.o(i.is_tail_data_page_swap_required)
    i.is_word_aligned                        0x0001f570   Section        0  pstorage.o(i.is_word_aligned)
    is_word_aligned                          0x0001f571   Thumb Code    12  pstorage.o(i.is_word_aligned)
    i.le_role_encode                         0x0001f57c   Section        0  ble_advdata.o(i.le_role_encode)
    le_role_encode                           0x0001f57d   Thumb Code    88  ble_advdata.o(i.le_role_encode)
    i.list_deletions_handler                 0x0001f5d4   Section        0  app_timer.o(i.list_deletions_handler)
    list_deletions_handler                   0x0001f5d5   Thumb Code   110  app_timer.o(i.list_deletions_handler)
    i.list_insertions_handler                0x0001f648   Section        0  app_timer.o(i.list_insertions_handler)
    list_insertions_handler                  0x0001f649   Thumb Code   204  app_timer.o(i.list_insertions_handler)
    i.main                                   0x0001f71c   Section        0  main.o(i.main)
    i.manuf_specific_data_encode             0x0001f764   Section        0  ble_advdata.o(i.manuf_specific_data_encode)
    manuf_specific_data_encode               0x0001f765   Thumb Code   108  ble_advdata.o(i.manuf_specific_data_encode)
    i.name_encode                            0x0001f7d0   Section        0  ble_advdata.o(i.name_encode)
    name_encode                              0x0001f7d1   Thumb Code   156  ble_advdata.o(i.name_encode)
    i.no_service_context_apply               0x0001f86c   Section        0  device_manager_peripheral_1.o(i.no_service_context_apply)
    no_service_context_apply                 0x0001f86d   Thumb Code     4  device_manager_peripheral_1.o(i.no_service_context_apply)
    i.no_service_context_load                0x0001f870   Section        0  device_manager_peripheral_1.o(i.no_service_context_load)
    no_service_context_load                  0x0001f871   Thumb Code     4  device_manager_peripheral_1.o(i.no_service_context_load)
    i.no_service_context_store               0x0001f874   Section        0  device_manager_peripheral_1.o(i.no_service_context_store)
    no_service_context_store                 0x0001f875   Thumb Code     4  device_manager_peripheral_1.o(i.no_service_context_store)
    i.nrf_adc_event_check                    0x0001f878   Section        0  nrf_drv_adc.o(i.nrf_adc_event_check)
    nrf_adc_event_check                      0x0001f879   Thumb Code    14  nrf_drv_adc.o(i.nrf_adc_event_check)
    i.nrf_delay_ms                           0x0001f88c   Section        0  nrf_delay.o(i.nrf_delay_ms)
    i.nrf_drv_adc_sample_convert             0x0001f8ac   Section        0  nrf_drv_adc.o(i.nrf_drv_adc_sample_convert)
    i.nrf_drv_common_irq_enable              0x0001f914   Section        0  nrf_drv_common.o(i.nrf_drv_common_irq_enable)
    i.nrf_drv_gpiote_in_event_enable         0x0001f97c   Section        0  nrf_drv_gpiote.o(i.nrf_drv_gpiote_in_event_enable)
    i.nrf_drv_gpiote_in_init                 0x0001fa24   Section        0  nrf_drv_gpiote.o(i.nrf_drv_gpiote_in_init)
    i.nrf_drv_gpiote_in_is_set               0x0001fac8   Section        0  nrf_drv_gpiote.o(i.nrf_drv_gpiote_in_is_set)
    i.nrf_drv_gpiote_init                    0x0001fae0   Section        0  nrf_drv_gpiote.o(i.nrf_drv_gpiote_init)
    i.nrf_drv_gpiote_is_init                 0x0001fb34   Section        0  nrf_drv_gpiote.o(i.nrf_drv_gpiote_is_init)
    i.nrf_gpio_cfg                           0x0001fb44   Section        0  main.o(i.nrf_gpio_cfg)
    nrf_gpio_cfg                             0x0001fb45   Thumb Code    32  main.o(i.nrf_gpio_cfg)
    i.nrf_gpio_cfg                           0x0001fb68   Section        0  nrf_drv_gpiote.o(i.nrf_gpio_cfg)
    nrf_gpio_cfg                             0x0001fb69   Thumb Code    32  nrf_drv_gpiote.o(i.nrf_gpio_cfg)
    i.nrf_gpio_cfg_output                    0x0001fb8c   Section        0  main.o(i.nrf_gpio_cfg_output)
    nrf_gpio_cfg_output                      0x0001fb8d   Thumb Code    20  main.o(i.nrf_gpio_cfg_output)
    i.nrf_gpio_cfg_sense_set                 0x0001fba0   Section        0  nrf_drv_gpiote.o(i.nrf_gpio_cfg_sense_set)
    nrf_gpio_cfg_sense_set                   0x0001fba1   Thumb Code    26  nrf_drv_gpiote.o(i.nrf_gpio_cfg_sense_set)
    i.nrf_gpio_pin_clear                     0x0001fbc0   Section        0  main.o(i.nrf_gpio_pin_clear)
    nrf_gpio_pin_clear                       0x0001fbc1   Thumb Code    10  main.o(i.nrf_gpio_pin_clear)
    i.nrf_gpio_pin_set                       0x0001fbd0   Section        0  main.o(i.nrf_gpio_pin_set)
    nrf_gpio_pin_set                         0x0001fbd1   Thumb Code    10  main.o(i.nrf_gpio_pin_set)
    i.nrf_gpiote_event_is_set                0x0001fbe0   Section        0  nrf_drv_gpiote.o(i.nrf_gpiote_event_is_set)
    nrf_gpiote_event_is_set                  0x0001fbe1   Thumb Code    14  nrf_drv_gpiote.o(i.nrf_gpiote_event_is_set)
    i.nrf_twi_event_check                    0x0001fbf4   Section        0  nrf_drv_twi.o(i.nrf_twi_event_check)
    nrf_twi_event_check                      0x0001fbf5   Thumb Code    10  nrf_drv_twi.o(i.nrf_twi_event_check)
    i.nrf_uart_event_check                   0x0001fbfe   Section        0  nrf_drv_uart.o(i.nrf_uart_event_check)
    nrf_uart_event_check                     0x0001fbff   Thumb Code    10  nrf_drv_uart.o(i.nrf_uart_event_check)
    i.nrf_uart_int_enable_check              0x0001fc08   Section        0  nrf_drv_uart.o(i.nrf_uart_int_enable_check)
    nrf_uart_int_enable_check                0x0001fc09   Thumb Code    16  nrf_drv_uart.o(i.nrf_uart_int_enable_check)
    i.on_adv_evt                             0x0001fc18   Section        0  main.o(i.on_adv_evt)
    on_adv_evt                               0x0001fc19   Thumb Code     2  main.o(i.on_adv_evt)
    i.on_ble_evt                             0x0001fc1c   Section        0  main.o(i.on_ble_evt)
    on_ble_evt                               0x0001fc1d   Thumb Code    26  main.o(i.on_ble_evt)
    i.on_conn_params_evt                     0x0001fc3c   Section        0  main.o(i.on_conn_params_evt)
    on_conn_params_evt                       0x0001fc3d   Thumb Code    26  main.o(i.on_conn_params_evt)
    i.on_conn_params_update                  0x0001fc5c   Section        0  ble_conn_params.o(i.on_conn_params_update)
    on_conn_params_update                    0x0001fc5d   Thumb Code    18  ble_conn_params.o(i.on_conn_params_update)
    i.on_connect                             0x0001fc74   Section        0  ble_dfu.o(i.on_connect)
    on_connect                               0x0001fc75   Thumb Code     6  ble_dfu.o(i.on_connect)
    i.on_connect                             0x0001fc7c   Section        0  ble_conn_params.o(i.on_connect)
    on_connect                               0x0001fc7d   Thumb Code    40  ble_conn_params.o(i.on_connect)
    i.on_connect                             0x0001fcac   Section        0  ble_custom_service.o(i.on_connect)
    on_connect                               0x0001fcad   Thumb Code     6  ble_custom_service.o(i.on_connect)
    i.on_connect                             0x0001fcb2   Section        0  ble_bas.o(i.on_connect)
    on_connect                               0x0001fcb3   Thumb Code     6  ble_bas.o(i.on_connect)
    i.on_ctrl_pt_write                       0x0001fcb8   Section        0  ble_dfu.o(i.on_ctrl_pt_write)
    on_ctrl_pt_write                         0x0001fcb9   Thumb Code   306  ble_dfu.o(i.on_ctrl_pt_write)
    i.on_disconnect                          0x0001fdea   Section        0  ble_dfu.o(i.on_disconnect)
    on_disconnect                            0x0001fdeb   Thumb Code     8  ble_dfu.o(i.on_disconnect)
    i.on_disconnect                          0x0001fdf4   Section        0  ble_conn_params.o(i.on_disconnect)
    on_disconnect                            0x0001fdf5   Thumb Code    38  ble_conn_params.o(i.on_disconnect)
    i.on_disconnect                          0x0001fe28   Section        0  ble_custom_service.o(i.on_disconnect)
    on_disconnect                            0x0001fe29   Thumb Code     8  ble_custom_service.o(i.on_disconnect)
    i.on_disconnect                          0x0001fe30   Section        0  ble_bas.o(i.on_disconnect)
    on_disconnect                            0x0001fe31   Thumb Code     8  ble_bas.o(i.on_disconnect)
    i.on_rw_authorize_req                    0x0001fe38   Section        0  ble_dfu.o(i.on_rw_authorize_req)
    on_rw_authorize_req                      0x0001fe39   Thumb Code    58  ble_dfu.o(i.on_rw_authorize_req)
    i.on_write                               0x0001fe72   Section        0  ble_dfu.o(i.on_write)
    on_write                                 0x0001fe73   Thumb Code    32  ble_dfu.o(i.on_write)
    i.on_write                               0x0001fe94   Section        0  ble_conn_params.o(i.on_write)
    on_write                                 0x0001fe95   Thumb Code    64  ble_conn_params.o(i.on_write)
    i.on_write                               0x0001fedc   Section        0  ble_custom_service.o(i.on_write)
    on_write                                 0x0001fedd   Thumb Code    62  ble_custom_service.o(i.on_write)
    i.on_write                               0x0001ff1a   Section        0  ble_bas.o(i.on_write)
    on_write                                 0x0001ff1b   Thumb Code    62  ble_bas.o(i.on_write)
    i.peer_address_exists                    0x0001ff58   Section        0  ble_advertising.o(i.peer_address_exists)
    peer_address_exists                      0x0001ff59   Thumb Code    22  ble_advertising.o(i.peer_address_exists)
    i.peer_instance_init                     0x0001ff70   Section        0  device_manager_peripheral_1.o(i.peer_instance_init)
    peer_instance_init                       0x0001ff71   Thumb Code    60  device_manager_peripheral_1.o(i.peer_instance_init)
    i.pin_in_use_by_port                     0x0001ffb0   Section        0  nrf_drv_gpiote.o(i.pin_in_use_by_port)
    pin_in_use_by_port                       0x0001ffb1   Thumb Code    20  nrf_drv_gpiote.o(i.pin_in_use_by_port)
    i.pin_in_use_by_te                       0x0001ffc8   Section        0  nrf_drv_gpiote.o(i.pin_in_use_by_te)
    pin_in_use_by_te                         0x0001ffc9   Thumb Code    20  nrf_drv_gpiote.o(i.pin_in_use_by_te)
    i.pin_init                               0x0001ffe0   Section        0  main.o(i.pin_init)
    pin_init                                 0x0001ffe1   Thumb Code    44  main.o(i.pin_init)
    i.power_manage                           0x0002000c   Section        0  main.o(i.power_manage)
    i.pstorage_access_status_get             0x0002001c   Section        0  pstorage.o(i.pstorage_access_status_get)
    i.pstorage_block_identifier_get          0x00020044   Section        0  pstorage.o(i.pstorage_block_identifier_get)
    i.pstorage_clear                         0x000200b0   Section        0  pstorage.o(i.pstorage_clear)
    i.pstorage_flash_page_end                0x00020168   Section        0  pstorage.o(i.pstorage_flash_page_end)
    pstorage_flash_page_end                  0x00020169   Thumb Code    32  pstorage.o(i.pstorage_flash_page_end)
    i.pstorage_flash_page_size               0x0002018c   Section        0  pstorage.o(i.pstorage_flash_page_size)
    pstorage_flash_page_size                 0x0002018d   Thumb Code    10  pstorage.o(i.pstorage_flash_page_size)
    i.pstorage_init                          0x00020198   Section        0  pstorage.o(i.pstorage_init)
    i.pstorage_load                          0x000201e4   Section        0  pstorage.o(i.pstorage_load)
    i.pstorage_register                      0x000202a0   Section        0  pstorage.o(i.pstorage_register)
    i.pstorage_store                         0x0002036c   Section        0  pstorage.o(i.pstorage_store)
    i.pstorage_update                        0x00020410   Section        0  pstorage.o(i.pstorage_update)
    i.reset_prepare                          0x000204b4   Section        0  main.o(i.reset_prepare)
    reset_prepare                            0x000204b5   Thumb Code    52  main.o(i.reset_prepare)
    i.reset_timeout_handler                  0x000204f0   Section        0  main.o(i.reset_timeout_handler)
    reset_timeout_handler                    0x000204f1   Thumb Code     4  main.o(i.reset_timeout_handler)
    i.rtc1_init                              0x000204f4   Section        0  app_timer.o(i.rtc1_init)
    rtc1_init                                0x000204f5   Thumb Code    16  app_timer.o(i.rtc1_init)
    i.rtc1_start                             0x00020508   Section        0  app_timer.o(i.rtc1_start)
    rtc1_start                               0x00020509   Thumb Code    46  app_timer.o(i.rtc1_start)
    i.rtc1_stop                              0x00020544   Section        0  app_timer.o(i.rtc1_stop)
    rtc1_stop                                0x00020545   Thumb Code    58  app_timer.o(i.rtc1_stop)
    i.rtc_timeout_handler                    0x00020590   Section        0  main.o(i.rtc_timeout_handler)
    rtc_timeout_handler                      0x00020591   Thumb Code     2  main.o(i.rtc_timeout_handler)
    i.rx_byte                                0x00020594   Section        0  nrf_drv_uart.o(i.rx_byte)
    rx_byte                                  0x00020595   Thumb Code    44  nrf_drv_uart.o(i.rx_byte)
    i.rx_done_event                          0x000205cc   Section        0  nrf_drv_uart.o(i.rx_done_event)
    rx_done_event                            0x000205cd   Thumb Code    22  nrf_drv_uart.o(i.rx_done_event)
    i.sd_check_ram_start                     0x000205e8   Section        0  softdevice_handler.o(i.sd_check_ram_start)
    i.sd_nvic_EnableIRQ                      0x00020600   Section        0  softdevice_handler.o(i.sd_nvic_EnableIRQ)
    sd_nvic_EnableIRQ                        0x00020601   Thumb Code   150  softdevice_handler.o(i.sd_nvic_EnableIRQ)
    i.sec_mgr_oob_flags_encode               0x000206b0   Section        0  ble_advdata.o(i.sec_mgr_oob_flags_encode)
    sec_mgr_oob_flags_encode                 0x000206b1   Thumb Code    50  ble_advdata.o(i.sec_mgr_oob_flags_encode)
    i.service_data_encode                    0x000206e2   Section        0  ble_advdata.o(i.service_data_encode)
    service_data_encode                      0x000206e3   Thumb Code   142  ble_advdata.o(i.service_data_encode)
    i.services_init                          0x00020770   Section        0  main.o(i.services_init)
    services_init                            0x00020771   Thumb Code    74  main.o(i.services_init)
    i.sm_state_change                        0x000207d0   Section        0  pstorage.o(i.sm_state_change)
    sm_state_change                          0x000207d1   Thumb Code    12  pstorage.o(i.sm_state_change)
    i.softdevice_ble_evt_handler_set         0x000207e0   Section        0  softdevice_handler.o(i.softdevice_ble_evt_handler_set)
    i.softdevice_enable                      0x000207f4   Section        0  softdevice_handler.o(i.softdevice_enable)
    i.softdevice_enable_get_default_config   0x00020808   Section        0  softdevice_handler.o(i.softdevice_enable_get_default_config)
    i.softdevice_fault_handler               0x00020830   Section        0  softdevice_handler.o(i.softdevice_fault_handler)
    i.softdevice_handler_init                0x00020838   Section        0  softdevice_handler.o(i.softdevice_handler_init)
    i.softdevice_sys_evt_handler_set         0x00020878   Section        0  softdevice_handler.o(i.softdevice_sys_evt_handler_set)
    i.srdata_check                           0x0002088c   Section        0  ble_advdata.o(i.srdata_check)
    srdata_check                             0x0002088d   Thumb Code    14  ble_advdata.o(i.srdata_check)
    i.state_data_erase_entry_run             0x0002089c   Section        0  pstorage.o(i.state_data_erase_entry_run)
    state_data_erase_entry_run               0x0002089d   Thumb Code    12  pstorage.o(i.state_data_erase_entry_run)
    i.state_data_erase_swap_entry_run        0x000208ac   Section        0  pstorage.o(i.state_data_erase_swap_entry_run)
    state_data_erase_swap_entry_run          0x000208ad   Thumb Code   104  pstorage.o(i.state_data_erase_swap_entry_run)
    i.state_entry_action_run                 0x0002091c   Section        0  pstorage.o(i.state_entry_action_run)
    state_entry_action_run                   0x0002091d   Thumb Code    46  pstorage.o(i.state_entry_action_run)
    i.state_erase_data_page_entry_run        0x00020950   Section        0  pstorage.o(i.state_erase_data_page_entry_run)
    state_erase_data_page_entry_run          0x00020951   Thumb Code    12  pstorage.o(i.state_erase_data_page_entry_run)
    i.state_idle_entry_run                   0x00020960   Section        0  pstorage.o(i.state_idle_entry_run)
    state_idle_entry_run                     0x00020961   Thumb Code    16  pstorage.o(i.state_idle_entry_run)
    i.state_restore_head_entry_run           0x00020974   Section        0  pstorage.o(i.state_restore_head_entry_run)
    state_restore_head_entry_run             0x00020975   Thumb Code    36  pstorage.o(i.state_restore_head_entry_run)
    i.state_restore_tail_entry_run           0x0002099c   Section        0  pstorage.o(i.state_restore_tail_entry_run)
    state_restore_tail_entry_run             0x0002099d   Thumb Code    66  pstorage.o(i.state_restore_tail_entry_run)
    i.state_store_entry_run                  0x000209e8   Section        0  pstorage.o(i.state_store_entry_run)
    state_store_entry_run                    0x000209e9   Thumb Code     8  pstorage.o(i.state_store_entry_run)
    i.state_swap_erase_entry_run             0x000209f0   Section        0  pstorage.o(i.state_swap_erase_entry_run)
    state_swap_erase_entry_run               0x000209f1   Thumb Code    32  pstorage.o(i.state_swap_erase_entry_run)
    i.state_write_data_swap_entry_run        0x00020a10   Section        0  pstorage.o(i.state_write_data_swap_entry_run)
    state_write_data_swap_entry_run          0x00020a11   Thumb Code    42  pstorage.o(i.state_write_data_swap_entry_run)
    i.storage_operation_dummy_handler        0x00020a40   Section        0  device_manager_peripheral_1.o(i.storage_operation_dummy_handler)
    storage_operation_dummy_handler          0x00020a41   Thumb Code     4  device_manager_peripheral_1.o(i.storage_operation_dummy_handler)
    i.store_cmd_flash_write_execute          0x00020a44   Section        0  pstorage.o(i.store_cmd_flash_write_execute)
    store_cmd_flash_write_execute            0x00020a45   Thumb Code    84  pstorage.o(i.store_cmd_flash_write_execute)
    i.store_operation_execute                0x00020aa0   Section        0  pstorage.o(i.store_operation_execute)
    store_operation_execute                  0x00020aa1   Thumb Code    10  pstorage.o(i.store_operation_execute)
    i.swap_erase_state_run                   0x00020aac   Section        0  pstorage.o(i.swap_erase_state_run)
    swap_erase_state_run                     0x00020aad   Thumb Code    24  pstorage.o(i.swap_erase_state_run)
    i.swap_mac_addr                          0x00020ac8   Section        0  main.o(i.swap_mac_addr)
    i.swap_sub_sm_exit_action_run            0x00020af4   Section        0  pstorage.o(i.swap_sub_sm_exit_action_run)
    swap_sub_sm_exit_action_run              0x00020af5   Thumb Code     8  pstorage.o(i.swap_sub_sm_exit_action_run)
    i.swap_sub_state_entry_action_run        0x00020afc   Section        0  pstorage.o(i.swap_sub_state_entry_action_run)
    swap_sub_state_entry_action_run          0x00020afd   Thumb Code    12  pstorage.o(i.swap_sub_state_entry_action_run)
    i.swap_sub_state_err_busy_process        0x00020b10   Section        0  pstorage.o(i.swap_sub_state_err_busy_process)
    swap_sub_state_err_busy_process          0x00020b11   Thumb Code    20  pstorage.o(i.swap_sub_state_err_busy_process)
    i.swap_sub_state_state_change            0x00020b28   Section        0  pstorage.o(i.swap_sub_state_state_change)
    swap_sub_state_state_change              0x00020b29   Thumb Code    12  pstorage.o(i.swap_sub_state_state_change)
    i.sys_evt_dispatch                       0x00020b38   Section        0  main.o(i.sys_evt_dispatch)
    sys_evt_dispatch                         0x00020b39   Thumb Code     8  main.o(i.sys_evt_dispatch)
    i.tail_restore_state_run                 0x00020b40   Section        0  pstorage.o(i.tail_restore_state_run)
    tail_restore_state_run                   0x00020b41   Thumb Code    22  pstorage.o(i.tail_restore_state_run)
    i.tail_word_size_calculate               0x00020b5c   Section        0  pstorage.o(i.tail_word_size_calculate)
    tail_word_size_calculate                 0x00020b5d   Thumb Code    72  pstorage.o(i.tail_word_size_calculate)
    i.timeout_handler_exec                   0x00020ba8   Section        0  app_timer.o(i.timeout_handler_exec)
    timeout_handler_exec                     0x00020ba9   Thumb Code    34  app_timer.o(i.timeout_handler_exec)
    i.timer_list_handler                     0x00020bd0   Section        0  app_timer.o(i.timer_list_handler)
    timer_list_handler                       0x00020bd1   Thumb Code    76  app_timer.o(i.timer_list_handler)
    i.timer_list_handler_sched               0x00020c20   Section        0  app_timer.o(i.timer_list_handler_sched)
    timer_list_handler_sched                 0x00020c21   Thumb Code    10  app_timer.o(i.timer_list_handler_sched)
    i.timer_list_insert                      0x00020c2c   Section        0  app_timer.o(i.timer_list_insert)
    timer_list_insert                        0x00020c2d   Thumb Code    70  app_timer.o(i.timer_list_insert)
    i.timer_list_remove                      0x00020c78   Section        0  app_timer.o(i.timer_list_remove)
    timer_list_remove                        0x00020c79   Thumb Code    70  app_timer.o(i.timer_list_remove)
    i.timer_start_op_schedule                0x00020cc8   Section        0  app_timer.o(i.timer_start_op_schedule)
    timer_start_op_schedule                  0x00020cc9   Thumb Code    74  app_timer.o(i.timer_start_op_schedule)
    i.timer_stop_op_schedule                 0x00020d1c   Section        0  app_timer.o(i.timer_stop_op_schedule)
    timer_stop_op_schedule                   0x00020d1d   Thumb Code    52  app_timer.o(i.timer_stop_op_schedule)
    i.timer_timeouts_check                   0x00020d54   Section        0  app_timer.o(i.timer_timeouts_check)
    timer_timeouts_check                     0x00020d55   Thumb Code    96  app_timer.o(i.timer_timeouts_check)
    i.timer_timeouts_check_sched             0x00020dbc   Section        0  app_timer.o(i.timer_timeouts_check_sched)
    timer_timeouts_check_sched               0x00020dbd   Thumb Code    10  app_timer.o(i.timer_timeouts_check_sched)
    i.timers_init                            0x00020dc8   Section        0  main.o(i.timers_init)
    timers_init                              0x00020dc9   Thumb Code   142  main.o(i.timers_init)
    i.tk_value_encode                        0x00020e78   Section        0  ble_advdata.o(i.tk_value_encode)
    tk_value_encode                          0x00020e79   Thumb Code    64  ble_advdata.o(i.tk_value_encode)
    i.twi_receive_byte                       0x00020eb8   Section        0  nrf_drv_twi.o(i.twi_receive_byte)
    twi_receive_byte                         0x00020eb9   Thumb Code    50  nrf_drv_twi.o(i.twi_receive_byte)
    i.twi_rx_start_transfer                  0x00020eec   Section        0  nrf_drv_twi.o(i.twi_rx_start_transfer)
    twi_rx_start_transfer                    0x00020eed   Thumb Code   138  nrf_drv_twi.o(i.twi_rx_start_transfer)
    i.twi_send_byte                          0x00020f7c   Section        0  nrf_drv_twi.o(i.twi_send_byte)
    twi_send_byte                            0x00020f7d   Thumb Code    46  nrf_drv_twi.o(i.twi_send_byte)
    i.twi_transfer                           0x00020faa   Section        0  nrf_drv_twi.o(i.twi_transfer)
    twi_transfer                             0x00020fab   Thumb Code   246  nrf_drv_twi.o(i.twi_transfer)
    i.twi_tx_start_transfer                  0x000210a0   Section        0  nrf_drv_twi.o(i.twi_tx_start_transfer)
    twi_tx_start_transfer                    0x000210a1   Thumb Code   136  nrf_drv_twi.o(i.twi_tx_start_transfer)
    i.tx_byte                                0x0002112c   Section        0  nrf_drv_uart.o(i.tx_byte)
    tx_byte                                  0x0002112d   Thumb Code    30  nrf_drv_uart.o(i.tx_byte)
    i.tx_char_add                            0x00021158   Section        0  ble_custom_service.o(i.tx_char_add)
    tx_char_add                              0x00021159   Thumb Code   126  ble_custom_service.o(i.tx_char_add)
    i.tx_done_event                          0x000211d8   Section        0  nrf_drv_uart.o(i.tx_done_event)
    tx_done_event                            0x000211d9   Thumb Code    26  nrf_drv_uart.o(i.tx_done_event)
    i.tx_power_level_encode                  0x000211f8   Section        0  ble_advdata.o(i.tx_power_level_encode)
    tx_power_level_encode                    0x000211f9   Thumb Code    50  ble_advdata.o(i.tx_power_level_encode)
    i.uart_irq_handler                       0x0002122c   Section        0  nrf_drv_uart.o(i.uart_irq_handler)
    uart_irq_handler                         0x0002122d   Thumb Code   282  nrf_drv_uart.o(i.uart_irq_handler)
    i.uint16_encode                          0x00021358   Section        0  ble_advdata.o(i.uint16_encode)
    uint16_encode                            0x00021359   Thumb Code    10  ble_advdata.o(i.uint16_encode)
    i.update_operation_execute               0x00021362   Section        0  pstorage.o(i.update_operation_execute)
    update_operation_execute                 0x00021363   Thumb Code     8  pstorage.o(i.update_operation_execute)
    i.update_status_bit_reset                0x0002136c   Section        0  device_manager_peripheral_1.o(i.update_status_bit_reset)
    update_status_bit_reset                  0x0002136d   Thumb Code    14  device_manager_peripheral_1.o(i.update_status_bit_reset)
    i.update_timeout_handler                 0x00021380   Section        0  ble_conn_params.o(i.update_timeout_handler)
    update_timeout_handler                   0x00021381   Thumb Code    86  ble_conn_params.o(i.update_timeout_handler)
    i.user_id_get                            0x000213e4   Section        0  app_timer.o(i.user_id_get)
    user_id_get                              0x000213e5   Thumb Code    94  app_timer.o(i.user_id_get)
    i.user_op_alloc                          0x0002144c   Section        0  app_timer.o(i.user_op_alloc)
    user_op_alloc                            0x0002144d   Thumb Code    38  app_timer.o(i.user_op_alloc)
    i.user_op_enque                          0x00021472   Section        0  app_timer.o(i.user_op_enque)
    user_op_enque                            0x00021473   Thumb Code     4  app_timer.o(i.user_op_enque)
    i.uuid_list_encode                       0x00021476   Section        0  ble_advdata.o(i.uuid_list_encode)
    uuid_list_encode                         0x00021477   Thumb Code    54  ble_advdata.o(i.uuid_list_encode)
    i.uuid_list_sized_encode                 0x000214ac   Section        0  ble_advdata.o(i.uuid_list_sized_encode)
    uuid_list_sized_encode                   0x000214ad   Thumb Code   174  ble_advdata.o(i.uuid_list_sized_encode)
    i.whitelist_has_entries                  0x0002155a   Section        0  ble_advertising.o(i.whitelist_has_entries)
    whitelist_has_entries                    0x0002155b   Thumb Code    20  ble_advertising.o(i.whitelist_has_entries)
    .constdata                               0x00021570   Section       28  main.o(.constdata)
    m_rtc_timer_id                           0x00021570   Data           4  main.o(.constdata)
    m_reset_timer_id                         0x00021574   Data           4  main.o(.constdata)
    m_button_timer_pwr_id                    0x00021578   Data           4  main.o(.constdata)
    m_button_timer_coil_id                   0x0002157c   Data           4  main.o(.constdata)
    m_adc_timer_id                           0x00021580   Data           4  main.o(.constdata)
    m_button_double_push_timer_id            0x00021584   Data           4  main.o(.constdata)
    .constdata                               0x0002158c   Section       52  device_manager_peripheral_1.o(.constdata)
    .constdata                               0x000215c0   Section       16  ble_dfu.o(.constdata)
    .constdata                               0x000215d0   Section       16  bsp.o(.constdata)
    m_button_timer_id                        0x000215d0   Data           4  bsp.o(.constdata)
    m_buttons_list                           0x000215d4   Data           4  bsp.o(.constdata)
    app_buttons                              0x000215d8   Data           8  bsp.o(.constdata)
    .constdata                               0x000215e0   Section        4  ble_conn_params.o(.constdata)
    m_conn_params_timer_id                   0x000215e0   Data           4  ble_conn_params.o(.constdata)
    .constdata                               0x000215e4   Section       16  ble_custom_service.o(.constdata)
    .constdata                               0x000215f4   Section       40  pstorage.o(.constdata)
    swap_sub_state_sm_lut                    0x000215f4   Data          20  pstorage.o(.constdata)
    swap_sub_state_sm_lut                    0x00021608   Data          20  pstorage.o(.constdata)
    .constdata                               0x0002161c   Section        8  app_button.o(.constdata)
    m_detection_delay_timer_id               0x0002161c   Data           4  app_button.o(.constdata)
    .data                                    0x20002000   Section       72  main.o(.data)
    systme_status                            0x20002000   Data           1  main.o(.data)
    coil_status                              0x20002001   Data           1  main.o(.data)
    led_toggle_status                        0x20002002   Data           1  main.o(.data)
    recently_powered                         0x20002003   Data           1  main.o(.data)
    service_buffer                           0x20002004   Data           1  main.o(.data)
    coil_timer_start_helper                  0x20002005   Data           1  main.o(.data)
    blink_timing                             0x20002006   Data           1  main.o(.data)
    button_pushed_count                      0x20002007   Data           1  main.o(.data)
    just_double_pushed                       0x20002008   Data           1  main.o(.data)
    m_app_handle                             0x20002009   Data           1  main.o(.data)
    m_conn_handle                            0x2000200a   Data           2  main.o(.data)
    adc_value                                0x2000200c   Data           2  main.o(.data)
    send_noti                                0x2000200e   Data           4  main.o(.data)
    send_off                                 0x20002012   Data           4  main.o(.data)
    timer_pwr_tick                           0x20002018   Data           4  main.o(.data)
    timer_coil_tick                          0x2000201c   Data           4  main.o(.data)
    double_push_tick                         0x20002020   Data           4  main.o(.data)
    mac_addr_buffer                          0x20002024   Data           7  main.o(.data)
    mac_addr_tx_buffer                       0x2000202b   Data           8  main.o(.data)
    m_channel_config                         0x20002034   Data           8  main.o(.data)
    device_mac_name                          0x2000203c   Data          12  main.o(.data)
    .data                                    0x20002048   Section       24  device_manager_peripheral_1.o(.data)
    m_module_initialized                     0x20002048   Data           1  device_manager_peripheral_1.o(.data)
    m_peer_addr_update                       0x2000204c   Data           4  device_manager_peripheral_1.o(.data)
    m_irk_index_table                        0x20002050   Data           7  device_manager_peripheral_1.o(.data)
    m_storage_handle                         0x20002058   Data           8  device_manager_peripheral_1.o(.data)
    .data                                    0x20002060   Section        8  ble_dfu.o(.data)
    m_is_dfu_service_initialized             0x20002060   Data           1  ble_dfu.o(.data)
    m_notif_buffer                           0x20002061   Data           7  ble_dfu.o(.data)
    .data                                    0x20002068   Section        8  dfu_app_handler.o(.data)
    m_reset_prepare                          0x20002068   Data           4  dfu_app_handler.o(.data)
    m_dm_handle                              0x2000206c   Data           4  dfu_app_handler.o(.data)
    .data                                    0x20002070   Section       20  bsp.o(.data)
    current_long_push_pin_no                 0x20002070   Data           1  bsp.o(.data)
    release_event_at_push                    0x20002071   Data           1  bsp.o(.data)
    m_events_list                            0x20002072   Data           3  bsp.o(.data)
    m_app_ticks_per_100ms                    0x20002078   Data           4  bsp.o(.data)
    m_indication_type                        0x2000207c   Data           4  bsp.o(.data)
    m_registered_callback                    0x20002080   Data           4  bsp.o(.data)
    .data                                    0x20002084   Section        4  bsp_btn_ble.o(.data)
    m_num_connections                        0x20002084   Data           4  bsp_btn_ble.o(.data)
    .data                                    0x20002088   Section        4  system_nrf51.o(.data)
    __tagsym$$used                           0x20002088   Number         0  system_nrf51.o(.data)
    .data                                    0x2000208c   Section       31  ble_advertising.o(.data)
    m_advertising_start_pending              0x2000208c   Data           1  ble_advertising.o(.data)
    m_whitelist_temporarily_disabled         0x2000208d   Data           1  ble_advertising.o(.data)
    m_whitelist_reply_expected               0x2000208e   Data           1  ble_advertising.o(.data)
    m_peer_addr_reply_expected               0x2000208f   Data           1  ble_advertising.o(.data)
    m_adv_evt                                0x20002090   Data           1  ble_advertising.o(.data)
    m_adv_mode_current                       0x20002091   Data           1  ble_advertising.o(.data)
    m_tx_power_level                         0x20002092   Data           1  ble_advertising.o(.data)
    current_slave_link_conn_handle           0x20002094   Data           2  ble_advertising.o(.data)
    m_evt_handler                            0x20002098   Data           4  ble_advertising.o(.data)
    m_error_handler                          0x2000209c   Data           4  ble_advertising.o(.data)
    m_slave_conn_int                         0x200020a0   Data           4  ble_advertising.o(.data)
    m_peer_address                           0x200020a4   Data           7  ble_advertising.o(.data)
    .data                                    0x200020ac   Section       20  ble_conn_params.o(.data)
    m_change_param                           0x200020ac   Data           1  ble_conn_params.o(.data)
    m_update_count                           0x200020ad   Data           1  ble_conn_params.o(.data)
    m_conn_handle                            0x200020ae   Data           2  ble_conn_params.o(.data)
    m_preferred_conn_params                  0x200020b0   Data           8  ble_conn_params.o(.data)
    m_current_conn_params                    0x200020b8   Data           8  ble_conn_params.o(.data)
    .data                                    0x200020c0   Section       36  pstorage.o(.data)
    m_state                                  0x200020c0   Data           1  pstorage.o(.data)
    m_swap_sub_state                         0x200020c1   Data           1  pstorage.o(.data)
    m_next_app_instance                      0x200020c2   Data           2  pstorage.o(.data)
    m_flags                                  0x200020c4   Data           4  pstorage.o(.data)
    m_next_page_addr                         0x200020c8   Data           4  pstorage.o(.data)
    m_head_word_size                         0x200020cc   Data           4  pstorage.o(.data)
    m_tail_word_size                         0x200020d0   Data           4  pstorage.o(.data)
    m_current_page_id                        0x200020d4   Data           4  pstorage.o(.data)
    m_num_of_command_retries                 0x200020d8   Data           4  pstorage.o(.data)
    m_num_of_bytes_written                   0x200020dc   Data           4  pstorage.o(.data)
    m_app_data_size                          0x200020e0   Data           4  pstorage.o(.data)
    .data                                    0x200020e4   Section       20  app_button.o(.data)
    m_button_count                           0x200020e4   Data           1  app_button.o(.data)
    mp_buttons                               0x200020e8   Data           4  app_button.o(.data)
    m_detection_delay                        0x200020ec   Data           4  app_button.o(.data)
    m_pin_state                              0x200020f0   Data           4  app_button.o(.data)
    m_pin_transition                         0x200020f4   Data           4  app_button.o(.data)
    .data                                    0x200020f8   Section       32  app_timer.o(.data)
    m_user_array_size                        0x200020f8   Data           1  app_timer.o(.data)
    m_ticks_elapsed_q_read_ind               0x200020f9   Data           1  app_timer.o(.data)
    m_ticks_elapsed_q_write_ind              0x200020fa   Data           1  app_timer.o(.data)
    m_rtc1_running                           0x200020fb   Data           1  app_timer.o(.data)
    m_rtc1_reset                             0x200020fc   Data           1  app_timer.o(.data)
    mp_users                                 0x20002100   Data           4  app_timer.o(.data)
    mp_timer_id_head                         0x20002104   Data           4  app_timer.o(.data)
    m_ticks_latest                           0x20002108   Data           4  app_timer.o(.data)
    m_evt_schedule_func                      0x2000210c   Data           4  app_timer.o(.data)
    m_ticks_elapsed                          0x20002110   Data           8  app_timer.o(.data)
    .data                                    0x20002118   Section       28  softdevice_handler.o(.data)
    m_softdevice_enabled                     0x20002118   Data           1  softdevice_handler.o(.data)
    m_ble_evt_buffer_size                    0x2000211a   Data           2  softdevice_handler.o(.data)
    m_evt_schedule_func                      0x2000211c   Data           4  softdevice_handler.o(.data)
    mp_ble_evt_buffer                        0x20002120   Data           4  softdevice_handler.o(.data)
    m_ble_evt_handler                        0x20002124   Data           4  softdevice_handler.o(.data)
    m_sys_evt_handler                        0x20002128   Data           4  softdevice_handler.o(.data)
    .bss                                     0x20002134   Section       32  main.o(.bss)
    m_rtc_timer_id_data                      0x20002134   Data          32  main.o(.bss)
    .bss                                     0x20002154   Section       32  main.o(.bss)
    m_reset_timer_id_data                    0x20002154   Data          32  main.o(.bss)
    .bss                                     0x20002174   Section       32  main.o(.bss)
    m_button_timer_pwr_id_data               0x20002174   Data          32  main.o(.bss)
    .bss                                     0x20002194   Section       32  main.o(.bss)
    m_button_timer_coil_id_data              0x20002194   Data          32  main.o(.bss)
    .bss                                     0x200021b4   Section       32  main.o(.bss)
    m_adc_timer_id_data                      0x200021b4   Data          32  main.o(.bss)
    .bss                                     0x200021d4   Section       32  main.o(.bss)
    m_button_double_push_timer_id_data       0x200021d4   Data          32  main.o(.bss)
    .bss                                     0x200021f4   Section      936  main.o(.bss)
    APP_TIMER_BUF                            0x200021f4   Data         744  main.o(.bss)
    BLE_EVT_BUFFER                           0x200024dc   Data          72  main.o(.bss)
    m_bas                                    0x20002524   Data          24  main.o(.bss)
    m_setting_service                        0x2000253c   Data          32  main.o(.bss)
    m_dfus                                   0x2000255c   Data          48  main.o(.bss)
    broadcast_setting_data                   0x2000258c   Data          16  main.o(.bss)
    .bss                                     0x2000259c   Section      335  device_manager_peripheral_1.o(.bss)
    m_app_context_table                      0x2000259c   Data          28  device_manager_peripheral_1.o(.bss)
    m_peer_table                             0x200025b8   Data         196  device_manager_peripheral_1.o(.bss)
    m_bond_table                             0x2000267c   Data          28  device_manager_peripheral_1.o(.bss)
    m_gatts_table                            0x20002698   Data          36  device_manager_peripheral_1.o(.bss)
    m_connection_table                       0x200026bc   Data          12  device_manager_peripheral_1.o(.bss)
    m_application_table                      0x200026c8   Data          12  device_manager_peripheral_1.o(.bss)
    m_local_id_info                          0x200026d4   Data          23  device_manager_peripheral_1.o(.bss)
    .bss                                     0x200026ec   Section       60  dfu_app_handler.o(.bss)
    m_peer_data                              0x200026ec   Data          60  dfu_app_handler.o(.bss)
    .bss                                     0x20002728   Section       32  bsp.o(.bss)
    m_button_timer_id_data                   0x20002728   Data          32  bsp.o(.bss)
    .bss                                     0x20002748   Section      259  ble_advertising.o(.bss)
    m_advdata                                0x20002748   Data          56  ble_advertising.o(.bss)
    m_adv_modes_config                       0x20002780   Data          36  ble_advertising.o(.bss)
    m_whitelist                              0x200027a4   Data          16  ble_advertising.o(.bss)
    mp_whitelist_addr                        0x200027b4   Data          32  ble_advertising.o(.bss)
    mp_whitelist_irk                         0x200027d4   Data          32  ble_advertising.o(.bss)
    m_manuf_specific_data                    0x200027f4   Data          12  ble_advertising.o(.bss)
    m_manuf_data_array                       0x20002800   Data          31  ble_advertising.o(.bss)
    m_service_data                           0x20002820   Data          12  ble_advertising.o(.bss)
    m_service_data_array                     0x2000282c   Data          31  ble_advertising.o(.bss)
    .bss                                     0x2000284c   Section       32  ble_conn_params.o(.bss)
    m_conn_params_timer_id_data              0x2000284c   Data          32  ble_conn_params.o(.bss)
    .bss                                     0x2000286c   Section       28  ble_conn_params.o(.bss)
    m_conn_params_config                     0x2000286c   Data          28  ble_conn_params.o(.bss)
    .bss                                     0x20002888   Section       72  nrf_drv_gpiote.o(.bss)
    m_cb                                     0x20002888   Data          72  nrf_drv_gpiote.o(.bss)
    .bss                                     0x200028d0   Section       28  nrf_drv_uart.o(.bss)
    m_cb                                     0x200028d0   Data          28  nrf_drv_uart.o(.bss)
    .bss                                     0x200028ec   Section      336  pstorage.o(.bss)
    m_cmd_queue                              0x200028ec   Data         204  pstorage.o(.bss)
    m_app_table                              0x200029b8   Data         132  pstorage.o(.bss)
    .bss                                     0x20002a3c   Section       36  nrf_drv_timer.o(.bss)
    m_cb                                     0x20002a3c   Data          36  nrf_drv_timer.o(.bss)
    .bss                                     0x20002a60   Section       20  nrf_drv_adc.o(.bss)
    m_cb                                     0x20002a60   Data          20  nrf_drv_adc.o(.bss)
    .bss                                     0x20002a74   Section       40  nrf_drv_twi.o(.bss)
    m_cb                                     0x20002a74   Data          40  nrf_drv_twi.o(.bss)
    .bss                                     0x20002a9c   Section       32  app_button.o(.bss)
    m_detection_delay_timer_id_data          0x20002a9c   Data          32  app_button.o(.bss)
    .bss                                     0x20002abc   Section       88  fstorage.o(.bss)
    m_queue                                  0x20002abc   Data          88  fstorage.o(.bss)
    STACK                                    0x20002b18   Section     2048  arm_startup_nrf51.o(STACK)

    Global Symbols

    Symbol Name                              Value     Ov Type        Size  Object(Section)

    BuildAttributes$$THM_ISAv3M$S$PE$A:L22$X:L11$S22$IEEE1$IW$USESV6$~STKCKD$USESV7$~SHL$OSPACE$ROPI$EBA8$MICROLIB$REQ8$PRES8$EABIv2 0x00000000   Number         0  anon$$obj.o ABSOLUTE
    __ARM_use_no_argv                        0x00000000   Number         0  main.o ABSOLUTE
    _printf_a                                0x00000000   Number         0  stubs.o ABSOLUTE
    _printf_c                                0x00000000   Number         0  stubs.o ABSOLUTE
    _printf_charcount                        0x00000000   Number         0  stubs.o ABSOLUTE
    _printf_d                                0x00000000   Number         0  stubs.o ABSOLUTE
    _printf_e                                0x00000000   Number         0  stubs.o ABSOLUTE
    _printf_f                                0x00000000   Number         0  stubs.o ABSOLUTE
    _printf_flags                            0x00000000   Number         0  stubs.o ABSOLUTE
    _printf_fp_dec                           0x00000000   Number         0  stubs.o ABSOLUTE
    _printf_fp_hex                           0x00000000   Number         0  stubs.o ABSOLUTE
    _printf_g                                0x00000000   Number         0  stubs.o ABSOLUTE
    _printf_i                                0x00000000   Number         0  stubs.o ABSOLUTE
    _printf_int_dec                          0x00000000   Number         0  stubs.o ABSOLUTE
    _printf_l                                0x00000000   Number         0  stubs.o ABSOLUTE
    _printf_lc                               0x00000000   Number         0  stubs.o ABSOLUTE
    _printf_ll                               0x00000000   Number         0  stubs.o ABSOLUTE
    _printf_lld                              0x00000000   Number         0  stubs.o ABSOLUTE
    _printf_lli                              0x00000000   Number         0  stubs.o ABSOLUTE
    _printf_llo                              0x00000000   Number         0  stubs.o ABSOLUTE
    _printf_llu                              0x00000000   Number         0  stubs.o ABSOLUTE
    _printf_llx                              0x00000000   Number         0  stubs.o ABSOLUTE
    _printf_longlong_dec                     0x00000000   Number         0  stubs.o ABSOLUTE
    _printf_longlong_hex                     0x00000000   Number         0  stubs.o ABSOLUTE
    _printf_longlong_oct                     0x00000000   Number         0  stubs.o ABSOLUTE
    _printf_ls                               0x00000000   Number         0  stubs.o ABSOLUTE
    _printf_mbtowc                           0x00000000   Number         0  stubs.o ABSOLUTE
    _printf_n                                0x00000000   Number         0  stubs.o ABSOLUTE
    _printf_o                                0x00000000   Number         0  stubs.o ABSOLUTE
    _printf_p                                0x00000000   Number         0  stubs.o ABSOLUTE
    _printf_percent                          0x00000000   Number         0  stubs.o ABSOLUTE
    _printf_pre_padding                      0x00000000   Number         0  stubs.o ABSOLUTE
    _printf_return_value                     0x00000000   Number         0  stubs.o ABSOLUTE
    _printf_s                                0x00000000   Number         0  stubs.o ABSOLUTE
    _printf_sizespec                         0x00000000   Number         0  stubs.o ABSOLUTE
    _printf_str                              0x00000000   Number         0  stubs.o ABSOLUTE
    _printf_truncate_signed                  0x00000000   Number         0  stubs.o ABSOLUTE
    _printf_truncate_unsigned                0x00000000   Number         0  stubs.o ABSOLUTE
    _printf_u                                0x00000000   Number         0  stubs.o ABSOLUTE
    _printf_wc                               0x00000000   Number         0  stubs.o ABSOLUTE
    _printf_wctomb                           0x00000000   Number         0  stubs.o ABSOLUTE
    _printf_widthprec                        0x00000000   Number         0  stubs.o ABSOLUTE
    _printf_x                                0x00000000   Number         0  stubs.o ABSOLUTE
    __cpp_initialize__aeabi_                  - Undefined Weak Reference
    __cxa_finalize                            - Undefined Weak Reference
    _clock_init                               - Undefined Weak Reference
    _microlib_exit                            - Undefined Weak Reference
    fs_data$$Base                             - Undefined Reference
    fs_data$$Limit                            - Undefined Reference
    __Vectors_Size                           0x000000c0   Number         0  arm_startup_nrf51.o ABSOLUTE
    __Vectors                                0x0001b000   Data           4  arm_startup_nrf51.o(RESET)
    __Vectors_End                            0x0001b0c0   Data           0  arm_startup_nrf51.o(RESET)
    __main                                   0x0001b0c1   Thumb Code     0  entry.o(.ARM.Collect$$$$00000000)
    _main_stk                                0x0001b0c1   Thumb Code     0  entry2.o(.ARM.Collect$$$$00000001)
    _main_scatterload                        0x0001b0c5   Thumb Code     0  entry5.o(.ARM.Collect$$$$00000004)
    __main_after_scatterload                 0x0001b0c9   Thumb Code     0  entry5.o(.ARM.Collect$$$$00000004)
    _main_clock                              0x0001b0c9   Thumb Code     0  entry7b.o(.ARM.Collect$$$$00000008)
    _main_cpp_init                           0x0001b0c9   Thumb Code     0  entry8b.o(.ARM.Collect$$$$0000000A)
    _main_init                               0x0001b0c9   Thumb Code     0  entry9a.o(.ARM.Collect$$$$0000000B)
    __rt_final_cpp                           0x0001b0d1   Thumb Code     0  entry10a.o(.ARM.Collect$$$$0000000D)
    __rt_final_exit                          0x0001b0d1   Thumb Code     0  entry11a.o(.ARM.Collect$$$$0000000F)
    __asm___17_bootloader_util_c_c13d365c__bootloader_util_reset 0x0001b0d5   Thumb Code    52  bootloader_util.o(.emb_text)
    __asm___11_nrf_delay_c_532987f3__nrf_delay_us 0x0001b109   Thumb Code    30  nrf_delay.o(.emb_text)
    __asm___11_app_timer_c_cd27f9c3__nrf_delay_us 0x0001b129   Thumb Code    30  app_timer.o(.emb_text)
    Reset_Handler                            0x0001b149   Thumb Code    26  arm_startup_nrf51.o(.text)
    NMI_Handler                              0x0001b163   Thumb Code     2  arm_startup_nrf51.o(.text)
    HardFault_Handler                        0x0001b165   Thumb Code     2  arm_startup_nrf51.o(.text)
    SVC_Handler                              0x0001b167   Thumb Code     2  arm_startup_nrf51.o(.text)
    PendSV_Handler                           0x0001b169   Thumb Code     2  arm_startup_nrf51.o(.text)
    SysTick_Handler                          0x0001b16b   Thumb Code     2  arm_startup_nrf51.o(.text)
    CCM_AAR_IRQHandler                       0x0001b16d   Thumb Code     0  arm_startup_nrf51.o(.text)
    ECB_IRQHandler                           0x0001b16d   Thumb Code     0  arm_startup_nrf51.o(.text)
    LPCOMP_IRQHandler                        0x0001b16d   Thumb Code     0  arm_startup_nrf51.o(.text)
    POWER_CLOCK_IRQHandler                   0x0001b16d   Thumb Code     0  arm_startup_nrf51.o(.text)
    QDEC_IRQHandler                          0x0001b16d   Thumb Code     0  arm_startup_nrf51.o(.text)
    RADIO_IRQHandler                         0x0001b16d   Thumb Code     0  arm_startup_nrf51.o(.text)
    RNG_IRQHandler                           0x0001b16d   Thumb Code     0  arm_startup_nrf51.o(.text)
    RTC0_IRQHandler                          0x0001b16d   Thumb Code     0  arm_startup_nrf51.o(.text)
    SPI1_TWI1_IRQHandler                     0x0001b16d   Thumb Code     0  arm_startup_nrf51.o(.text)
    SWI1_IRQHandler                          0x0001b16d   Thumb Code     0  arm_startup_nrf51.o(.text)
    SWI3_IRQHandler                          0x0001b16d   Thumb Code     0  arm_startup_nrf51.o(.text)
    SWI4_IRQHandler                          0x0001b16d   Thumb Code     0  arm_startup_nrf51.o(.text)
    SWI5_IRQHandler                          0x0001b16d   Thumb Code     0  arm_startup_nrf51.o(.text)
    TEMP_IRQHandler                          0x0001b16d   Thumb Code     0  arm_startup_nrf51.o(.text)
    WDT_IRQHandler                           0x0001b16d   Thumb Code     0  arm_startup_nrf51.o(.text)
    __aeabi_uidiv                            0x0001b181   Thumb Code     0  uidiv.o(.text)
    __aeabi_uidivmod                         0x0001b181   Thumb Code    44  uidiv.o(.text)
    __aeabi_idiv                             0x0001b1ad   Thumb Code     0  idiv.o(.text)
    __aeabi_idivmod                          0x0001b1ad   Thumb Code    40  idiv.o(.text)
    __aeabi_memcpy                           0x0001b1d5   Thumb Code    36  memcpya.o(.text)
    __aeabi_memcpy4                          0x0001b1d5   Thumb Code     0  memcpya.o(.text)
    __aeabi_memcpy8                          0x0001b1d5   Thumb Code     0  memcpya.o(.text)
    __aeabi_memset                           0x0001b1f9   Thumb Code    14  memseta.o(.text)
    __aeabi_memset4                          0x0001b1f9   Thumb Code     0  memseta.o(.text)
    __aeabi_memset8                          0x0001b1f9   Thumb Code     0  memseta.o(.text)
    __aeabi_memclr                           0x0001b207   Thumb Code     4  memseta.o(.text)
    __aeabi_memclr4                          0x0001b207   Thumb Code     0  memseta.o(.text)
    __aeabi_memclr8                          0x0001b207   Thumb Code     0  memseta.o(.text)
    _memset$wrapper                          0x0001b20b   Thumb Code    18  memseta.o(.text)
    memcmp                                   0x0001b21d   Thumb Code    26  memcmp.o(.text)
    __aeabi_uldivmod                         0x0001b237   Thumb Code    96  uldiv.o(.text)
    __I$use$fp                               0x0001b297   Thumb Code     0  iusefp.o(.text)
    __aeabi_dadd                             0x0001b299   Thumb Code   328  dadd.o(.text)
    __aeabi_dsub                             0x0001b3e1   Thumb Code    12  dadd.o(.text)
    __aeabi_drsub                            0x0001b3ed   Thumb Code    12  dadd.o(.text)
    __aeabi_dmul                             0x0001b3fd   Thumb Code   202  dmul.o(.text)
    __aeabi_ddiv                             0x0001b4cd   Thumb Code   234  ddiv.o(.text)
    __aeabi_d2ulz                            0x0001b5bd   Thumb Code    54  dfixul.o(.text)
    __aeabi_cdrcmple                         0x0001b5fd   Thumb Code    38  cdrcmple.o(.text)
    __scatterload                            0x0001b625   Thumb Code    28  init.o(.text)
    __scatterload_rt2                        0x0001b625   Thumb Code     0  init.o(.text)
    __aeabi_llsl                             0x0001b649   Thumb Code    32  llshl.o(.text)
    _ll_shift_l                              0x0001b649   Thumb Code     0  llshl.o(.text)
    __aeabi_llsr                             0x0001b669   Thumb Code    34  llushr.o(.text)
    _ll_ushift_r                             0x0001b669   Thumb Code     0  llushr.o(.text)
    __aeabi_lasr                             0x0001b68b   Thumb Code    38  llsshr.o(.text)
    _ll_sshift_r                             0x0001b68b   Thumb Code     0  llsshr.o(.text)
    _double_round                            0x0001b6b1   Thumb Code    26  depilogue.o(.text)
    _double_epilogue                         0x0001b6cb   Thumb Code   164  depilogue.o(.text)
    __decompress                             0x0001b76f   Thumb Code     0  __dczerorl.o(.text)
    __decompress0                            0x0001b76f   Thumb Code    58  __dczerorl.o(.text)
    ADC_IRQHandler                           0x0001b7a9   Thumb Code    80  nrf_drv_adc.o(i.ADC_IRQHandler)
    GPIOTE_IRQHandler                        0x0001b809   Thumb Code   320  nrf_drv_gpiote.o(i.GPIOTE_IRQHandler)
    RTC1_IRQHandler                          0x0001b981   Thumb Code    28  app_timer.o(i.RTC1_IRQHandler)
    SPI0_TWI0_IRQHandler                     0x0001b9a1   Thumb Code    12  nrf_drv_twi.o(i.SPI0_TWI0_IRQHandler)
    SWI0_IRQHandler                          0x0001b9b5   Thumb Code     8  app_timer.o(i.SWI0_IRQHandler)
    SWI2_IRQHandler                          0x0001b9bd   Thumb Code    28  softdevice_handler.o(i.SWI2_IRQHandler)
    SystemInit                               0x0001b9dd   Thumb Code    68  system_nrf51.o(i.SystemInit)
    TIMER0_IRQHandler                        0x0001ba39   Thumb Code    14  nrf_drv_timer.o(i.TIMER0_IRQHandler)
    TIMER1_IRQHandler                        0x0001ba51   Thumb Code    14  nrf_drv_timer.o(i.TIMER1_IRQHandler)
    TIMER2_IRQHandler                        0x0001ba69   Thumb Code    14  nrf_drv_timer.o(i.TIMER2_IRQHandler)
    UART0_IRQHandler                         0x0001ba81   Thumb Code     8  nrf_drv_uart.o(i.UART0_IRQHandler)
    __0snprintf                              0x0001ba89   Thumb Code    46  printfa.o(i.__0snprintf)
    __1snprintf                              0x0001ba89   Thumb Code     0  printfa.o(i.__0snprintf)
    __2snprintf                              0x0001ba89   Thumb Code     0  printfa.o(i.__0snprintf)
    __c89snprintf                            0x0001ba89   Thumb Code     0  printfa.o(i.__0snprintf)
    snprintf                                 0x0001ba89   Thumb Code     0  printfa.o(i.__0snprintf)
    __ARM_clz                                0x0001babd   Thumb Code    46  depilogue.o(i.__ARM_clz)
    __ARM_common_switch8                     0x0001baeb   Thumb Code    26  ble_dfu.o(i.__ARM_common_switch8)
    __scatterload_copy                       0x0001bb91   Thumb Code    14  handlers.o(i.__scatterload_copy)
    __scatterload_null                       0x0001bb9f   Thumb Code     2  handlers.o(i.__scatterload_null)
    __scatterload_zeroinit                   0x0001bba1   Thumb Code    14  handlers.o(i.__scatterload_zeroinit)
    adv_data_encode                          0x0001c519   Thumb Code   400  ble_advdata.o(i.adv_data_encode)
    app_button_enable                        0x0001c741   Thumb Code    32  app_button.o(i.app_button_enable)
    app_button_init                          0x0001c765   Thumb Code   100  app_button.o(i.app_button_init)
    app_error_fault_handler                  0x0001c7d9   Thumb Code    18  app_error_weak.o(i.app_error_fault_handler)
    app_error_handler_bare                   0x0001c7f5   Thumb Code    20  app_error.o(i.app_error_handler_bare)
    app_timer_create                         0x0001c865   Thumb Code    48  app_timer.o(i.app_timer_create)
    app_timer_init                           0x0001c899   Thumb Code   134  app_timer.o(i.app_timer_init)
    app_timer_start                          0x0001c929   Thumb Code    76  app_timer.o(i.app_timer_start)
    app_timer_stop                           0x0001c979   Thumb Code    46  app_timer.o(i.app_timer_stop)
    ble_advdata_set                          0x0001cb69   Thumb Code   108  ble_advdata.o(i.ble_advdata_set)
    ble_advertising_init                     0x0001cbd5   Thumb Code   288  ble_advertising.o(i.ble_advertising_init)
    ble_advertising_on_ble_evt               0x0001ccfd   Thumb Code   164  ble_advertising.o(i.ble_advertising_on_ble_evt)
    ble_advertising_on_sys_evt               0x0001cda5   Thumb Code    42  ble_advertising.o(i.ble_advertising_on_sys_evt)
    ble_advertising_restart_without_whitelist 0x0001cde5   Thumb Code    78  ble_advertising.o(i.ble_advertising_restart_without_whitelist)
    ble_advertising_start                    0x0001ce3d   Thumb Code   470  ble_advertising.o(i.ble_advertising_start)
    ble_bas_init                             0x0001d01d   Thumb Code    66  ble_bas.o(i.ble_bas_init)
    ble_bas_on_ble_evt                       0x0001d065   Thumb Code    42  ble_bas.o(i.ble_bas_on_ble_evt)
    ble_conn_params_init                     0x0001d091   Thumb Code    74  ble_conn_params.o(i.ble_conn_params_init)
    ble_conn_params_on_ble_evt               0x0001d0ed   Thumb Code    44  ble_conn_params.o(i.ble_conn_params_on_ble_evt)
    ble_conn_params_stop                     0x0001d119   Thumb Code    12  ble_conn_params.o(i.ble_conn_params_stop)
    ble_custom_service_init                  0x0001d129   Thumb Code    98  ble_custom_service.o(i.ble_custom_service_init)
    ble_custom_service_on_ble_evt            0x0001d191   Thumb Code    42  ble_custom_service.o(i.ble_custom_service_on_ble_evt)
    ble_custom_service_send_string_1         0x0001d1bd   Thumb Code    78  ble_custom_service.o(i.ble_custom_service_send_string_1)
    ble_dfu_init                             0x0001d275   Thumb Code   138  ble_dfu.o(i.ble_dfu_init)
    ble_dfu_on_ble_evt                       0x0001d30d   Thumb Code    58  ble_dfu.o(i.ble_dfu_on_ble_evt)
    ble_dfu_response_send                    0x0001d349   Thumb Code    86  ble_dfu.o(i.ble_dfu_response_send)
    ble_srv_report_ref_encode                0x0001d3ed   Thumb Code    14  ble_srv_common.o(i.ble_srv_report_ref_encode)
    bond_data_load                           0x0001d489   Thumb Code    58  device_manager_peripheral_1.o(i.bond_data_load)
    bootloader_util_app_start                0x0001d539   Thumb Code     8  bootloader_util.o(i.bootloader_util_app_start)
    bsp_btn_ble_on_ble_evt                   0x0001d541   Thumb Code    26  bsp_btn_ble.o(i.bsp_btn_ble_on_ble_evt)
    bsp_event_handler                        0x0001d5ed   Thumb Code   138  main.o(i.bsp_event_handler)
    bsp_event_to_button_action_assign        0x0001d685   Thumb Code    56  bsp.o(i.bsp_event_to_button_action_assign)
    bsp_init                                 0x0001d6c1   Thumb Code    82  bsp.o(i.bsp_init)
    button_timeout_coil_handler              0x0001d721   Thumb Code   148  main.o(i.button_timeout_coil_handler)
    custom_service_data_handler              0x0001ddcd   Thumb Code    26  main.o(i.custom_service_data_handler)
    dfu_app_dm_appl_instance_set             0x0001e0d9   Thumb Code    20  dfu_app_handler.o(i.dfu_app_dm_appl_instance_set)
    dfu_app_on_dfu_evt                       0x0001e0f1   Thumb Code    34  dfu_app_handler.o(i.dfu_app_on_dfu_evt)
    dfu_app_reset_prepare_set                0x0001e1bd   Thumb Code     6  dfu_app_handler.o(i.dfu_app_reset_prepare_set)
    dm_application_context_set               0x0001e36d   Thumb Code   196  device_manager_peripheral_1.o(i.dm_application_context_set)
    dm_application_instance_set              0x0001e449   Thumb Code    58  device_manager_peripheral_1.o(i.dm_application_instance_set)
    dm_ble_evt_handler                       0x0001e491   Thumb Code  1056  device_manager_peripheral_1.o(i.dm_ble_evt_handler)
    dm_distributed_keys_get                  0x0001e8b1   Thumb Code   166  device_manager_peripheral_1.o(i.dm_distributed_keys_get)
    dm_handle_get                            0x0001e969   Thumb Code    82  device_manager_peripheral_1.o(i.dm_handle_get)
    dm_handle_initialize                     0x0001e9c5   Thumb Code    22  device_manager_peripheral_1.o(i.dm_handle_initialize)
    dm_init                                  0x0001e9e1   Thumb Code   202  device_manager_peripheral_1.o(i.dm_init)
    dm_peer_addr_get                         0x0001eac1   Thumb Code   130  device_manager_peripheral_1.o(i.dm_peer_addr_get)
    dm_register                              0x0001ed21   Thumb Code   112  device_manager_peripheral_1.o(i.dm_register)
    fs_queued_op_count_get                   0x0001ef31   Thumb Code    18  fstorage.o(i.fs_queued_op_count_get)
    intern_softdevice_events_execute         0x0001f221   Thumb Code   116  softdevice_handler.o(i.intern_softdevice_events_execute)
    main                                     0x0001f71d   Thumb Code    68  main.o(i.main)
    nrf_delay_ms                             0x0001f88d   Thumb Code    26  nrf_delay.o(i.nrf_delay_ms)
    nrf_drv_adc_sample_convert               0x0001f8ad   Thumb Code    82  nrf_drv_adc.o(i.nrf_drv_adc_sample_convert)
    nrf_drv_common_irq_enable                0x0001f915   Thumb Code    86  nrf_drv_common.o(i.nrf_drv_common_irq_enable)
    nrf_drv_gpiote_in_event_enable           0x0001f97d   Thumb Code   146  nrf_drv_gpiote.o(i.nrf_drv_gpiote_in_event_enable)
    nrf_drv_gpiote_in_init                   0x0001fa25   Thumb Code   146  nrf_drv_gpiote.o(i.nrf_drv_gpiote_in_init)
    nrf_drv_gpiote_in_is_set                 0x0001fac9   Thumb Code    18  nrf_drv_gpiote.o(i.nrf_drv_gpiote_in_is_set)
    nrf_drv_gpiote_init                      0x0001fae1   Thumb Code    76  nrf_drv_gpiote.o(i.nrf_drv_gpiote_init)
    nrf_drv_gpiote_is_init                   0x0001fb35   Thumb Code    12  nrf_drv_gpiote.o(i.nrf_drv_gpiote_is_init)
    power_manage                             0x0002000d   Thumb Code    14  main.o(i.power_manage)
    pstorage_access_status_get               0x0002001d   Thumb Code    30  pstorage.o(i.pstorage_access_status_get)
    pstorage_block_identifier_get            0x00020045   Thumb Code    98  pstorage.o(i.pstorage_block_identifier_get)
    pstorage_clear                           0x000200b1   Thumb Code   174  pstorage.o(i.pstorage_clear)
    pstorage_init                            0x00020199   Thumb Code    66  pstorage.o(i.pstorage_init)
    pstorage_load                            0x000201e5   Thumb Code   178  pstorage.o(i.pstorage_load)
    pstorage_register                        0x000202a1   Thumb Code   196  pstorage.o(i.pstorage_register)
    pstorage_store                           0x0002036d   Thumb Code   154  pstorage.o(i.pstorage_store)
    pstorage_update                          0x00020411   Thumb Code   154  pstorage.o(i.pstorage_update)
    sd_check_ram_start                       0x000205e9   Thumb Code    20  softdevice_handler.o(i.sd_check_ram_start)
    softdevice_ble_evt_handler_set           0x000207e1   Thumb Code    16  softdevice_handler.o(i.softdevice_ble_evt_handler_set)
    softdevice_enable                        0x000207f5   Thumb Code    16  softdevice_handler.o(i.softdevice_enable)
    softdevice_enable_get_default_config     0x00020809   Thumb Code    40  softdevice_handler.o(i.softdevice_enable_get_default_config)
    softdevice_fault_handler                 0x00020831   Thumb Code     8  softdevice_handler.o(i.softdevice_fault_handler)
    softdevice_handler_init                  0x00020839   Thumb Code    56  softdevice_handler.o(i.softdevice_handler_init)
    softdevice_sys_evt_handler_set           0x00020879   Thumb Code    16  softdevice_handler.o(i.softdevice_sys_evt_handler_set)
    swap_mac_addr                            0x00020ac9   Thumb Code    40  main.o(i.swap_mac_addr)
    m_context_init_len                       0x0002158c   Data           4  device_manager_peripheral_1.o(.constdata)
    m_service_context_store                  0x00021590   Data          16  device_manager_peripheral_1.o(.constdata)
    m_service_context_load                   0x000215a0   Data          16  device_manager_peripheral_1.o(.constdata)
    m_service_context_apply                  0x000215b0   Data          16  device_manager_peripheral_1.o(.constdata)
    Region$$Table$$Base                      0x00021624   Number         0  anon$$obj.o(Region$$Table)
    Region$$Table$$Limit                     0x00021644   Number         0  anon$$obj.o(Region$$Table)
    Image$$RW_IRAM1$$Base                    0x20002000   Number         0  anon$$obj.o ABSOLUTE
    SystemCoreClock                          0x20002088   Data           4  system_nrf51.o(.data)
    nrf_nvic_state                           0x2000212c   Data           8  softdevice_handler.o(.data)
    __initial_sp                             0x20003318   Data           0  arm_startup_nrf51.o(STACK)



==============================================================================

Memory Map of the image

  Image Entry point : 0x0001b0c1

  Load Region LR_IROM1 (Base: 0x0001b000, Size: 0x00006778, Max: 0x00020000, ABSOLUTE, COMPRESSED[0x00006668])

    Execution Region ER_IROM1 (Base: 0x0001b000, Size: 0x00006644, Max: 0x00020000, ABSOLUTE)

    Base Addr    Size         Type   Attr      Idx    E Section Name        Object

    0x0001b000   0x000000c0   Data   RO          186    RESET               arm_startup_nrf51.o
    0x0001b0c0   0x00000000   Code   RO          734  * .ARM.Collect$$$$00000000  mc_p.l(entry.o)
    0x0001b0c0   0x00000004   Code   RO          876    .ARM.Collect$$$$00000001  mc_p.l(entry2.o)
    0x0001b0c4   0x00000004   Code   RO          879    .ARM.Collect$$$$00000004  mc_p.l(entry5.o)
    0x0001b0c8   0x00000000   Code   RO          881    .ARM.Collect$$$$00000008  mc_p.l(entry7b.o)
    0x0001b0c8   0x00000000   Code   RO          883    .ARM.Collect$$$$0000000A  mc_p.l(entry8b.o)
    0x0001b0c8   0x00000008   Code   RO          884    .ARM.Collect$$$$0000000B  mc_p.l(entry9a.o)
    0x0001b0d0   0x00000000   Code   RO          886    .ARM.Collect$$$$0000000D  mc_p.l(entry10a.o)
    0x0001b0d0   0x00000000   Code   RO          888    .ARM.Collect$$$$0000000F  mc_p.l(entry11a.o)
    0x0001b0d0   0x00000004   Code   RO          877    .ARM.Collect$$$$00002712  mc_p.l(entry2.o)
    0x0001b0d4   0x00000034   Code   RO          153    .emb_text           bootloader_util.o
    0x0001b108   0x0000001e   Code   RO          289    .emb_text           nrf_delay.o
    0x0001b126   0x00000002   PAD
    0x0001b128   0x0000001e   Code   RO          598    .emb_text           app_timer.o
    0x0001b146   0x00000002   PAD
    0x0001b148   0x00000038   Code   RO          187    .text               arm_startup_nrf51.o
    0x0001b180   0x0000002c   Code   RO          737    .text               mc_p.l(uidiv.o)
    0x0001b1ac   0x00000028   Code   RO          738    .text               mc_p.l(idiv.o)
    0x0001b1d4   0x00000024   Code   RO          739    .text               mc_p.l(memcpya.o)
    0x0001b1f8   0x00000024   Code   RO          740    .text               mc_p.l(memseta.o)
    0x0001b21c   0x0000001a   Code   RO          742    .text               mc_p.l(memcmp.o)
    0x0001b236   0x00000060   Code   RO          890    .text               mc_p.l(uldiv.o)
    0x0001b296   0x00000000   Code   RO          891    .text               mc_p.l(iusefp.o)
    0x0001b296   0x00000002   PAD
    0x0001b298   0x00000164   Code   RO          892    .text               mf_p.l(dadd.o)
    0x0001b3fc   0x000000d0   Code   RO          893    .text               mf_p.l(dmul.o)
    0x0001b4cc   0x000000f0   Code   RO          894    .text               mf_p.l(ddiv.o)
    0x0001b5bc   0x00000040   Code   RO          895    .text               mf_p.l(dfixul.o)
    0x0001b5fc   0x00000028   Code   RO          896    .text               mf_p.l(cdrcmple.o)
    0x0001b624   0x00000024   Code   RO          897    .text               mc_p.l(init.o)
    0x0001b648   0x00000020   Code   RO          898    .text               mc_p.l(llshl.o)
    0x0001b668   0x00000022   Code   RO          899    .text               mc_p.l(llushr.o)
    0x0001b68a   0x00000026   Code   RO          900    .text               mc_p.l(llsshr.o)
    0x0001b6b0   0x000000be   Code   RO          901    .text               mf_p.l(depilogue.o)
    0x0001b76e   0x0000003a   Code   RO          908    .text               mc_p.l(__dczerorl.o)
    0x0001b7a8   0x00000060   Code   RO          515    i.ADC_IRQHandler    nrf_drv_adc.o
    0x0001b808   0x0000015c   Code   RO          296    i.GPIOTE_IRQHandler  nrf_drv_gpiote.o
    0x0001b964   0x0000001c   Code   RO            4    i.NVIC_SystemReset  main.o
    0x0001b980   0x00000020   Code   RO          599    i.RTC1_IRQHandler   app_timer.o
    0x0001b9a0   0x00000014   Code   RO          534    i.SPI0_TWI0_IRQHandler  nrf_drv_twi.o
    0x0001b9b4   0x00000008   Code   RO          600    i.SWI0_IRQHandler   app_timer.o
    0x0001b9bc   0x00000020   Code   RO          721    i.SWI2_IRQHandler   softdevice_handler.o
    0x0001b9dc   0x0000005c   Code   RO          191    i.SystemInit        system_nrf51.o
    0x0001ba38   0x00000018   Code   RO          447    i.TIMER0_IRQHandler  nrf_drv_timer.o
    0x0001ba50   0x00000018   Code   RO          448    i.TIMER1_IRQHandler  nrf_drv_timer.o
    0x0001ba68   0x00000018   Code   RO          449    i.TIMER2_IRQHandler  nrf_drv_timer.o
    0x0001ba80   0x00000008   Code   RO          328    i.UART0_IRQHandler  nrf_drv_uart.o
    0x0001ba88   0x00000034   Code   RO          863    i.__0snprintf       mc_p.l(printfa.o)
    0x0001babc   0x0000002e   Code   RO          902    i.__ARM_clz         mf_p.l(depilogue.o)
    0x0001baea   0x0000001a   Code   RO          152    i.__ARM_common_switch8  ble_dfu.o
    0x0001bb04   0x00000018   Code   RO          601    i.__NVIC_ClearPendingIRQ  app_timer.o
    0x0001bb1c   0x00000018   Code   RO          602    i.__NVIC_EnableIRQ  app_timer.o
    0x0001bb34   0x00000018   Code   RO          603    i.__NVIC_SetPendingIRQ  app_timer.o
    0x0001bb4c   0x00000044   Code   RO          604    i.__NVIC_SetPriority  app_timer.o
    0x0001bb90   0x0000000e   Code   RO          905    i.__scatterload_copy  mc_p.l(handlers.o)
    0x0001bb9e   0x00000002   Code   RO          906    i.__scatterload_null  mc_p.l(handlers.o)
    0x0001bba0   0x0000000e   Code   RO          907    i.__scatterload_zeroinit  mc_p.l(handlers.o)
    0x0001bbae   0x00000002   PAD
    0x0001bbb0   0x00000174   Code   RO          869    i._fp_digits        mc_p.l(printfa.o)
    0x0001bd24   0x000006ec   Code   RO          870    i._printf_core      mc_p.l(printfa.o)
    0x0001c410   0x00000020   Code   RO          871    i._printf_post_padding  mc_p.l(printfa.o)
    0x0001c430   0x0000002c   Code   RO          872    i._printf_pre_padding  mc_p.l(printfa.o)
    0x0001c45c   0x00000016   Code   RO          873    i._snputc           mc_p.l(printfa.o)
    0x0001c472   0x00000002   PAD
    0x0001c474   0x00000064   Code   RO          516    i.adc_sample_process  nrf_drv_adc.o
    0x0001c4d8   0x00000040   Code   RO            5    i.adc_timeout_handler  main.o
    0x0001c518   0x00000190   Code   RO          198    i.adv_data_encode   ble_advdata.o
    0x0001c6a8   0x0000000e   Code   RO          199    i.advdata_check     ble_advdata.o
    0x0001c6b6   0x00000002   PAD
    0x0001c6b8   0x00000078   Code   RO            6    i.advertising_init  main.o
    0x0001c730   0x0000000e   Code   RO            7    i.advertising_stop  main.o
    0x0001c73e   0x00000002   PAD
    0x0001c740   0x00000024   Code   RO          579    i.app_button_enable  app_button.o
    0x0001c764   0x00000074   Code   RO          580    i.app_button_init   app_button.o
    0x0001c7d8   0x0000001c   Code   RO          595    i.app_error_fault_handler  app_error_weak.o
    0x0001c7f4   0x00000018   Code   RO          590    i.app_error_handler_bare  app_error.o
    0x0001c80c   0x0000000c   Code   RO           62    i.app_evt_notify    device_manager_peripheral_1.o
    0x0001c818   0x0000002c   Code   RO          357    i.app_notify        pstorage.o
    0x0001c844   0x00000020   Code   RO          358    i.app_notify_error_state_transit  pstorage.o
    0x0001c864   0x00000034   Code   RO          607    i.app_timer_create  app_timer.o
    0x0001c898   0x00000090   Code   RO          608    i.app_timer_init    app_timer.o
    0x0001c928   0x00000050   Code   RO          609    i.app_timer_start   app_timer.o
    0x0001c978   0x00000034   Code   RO          610    i.app_timer_stop    app_timer.o
    0x0001c9ac   0x00000048   Code   RO          200    i.appearance_encode  ble_advdata.o
    0x0001c9f4   0x00000038   Code   RO            9    i.bas_init          main.o
    0x0001ca2c   0x0000013c   Code   RO          270    i.battery_level_char_add  ble_bas.o
    0x0001cb68   0x0000006c   Code   RO          201    i.ble_advdata_set   ble_advdata.o
    0x0001cbd4   0x00000128   Code   RO          219    i.ble_advertising_init  ble_advertising.o
    0x0001ccfc   0x000000a8   Code   RO          220    i.ble_advertising_on_ble_evt  ble_advertising.o
    0x0001cda4   0x00000030   Code   RO          221    i.ble_advertising_on_sys_evt  ble_advertising.o
    0x0001cdd4   0x00000010   Code   RO          223    i.ble_advertising_peer_address_clear  ble_advertising.o
    0x0001cde4   0x00000058   Code   RO          224    i.ble_advertising_restart_without_whitelist  ble_advertising.o
    0x0001ce3c   0x000001e0   Code   RO          225    i.ble_advertising_start  ble_advertising.o
    0x0001d01c   0x00000048   Code   RO          272    i.ble_bas_init      ble_bas.o
    0x0001d064   0x0000002a   Code   RO          273    i.ble_bas_on_ble_evt  ble_bas.o
    0x0001d08e   0x00000002   PAD
    0x0001d090   0x0000005c   Code   RO          235    i.ble_conn_params_init  ble_conn_params.o
    0x0001d0ec   0x0000002c   Code   RO          236    i.ble_conn_params_on_ble_evt  ble_conn_params.o
    0x0001d118   0x00000010   Code   RO          237    i.ble_conn_params_stop  ble_conn_params.o
    0x0001d128   0x00000068   Code   RO          258    i.ble_custom_service_init  ble_custom_service.o
    0x0001d190   0x0000002a   Code   RO          259    i.ble_custom_service_on_ble_evt  ble_custom_service.o
    0x0001d1ba   0x00000002   PAD
    0x0001d1bc   0x00000054   Code   RO          261    i.ble_custom_service_send_string_1  ble_custom_service.o
    0x0001d210   0x00000064   Code   RO          202    i.ble_device_addr_encode  ble_advdata.o
    0x0001d274   0x00000098   Code   RO          135    i.ble_dfu_init      ble_dfu.o
    0x0001d30c   0x0000003a   Code   RO          136    i.ble_dfu_on_ble_evt  ble_dfu.o
    0x0001d346   0x00000002   PAD
    0x0001d348   0x00000060   Code   RO          138    i.ble_dfu_response_send  ble_dfu.o
    0x0001d3a8   0x00000044   Code   RO           10    i.ble_evt_dispatch  main.o
    0x0001d3ec   0x0000000e   Code   RO          252    i.ble_srv_report_ref_encode  ble_srv_common.o
    0x0001d3fa   0x00000002   PAD
    0x0001d3fc   0x0000008c   Code   RO           11    i.ble_stack_init    main.o
    0x0001d488   0x00000048   Code   RO           63    i.bond_data_load    device_manager_peripheral_1.o
    0x0001d4d0   0x00000068   Code   RO          158    i.bootloader_start  dfu_app_handler.o
    0x0001d538   0x00000008   Code   RO          154    i.bootloader_util_app_start  bootloader_util.o
    0x0001d540   0x00000020   Code   RO          182    i.bsp_btn_ble_on_ble_evt  bsp_btn_ble.o
    0x0001d560   0x0000008c   Code   RO          169    i.bsp_button_event_handler  bsp.o
    0x0001d5ec   0x00000098   Code   RO           12    i.bsp_event_handler  main.o
    0x0001d684   0x0000003c   Code   RO          174    i.bsp_event_to_button_action_assign  bsp.o
    0x0001d6c0   0x00000060   Code   RO          175    i.bsp_init          bsp.o
    0x0001d720   0x00000098   Code   RO           13    i.button_timeout_coil_handler  main.o
    0x0001d7b8   0x000000f8   Code   RO           14    i.button_timeout_pwr_handler  main.o
    0x0001d8b0   0x0000000c   Code   RO          176    i.button_timer_handler  bsp.o
    0x0001d8bc   0x00000044   Code   RO           15    i.buttons_leds_init  main.o
    0x0001d900   0x0000001c   Code   RO          297    i.channel_free      nrf_drv_gpiote.o
    0x0001d91c   0x0000004c   Code   RO          298    i.channel_port_alloc  nrf_drv_gpiote.o
    0x0001d968   0x00000010   Code   RO          299    i.channel_port_get  nrf_drv_gpiote.o
    0x0001d978   0x000000dc   Code   RO          359    i.clear_operation_execute  pstorage.o
    0x0001da54   0x00000024   Code   RO          360    i.clear_post_processing_run  pstorage.o
    0x0001da78   0x0000003c   Code   RO          361    i.cmd_process       pstorage.o
    0x0001dab4   0x00000014   Code   RO          362    i.cmd_queue_dequeue  pstorage.o
    0x0001dac8   0x00000020   Code   RO          363    i.cmd_queue_element_init  pstorage.o
    0x0001dae8   0x0000004c   Code   RO          364    i.cmd_queue_enqueue  pstorage.o
    0x0001db34   0x00000020   Code   RO          365    i.cmd_queue_init    pstorage.o
    0x0001db54   0x00000024   Code   RO          366    i.command_end_procedure_run  pstorage.o
    0x0001db78   0x00000028   Code   RO          367    i.command_queue_element_consume  pstorage.o
    0x0001dba0   0x0000006c   Code   RO          612    i.compare_reg_update  app_timer.o
    0x0001dc0c   0x00000044   Code   RO          203    i.conn_int_check    ble_advdata.o
    0x0001dc50   0x0000005a   Code   RO          204    i.conn_int_encode   ble_advdata.o
    0x0001dcaa   0x00000008   Code   RO           16    i.conn_params_error_handler  main.o
    0x0001dcb2   0x00000002   PAD
    0x0001dcb4   0x00000048   Code   RO           17    i.conn_params_init  main.o
    0x0001dcfc   0x0000006c   Code   RO          238    i.conn_params_negotiation  ble_conn_params.o
    0x0001dd68   0x00000040   Code   RO           64    i.connection_instance_find  device_manager_peripheral_1.o
    0x0001dda8   0x00000024   Code   RO           65    i.connection_instance_init  device_manager_peripheral_1.o
    0x0001ddcc   0x00000020   Code   RO           18    i.custom_service_data_handler  main.o
    0x0001ddec   0x00000060   Code   RO          368    i.data_page_erase_state_run  pstorage.o
    0x0001de4c   0x00000028   Code   RO          369    i.data_to_swap_write_state_run  pstorage.o
    0x0001de74   0x00000060   Code   RO          582    i.detection_delay_timeout_handler  app_button.o
    0x0001ded4   0x000000b4   Code   RO           66    i.device_context_store  device_manager_peripheral_1.o
    0x0001df88   0x00000050   Code   RO           67    i.device_instance_allocate  device_manager_peripheral_1.o
    0x0001dfd8   0x0000004c   Code   RO           68    i.device_instance_find  device_manager_peripheral_1.o
    0x0001e024   0x00000030   Code   RO           69    i.device_instance_free  device_manager_peripheral_1.o
    0x0001e054   0x00000010   Code   RO           19    i.device_manager_evt_handler  main.o
    0x0001e064   0x00000074   Code   RO           20    i.device_manager_init  main.o
    0x0001e0d8   0x00000018   Code   RO          159    i.dfu_app_dm_appl_instance_set  dfu_app_handler.o
    0x0001e0f0   0x00000022   Code   RO          160    i.dfu_app_on_dfu_evt  dfu_app_handler.o
    0x0001e112   0x00000002   PAD
    0x0001e114   0x000000a4   Code   RO          161    i.dfu_app_peer_data_set  dfu_app_handler.o
    0x0001e1b8   0x00000002   Code   RO          162    i.dfu_app_reset_prepare  dfu_app_handler.o
    0x0001e1ba   0x00000002   PAD
    0x0001e1bc   0x0000000c   Code   RO          163    i.dfu_app_reset_prepare_set  dfu_app_handler.o
    0x0001e1c8   0x0000008c   Code   RO          139    i.dfu_ctrl_pt_add   ble_dfu.o
    0x0001e254   0x0000008c   Code   RO          140    i.dfu_pkt_char_add  ble_dfu.o
    0x0001e2e0   0x0000008c   Code   RO          141    i.dfu_rev_char_add  ble_dfu.o
    0x0001e36c   0x000000dc   Code   RO           72    i.dm_application_context_set  device_manager_peripheral_1.o
    0x0001e448   0x00000048   Code   RO           73    i.dm_application_instance_set  device_manager_peripheral_1.o
    0x0001e490   0x00000420   Code   RO           74    i.dm_ble_evt_handler  device_manager_peripheral_1.o
    0x0001e8b0   0x000000b8   Code   RO           78    i.dm_distributed_keys_get  device_manager_peripheral_1.o
    0x0001e968   0x0000005c   Code   RO           79    i.dm_handle_get     device_manager_peripheral_1.o
    0x0001e9c4   0x0000001c   Code   RO           80    i.dm_handle_initialize  device_manager_peripheral_1.o
    0x0001e9e0   0x000000e0   Code   RO           81    i.dm_init           device_manager_peripheral_1.o
    0x0001eac0   0x00000094   Code   RO           82    i.dm_peer_addr_get  device_manager_peripheral_1.o
    0x0001eb54   0x000001cc   Code   RO           84    i.dm_pstorage_cb_handler  device_manager_peripheral_1.o
    0x0001ed20   0x0000007c   Code   RO           85    i.dm_register       device_manager_peripheral_1.o
    0x0001ed9c   0x0000006c   Code   RO           21    i.double_push_timeout_handler  main.o
    0x0001ee08   0x00000040   Code   RO          613    i.elapsed_ticks_acquire  app_timer.o
    0x0001ee48   0x00000048   Code   RO          614    i.expired_timers_handler  app_timer.o
    0x0001ee90   0x00000032   Code   RO          205    i.flags_encode      ble_advdata.o
    0x0001eec2   0x00000038   Code   RO          227    i.flash_access_in_progress  ble_advertising.o
    0x0001eefa   0x00000002   PAD
    0x0001eefc   0x00000020   Code   RO          371    i.flash_api_err_code_process  pstorage.o
    0x0001ef1c   0x0000000a   Code   RO          374    i.flash_page_erase  pstorage.o
    0x0001ef26   0x0000000a   Code   RO          375    i.flash_write       pstorage.o
    0x0001ef30   0x00000018   Code   RO          648    i.fs_queued_op_count_get  fstorage.o
    0x0001ef48   0x00000074   Code   RO           22    i.gap_params_init   main.o
    0x0001efbc   0x00000004   Code   RO           92    i.gattc_context_apply  device_manager_peripheral_1.o
    0x0001efc0   0x00000004   Code   RO           93    i.gattc_context_load  device_manager_peripheral_1.o
    0x0001efc4   0x00000004   Code   RO           94    i.gattc_context_store  device_manager_peripheral_1.o
    0x0001efc8   0x000000b4   Code   RO           95    i.gatts_context_apply  device_manager_peripheral_1.o
    0x0001f07c   0x00000034   Code   RO           96    i.gatts_context_load  device_manager_peripheral_1.o
    0x0001f0b0   0x000000ac   Code   RO           97    i.gatts_context_store  device_manager_peripheral_1.o
    0x0001f15c   0x00000008   Code   RO           98    i.gattsc_context_apply  device_manager_peripheral_1.o
    0x0001f164   0x00000008   Code   RO           99    i.gattsc_context_load  device_manager_peripheral_1.o
    0x0001f16c   0x00000008   Code   RO          100    i.gattsc_context_store  device_manager_peripheral_1.o
    0x0001f174   0x00000054   Code   RO          583    i.gpiote_event_handler  app_button.o
    0x0001f1c8   0x00000058   Code   RO          376    i.head_restore_state_run  pstorage.o
    0x0001f220   0x00000078   Code   RO          722    i.intern_softdevice_events_execute  softdevice_handler.o
    0x0001f298   0x0000003c   Code   RO          164    i.interrupts_disable  dfu_app_handler.o
    0x0001f2d4   0x0000004c   Code   RO          450    i.irq_handler       nrf_drv_timer.o
    0x0001f320   0x000000b0   Code   RO          535    i.irq_handler_twi   nrf_drv_twi.o
    0x0001f3d0   0x0000003a   Code   RO          142    i.is_cccd_configured  ble_dfu.o
    0x0001f40a   0x00000002   PAD
    0x0001f40c   0x0000001c   Code   RO          239    i.is_conn_params_ok  ble_conn_params.o
    0x0001f428   0x00000030   Code   RO          192    i.is_disabled_in_debug_needed  system_nrf51.o
    0x0001f458   0x00000054   Code   RO          193    i.is_manual_peripheral_setup_needed  system_nrf51.o
    0x0001f4ac   0x00000044   Code   RO          377    i.is_page_erase_required  pstorage.o
    0x0001f4f0   0x00000040   Code   RO          194    i.is_peripheral_domain_setup_needed  system_nrf51.o
    0x0001f530   0x00000040   Code   RO          378    i.is_tail_data_page_swap_required  pstorage.o
    0x0001f570   0x0000000c   Code   RO          379    i.is_word_aligned   pstorage.o
    0x0001f57c   0x00000058   Code   RO          206    i.le_role_encode    ble_advdata.o
    0x0001f5d4   0x00000074   Code   RO          615    i.list_deletions_handler  app_timer.o
    0x0001f648   0x000000d4   Code   RO          616    i.list_insertions_handler  app_timer.o
    0x0001f71c   0x00000048   Code   RO           23    i.main              main.o
    0x0001f764   0x0000006c   Code   RO          207    i.manuf_specific_data_encode  ble_advdata.o
    0x0001f7d0   0x0000009c   Code   RO          208    i.name_encode       ble_advdata.o
    0x0001f86c   0x00000004   Code   RO          101    i.no_service_context_apply  device_manager_peripheral_1.o
    0x0001f870   0x00000004   Code   RO          102    i.no_service_context_load  device_manager_peripheral_1.o
    0x0001f874   0x00000004   Code   RO          103    i.no_service_context_store  device_manager_peripheral_1.o
    0x0001f878   0x00000014   Code   RO          518    i.nrf_adc_event_check  nrf_drv_adc.o
    0x0001f88c   0x00000020   Code   RO          290    i.nrf_delay_ms      nrf_delay.o
    0x0001f8ac   0x00000068   Code   RO          525    i.nrf_drv_adc_sample_convert  nrf_drv_adc.o
    0x0001f914   0x00000068   Code   RO          293    i.nrf_drv_common_irq_enable  nrf_drv_common.o
    0x0001f97c   0x000000a8   Code   RO          302    i.nrf_drv_gpiote_in_event_enable  nrf_drv_gpiote.o
    0x0001fa24   0x000000a4   Code   RO          303    i.nrf_drv_gpiote_in_init  nrf_drv_gpiote.o
    0x0001fac8   0x00000018   Code   RO          304    i.nrf_drv_gpiote_in_is_set  nrf_drv_gpiote.o
    0x0001fae0   0x00000054   Code   RO          306    i.nrf_drv_gpiote_init  nrf_drv_gpiote.o
    0x0001fb34   0x00000010   Code   RO          307    i.nrf_drv_gpiote_is_init  nrf_drv_gpiote.o
    0x0001fb44   0x00000024   Code   RO           24    i.nrf_gpio_cfg      main.o
    0x0001fb68   0x00000024   Code   RO          319    i.nrf_gpio_cfg      nrf_drv_gpiote.o
    0x0001fb8c   0x00000014   Code   RO           25    i.nrf_gpio_cfg_output  main.o
    0x0001fba0   0x00000020   Code   RO          321    i.nrf_gpio_cfg_sense_set  nrf_drv_gpiote.o
    0x0001fbc0   0x00000010   Code   RO           26    i.nrf_gpio_pin_clear  main.o
    0x0001fbd0   0x00000010   Code   RO           27    i.nrf_gpio_pin_set  main.o
    0x0001fbe0   0x00000014   Code   RO          322    i.nrf_gpiote_event_is_set  nrf_drv_gpiote.o
    0x0001fbf4   0x0000000a   Code   RO          547    i.nrf_twi_event_check  nrf_drv_twi.o
    0x0001fbfe   0x0000000a   Code   RO          345    i.nrf_uart_event_check  nrf_drv_uart.o
    0x0001fc08   0x00000010   Code   RO          346    i.nrf_uart_int_enable_check  nrf_drv_uart.o
    0x0001fc18   0x00000002   Code   RO           28    i.on_adv_evt        main.o
    0x0001fc1a   0x00000002   PAD
    0x0001fc1c   0x00000020   Code   RO           29    i.on_ble_evt        main.o
    0x0001fc3c   0x00000020   Code   RO           30    i.on_conn_params_evt  main.o
    0x0001fc5c   0x00000018   Code   RO          240    i.on_conn_params_update  ble_conn_params.o
    0x0001fc74   0x00000006   Code   RO          143    i.on_connect        ble_dfu.o
    0x0001fc7a   0x00000002   PAD
    0x0001fc7c   0x00000030   Code   RO          241    i.on_connect        ble_conn_params.o
    0x0001fcac   0x00000006   Code   RO          263    i.on_connect        ble_custom_service.o
    0x0001fcb2   0x00000006   Code   RO          274    i.on_connect        ble_bas.o
    0x0001fcb8   0x00000132   Code   RO          144    i.on_ctrl_pt_write  ble_dfu.o
    0x0001fdea   0x00000008   Code   RO          145    i.on_disconnect     ble_dfu.o
    0x0001fdf2   0x00000002   PAD
    0x0001fdf4   0x00000034   Code   RO          242    i.on_disconnect     ble_conn_params.o
    0x0001fe28   0x00000008   Code   RO          264    i.on_disconnect     ble_custom_service.o
    0x0001fe30   0x00000008   Code   RO          275    i.on_disconnect     ble_bas.o
    0x0001fe38   0x0000003a   Code   RO          146    i.on_rw_authorize_req  ble_dfu.o
    0x0001fe72   0x00000020   Code   RO          147    i.on_write          ble_dfu.o
    0x0001fe92   0x00000002   PAD
    0x0001fe94   0x00000048   Code   RO          243    i.on_write          ble_conn_params.o
    0x0001fedc   0x0000003e   Code   RO          265    i.on_write          ble_custom_service.o
    0x0001ff1a   0x0000003e   Code   RO          276    i.on_write          ble_bas.o
    0x0001ff58   0x00000016   Code   RO          228    i.peer_address_exists  ble_advertising.o
    0x0001ff6e   0x00000002   PAD
    0x0001ff70   0x00000040   Code   RO          104    i.peer_instance_init  device_manager_peripheral_1.o
    0x0001ffb0   0x00000018   Code   RO          323    i.pin_in_use_by_port  nrf_drv_gpiote.o
    0x0001ffc8   0x00000018   Code   RO          324    i.pin_in_use_by_te  nrf_drv_gpiote.o
    0x0001ffe0   0x0000002c   Code   RO           31    i.pin_init          main.o
    0x0002000c   0x0000000e   Code   RO           32    i.power_manage      main.o
    0x0002001a   0x00000002   PAD
    0x0002001c   0x00000028   Code   RO          381    i.pstorage_access_status_get  pstorage.o
    0x00020044   0x0000006c   Code   RO          382    i.pstorage_block_identifier_get  pstorage.o
    0x000200b0   0x000000b8   Code   RO          383    i.pstorage_clear    pstorage.o
    0x00020168   0x00000024   Code   RO          384    i.pstorage_flash_page_end  pstorage.o
    0x0002018c   0x0000000a   Code   RO          385    i.pstorage_flash_page_size  pstorage.o
    0x00020196   0x00000002   PAD
    0x00020198   0x0000004c   Code   RO          386    i.pstorage_init     pstorage.o
    0x000201e4   0x000000bc   Code   RO          387    i.pstorage_load     pstorage.o
    0x000202a0   0x000000cc   Code   RO          388    i.pstorage_register  pstorage.o
    0x0002036c   0x000000a4   Code   RO          389    i.pstorage_store    pstorage.o
    0x00020410   0x000000a4   Code   RO          391    i.pstorage_update   pstorage.o
    0x000204b4   0x0000003c   Code   RO           33    i.reset_prepare     main.o
    0x000204f0   0x00000004   Code   RO           34    i.reset_timeout_handler  main.o
    0x000204f4   0x00000014   Code   RO          617    i.rtc1_init         app_timer.o
    0x00020508   0x0000003c   Code   RO          618    i.rtc1_start        app_timer.o
    0x00020544   0x0000004c   Code   RO          619    i.rtc1_stop         app_timer.o
    0x00020590   0x00000002   Code   RO           35    i.rtc_timeout_handler  main.o
    0x00020592   0x00000002   PAD
    0x00020594   0x00000038   Code   RO          347    i.rx_byte           nrf_drv_uart.o
    0x000205cc   0x0000001c   Code   RO          348    i.rx_done_event     nrf_drv_uart.o
    0x000205e8   0x00000018   Code   RO          723    i.sd_check_ram_start  softdevice_handler.o
    0x00020600   0x000000b0   Code   RO          724    i.sd_nvic_EnableIRQ  softdevice_handler.o
    0x000206b0   0x00000032   Code   RO          209    i.sec_mgr_oob_flags_encode  ble_advdata.o
    0x000206e2   0x0000008e   Code   RO          210    i.service_data_encode  ble_advdata.o
    0x00020770   0x00000060   Code   RO           36    i.services_init     main.o
    0x000207d0   0x00000010   Code   RO          392    i.sm_state_change   pstorage.o
    0x000207e0   0x00000014   Code   RO          725    i.softdevice_ble_evt_handler_set  softdevice_handler.o
    0x000207f4   0x00000014   Code   RO          726    i.softdevice_enable  softdevice_handler.o
    0x00020808   0x00000028   Code   RO          727    i.softdevice_enable_get_default_config  softdevice_handler.o
    0x00020830   0x00000008   Code   RO          728    i.softdevice_fault_handler  softdevice_handler.o
    0x00020838   0x00000040   Code   RO          729    i.softdevice_handler_init  softdevice_handler.o
    0x00020878   0x00000014   Code   RO          732    i.softdevice_sys_evt_handler_set  softdevice_handler.o
    0x0002088c   0x0000000e   Code   RO          211    i.srdata_check      ble_advdata.o
    0x0002089a   0x00000002   PAD
    0x0002089c   0x00000010   Code   RO          393    i.state_data_erase_entry_run  pstorage.o
    0x000208ac   0x00000070   Code   RO          394    i.state_data_erase_swap_entry_run  pstorage.o
    0x0002091c   0x00000034   Code   RO          395    i.state_entry_action_run  pstorage.o
    0x00020950   0x00000010   Code   RO          396    i.state_erase_data_page_entry_run  pstorage.o
    0x00020960   0x00000014   Code   RO          397    i.state_idle_entry_run  pstorage.o
    0x00020974   0x00000028   Code   RO          398    i.state_restore_head_entry_run  pstorage.o
    0x0002099c   0x0000004c   Code   RO          399    i.state_restore_tail_entry_run  pstorage.o
    0x000209e8   0x00000008   Code   RO          400    i.state_store_entry_run  pstorage.o
    0x000209f0   0x00000020   Code   RO          401    i.state_swap_erase_entry_run  pstorage.o
    0x00020a10   0x00000030   Code   RO          402    i.state_write_data_swap_entry_run  pstorage.o
    0x00020a40   0x00000004   Code   RO          105    i.storage_operation_dummy_handler  device_manager_peripheral_1.o
    0x00020a44   0x0000005c   Code   RO          403    i.store_cmd_flash_write_execute  pstorage.o
    0x00020aa0   0x0000000a   Code   RO          404    i.store_operation_execute  pstorage.o
    0x00020aaa   0x00000002   PAD
    0x00020aac   0x0000001c   Code   RO          406    i.swap_erase_state_run  pstorage.o
    0x00020ac8   0x0000002c   Code   RO           37    i.swap_mac_addr     main.o
    0x00020af4   0x00000008   Code   RO          407    i.swap_sub_sm_exit_action_run  pstorage.o
    0x00020afc   0x00000014   Code   RO          408    i.swap_sub_state_entry_action_run  pstorage.o
    0x00020b10   0x00000018   Code   RO          409    i.swap_sub_state_err_busy_process  pstorage.o
    0x00020b28   0x00000010   Code   RO          411    i.swap_sub_state_state_change  pstorage.o
    0x00020b38   0x00000008   Code   RO           38    i.sys_evt_dispatch  main.o
    0x00020b40   0x0000001c   Code   RO          412    i.tail_restore_state_run  pstorage.o
    0x00020b5c   0x0000004c   Code   RO          413    i.tail_word_size_calculate  pstorage.o
    0x00020ba8   0x00000028   Code   RO          620    i.timeout_handler_exec  app_timer.o
    0x00020bd0   0x00000050   Code   RO          621    i.timer_list_handler  app_timer.o
    0x00020c20   0x0000000a   Code   RO          622    i.timer_list_handler_sched  app_timer.o
    0x00020c2a   0x00000002   PAD
    0x00020c2c   0x0000004c   Code   RO          623    i.timer_list_insert  app_timer.o
    0x00020c78   0x00000050   Code   RO          624    i.timer_list_remove  app_timer.o
    0x00020cc8   0x00000054   Code   RO          625    i.timer_start_op_schedule  app_timer.o
    0x00020d1c   0x00000038   Code   RO          627    i.timer_stop_op_schedule  app_timer.o
    0x00020d54   0x00000068   Code   RO          628    i.timer_timeouts_check  app_timer.o
    0x00020dbc   0x0000000a   Code   RO          629    i.timer_timeouts_check_sched  app_timer.o
    0x00020dc6   0x00000002   PAD
    0x00020dc8   0x000000b0   Code   RO           39    i.timers_init       main.o
    0x00020e78   0x00000040   Code   RO          212    i.tk_value_encode   ble_advdata.o
    0x00020eb8   0x00000032   Code   RO          549    i.twi_receive_byte  nrf_drv_twi.o
    0x00020eea   0x00000002   PAD
    0x00020eec   0x00000090   Code   RO          550    i.twi_rx_start_transfer  nrf_drv_twi.o
    0x00020f7c   0x0000002e   Code   RO          551    i.twi_send_byte     nrf_drv_twi.o
    0x00020faa   0x000000f6   Code   RO          552    i.twi_transfer      nrf_drv_twi.o
    0x000210a0   0x0000008c   Code   RO          553    i.twi_tx_start_transfer  nrf_drv_twi.o
    0x0002112c   0x0000002c   Code   RO          350    i.tx_byte           nrf_drv_uart.o
    0x00021158   0x0000007e   Code   RO          266    i.tx_char_add       ble_custom_service.o
    0x000211d6   0x00000002   PAD
    0x000211d8   0x00000020   Code   RO          351    i.tx_done_event     nrf_drv_uart.o
    0x000211f8   0x00000032   Code   RO          213    i.tx_power_level_encode  ble_advdata.o
    0x0002122a   0x00000002   PAD
    0x0002122c   0x0000012c   Code   RO          352    i.uart_irq_handler  nrf_drv_uart.o
    0x00021358   0x0000000a   Code   RO          214    i.uint16_encode     ble_advdata.o
    0x00021362   0x00000008   Code   RO          414    i.update_operation_execute  pstorage.o
    0x0002136a   0x00000002   PAD
    0x0002136c   0x00000014   Code   RO          106    i.update_status_bit_reset  device_manager_peripheral_1.o
    0x00021380   0x00000064   Code   RO          244    i.update_timeout_handler  ble_conn_params.o
    0x000213e4   0x00000068   Code   RO          630    i.user_id_get       app_timer.o
    0x0002144c   0x00000026   Code   RO          631    i.user_op_alloc     app_timer.o
    0x00021472   0x00000004   Code   RO          632    i.user_op_enque     app_timer.o
    0x00021476   0x00000036   Code   RO          215    i.uuid_list_encode  ble_advdata.o
    0x000214ac   0x000000ae   Code   RO          216    i.uuid_list_sized_encode  ble_advdata.o
    0x0002155a   0x00000014   Code   RO          229    i.whitelist_has_entries  ble_advertising.o
    0x0002156e   0x00000002   PAD
    0x00021570   0x0000001c   Data   RO           47    .constdata          main.o
    0x0002158c   0x00000034   Data   RO          108    .constdata          device_manager_peripheral_1.o
    0x000215c0   0x00000010   Data   RO          149    .constdata          ble_dfu.o
    0x000215d0   0x00000010   Data   RO          178    .constdata          bsp.o
    0x000215e0   0x00000004   Data   RO          247    .constdata          ble_conn_params.o
    0x000215e4   0x00000010   Data   RO          267    .constdata          ble_custom_service.o
    0x000215f4   0x00000028   Data   RO          416    .constdata          pstorage.o
    0x0002161c   0x00000008   Data   RO          585    .constdata          app_button.o
    0x00021624   0x00000020   Data   RO          903    Region$$Table       anon$$obj.o


    Execution Region RW_IRAM1 (Base: 0x20002000, Size: 0x00001318, Max: 0x00001a00, ABSOLUTE, COMPRESSED[0x00000024])

    Base Addr    Size         Type   Attr      Idx    E Section Name        Object

    0x20002000   0x00000048   Data   RW           49    .data               main.o
    0x20002048   0x00000018   Data   RW          109    .data               device_manager_peripheral_1.o
    0x20002060   0x00000008   Data   RW          150    .data               ble_dfu.o
    0x20002068   0x00000008   Data   RW          166    .data               dfu_app_handler.o
    0x20002070   0x00000014   Data   RW          179    .data               bsp.o
    0x20002084   0x00000004   Data   RW          183    .data               bsp_btn_ble.o
    0x20002088   0x00000004   Data   RW          195    .data               system_nrf51.o
    0x2000208c   0x0000001f   Data   RW          231    .data               ble_advertising.o
    0x200020ab   0x00000001   PAD
    0x200020ac   0x00000014   Data   RW          248    .data               ble_conn_params.o
    0x200020c0   0x00000024   Data   RW          417    .data               pstorage.o
    0x200020e4   0x00000014   Data   RW          586    .data               app_button.o
    0x200020f8   0x00000020   Data   RW          633    .data               app_timer.o
    0x20002118   0x0000001c   Data   RW          733    .data               softdevice_handler.o
    0x20002134   0x00000020   Zero   RW           40    .bss                main.o
    0x20002154   0x00000020   Zero   RW           41    .bss                main.o
    0x20002174   0x00000020   Zero   RW           42    .bss                main.o
    0x20002194   0x00000020   Zero   RW           43    .bss                main.o
    0x200021b4   0x00000020   Zero   RW           44    .bss                main.o
    0x200021d4   0x00000020   Zero   RW           45    .bss                main.o
    0x200021f4   0x000003a8   Zero   RW           46    .bss                main.o
    0x2000259c   0x0000014f   Zero   RW          107    .bss                device_manager_peripheral_1.o
    0x200026eb   0x00000001   PAD
    0x200026ec   0x0000003c   Zero   RW          165    .bss                dfu_app_handler.o
    0x20002728   0x00000020   Zero   RW          177    .bss                bsp.o
    0x20002748   0x00000103   Zero   RW          230    .bss                ble_advertising.o
    0x2000284b   0x00000001   PAD
    0x2000284c   0x00000020   Zero   RW          245    .bss                ble_conn_params.o
    0x2000286c   0x0000001c   Zero   RW          246    .bss                ble_conn_params.o
    0x20002888   0x00000048   Zero   RW          325    .bss                nrf_drv_gpiote.o
    0x200028d0   0x0000001c   Zero   RW          353    .bss                nrf_drv_uart.o
    0x200028ec   0x00000150   Zero   RW          415    .bss                pstorage.o
    0x20002a3c   0x00000024   Zero   RW          464    .bss                nrf_drv_timer.o
    0x20002a60   0x00000014   Zero   RW          529    .bss                nrf_drv_adc.o
    0x20002a74   0x00000028   Zero   RW          555    .bss                nrf_drv_twi.o
    0x20002a9c   0x00000020   Zero   RW          584    .bss                app_button.o
    0x20002abc   0x00000058   Zero   RW          659    .bss                fstorage.o
    0x20002b14   0x00000004   PAD
    0x20002b18   0x00000800   Zero   RW          184    STACK               arm_startup_nrf51.o


==============================================================================

Image component sizes


      Code (inc. data)   RO Data    RW Data    ZI Data      Debug   Object Name

       332         34          8         20         32          0   app_button.o
        24          4          0          0          0          0   app_error.o
        28         10          0          0          0          0   app_error_weak.o
      1952        184          0         32          0          0   app_timer.o
        56         18        192          0       2048          0   arm_startup_nrf51.o
      1812          6          0          0          0          0   ble_advdata.o
      1194         42          0         31        259          0   ble_advertising.o
       506         14          0          0          0          0   ble_bas.o
       584         90          4         20         60          0   ble_conn_params.o
       432         12         16          0          0          0   ble_custom_service.o
      1220         50         16          8          0          0   ble_dfu.o
        14          0          0          0          0          0   ble_srv_common.o
        60          2          0          0          0          0   bootloader_util.o
       308         26         16         20         32          0   bsp.o
        32          6          0          4          0          0   bsp_btn_ble.o
      3716        288         52         24        335          0   device_manager_peripheral_1.o
       400         42          0          8         60          0   dfu_app_handler.o
        24          6          0          0         88          0   fstorage.o
      2252        254         28         72       1128          0   main.o
        62          6          0          0          0          0   nrf_delay.o
       320         62          0          0         20          0   nrf_drv_adc.o
       104         18          0          0          0          0   nrf_drv_common.o
      1060        126          0          0         72          0   nrf_drv_gpiote.o
       148         30          0          0         36          0   nrf_drv_timer.o
       832         18          0          0         40          0   nrf_drv_twi.o
       494         56          0          0         28          0   nrf_drv_uart.o
      2968        282         40         36        336          0   pstorage.o
       524         58          0         28          0          0   softdevice_handler.o
       288         40          0          4          0          0   system_nrf51.o

    ----------------------------------------------------------------------
     21806       1784        404        308       4580          0   Object Totals
         0          0         32          0          0          0   (incl. Generated)
        60          0          0          1          6          0   (incl. Padding)

    ----------------------------------------------------------------------

      Code (inc. data)   RO Data    RW Data    ZI Data      Debug   Library Member Name

        58          0          0          0          0          0   __dczerorl.o
         0          0          0          0          0          0   entry.o
         0          0          0          0          0          0   entry10a.o
         0          0          0          0          0          0   entry11a.o
         8          4          0          0          0          0   entry2.o
         4          0          0          0          0          0   entry5.o
         0          0          0          0          0          0   entry7b.o
         0          0          0          0          0          0   entry8b.o
         8          4          0          0          0          0   entry9a.o
        30          0          0          0          0          0   handlers.o
        40          0          0          0          0          0   idiv.o
        36          8          0          0          0          0   init.o
         0          0          0          0          0          0   iusefp.o
        32          0          0          0          0          0   llshl.o
        38          0          0          0          0          0   llsshr.o
        34          0          0          0          0          0   llushr.o
        26          0          0          0          0          0   memcmp.o
        36          0          0          0          0          0   memcpya.o
        36          0          0          0          0          0   memseta.o
      2294         96          0          0          0          0   printfa.o
        44          0          0          0          0          0   uidiv.o
        96          0          0          0          0          0   uldiv.o
        40          2          0          0          0          0   cdrcmple.o
       356          4          0          0          0          0   dadd.o
       240          6          0          0          0          0   ddiv.o
       236          0          0          0          0          0   depilogue.o
        64         10          0          0          0          0   dfixul.o
       208          6          0          0          0          0   dmul.o

    ----------------------------------------------------------------------
      3970        140          0          0          0          0   Library Totals
         6          0          0          0          0          0   (incl. Padding)

    ----------------------------------------------------------------------

      Code (inc. data)   RO Data    RW Data    ZI Data      Debug   Library Name

      2820        112          0          0          0          0   mc_p.l
      1144         28          0          0          0          0   mf_p.l

    ----------------------------------------------------------------------
      3970        140          0          0          0          0   Library Totals

    ----------------------------------------------------------------------

==============================================================================


      Code (inc. data)   RO Data    RW Data    ZI Data      Debug   

     25776       1924        404        308       4580          0   Grand Totals
     25776       1924        404         36       4580          0   ELF Image Totals (compressed)
     25776       1924        404         36          0          0   ROM Totals

==============================================================================

    Total RO  Size (Code + RO Data)                26180 (  25.57kB)
    Total RW  Size (RW Data + ZI Data)              4888 (   4.77kB)
    Total ROM Size (Code + RO Data + RW Data)      26216 (  25.60kB)

==============================================================================

